:020000040800F2
:10000000A0090020C5000008791C0008651300083D
:1000100000000000000000000000000000000000E0
:10002000000000000000000000000000E52F0008B4
:100030000000000000000000CD1C000899310008FD
:10004000F5000008F5000008F5000008F5000008BC
:10005000F5000008F5000008F5000008F5000008AC
:10006000000000002D070008F5000008F50000085A
:10007000F5000008FD310008F50000081D320008F9
:10008000393200080000000000000000F500000800
:1000900000000000F5000008F5000008F500000869
:1000A00000000000F500000800000000F500000856
:1000B0000348854600F05CF800480047CD3800084A
:1000C000A00900200C4880F308880C480168090E3C
:1000D0000B4A914205D10B480B4901600B480C4972
:1000E00001600C4880470C480047FEE7FEE7FEE74A
:1000F000FEE7FEE7FEE70000A00900200400000084
:100100001F00000018100240010000000000014024
:10011000000000009D310008B100000830B50B461A
:10012000014600202022012409E00D46D5409D42D1
:1001300005D31D469540491B254695404019154657
:10014000521E002DF1DC30BD70B50024254600287C
:1001500001DA01244042002901DA01254942FFF772
:10016000DDFFAC4200D04042002C00D0494270BDBF
:10017000064C0125064E05E0E36807CC2B430C3CFA
:1001800098471034B442F7D3FFF796FFCC3C0008F1
:10019000EC3C0008F8B5194D0026194C194F6E605B
:1001A00027E019480178002923D006701348001D64
:1001B00001F00AF87D206968C000814202D92068F8
:1001C000401E03E0814202D22068401C20600F489C
:1001D0002168814201DB206002E0002900DC26600A
:1001E000208881B2002000F0FDF90121002000F0FC
:1001F00003FA6868C0196528D3D2F8BD98000020BA
:10020000580000204AFCFFFF00000020FF0F000004
:10021000836A0B438362426170470029816801D081
:10022000012200E002221143816070470029C16869
:1002300002D00122114301E049084900C160704722
:10024000C26802239A43C260C2680A43C260704710
:10025000064910B5884208D144150121204601F015
:10026000BBFD0021204601F0B7FD10BD0024014078
:10027000826800210123DB071A4382600F231B03DE
:100280008268491CD20FD207994201D0002AF7D1C7
:100290008168002901DB006C70470020704702462E
:1002A0000020CB0104D5926801231B069A4300E08D
:1002B00012680A4200D001207047000030B5C368C0
:1002C000084A8C6813400A680D792243CC686D0394
:1002D0002C4322430C69496922430A431A43C260F2
:1002E00030BD000003D2FFFF012212030029C168C4
:1002F00001D0114300E09143C1607047816804223E
:100300001143816070470021016001718160C1600B
:100310000161416170470000F8B5574D287A2128E6
:100320007ED156483321027A1F270026544C212AB9
:1003300002D1C079012804D05248027A212A20D063
:100340007BE0A079332802D0A1716E8107E03420D0
:10035000A071FAE7012000F0ADF8012020724648B4
:1003600001F0D0FE012804D1444801F0CBFE012861
:10037000F0D0A179444803F0ECF82F726E813F4829
:1003800077E04048C079012857D17D203F4AC0001E
:100390001060A082A1713E490A220F704A80E0627B
:1003A000322060820120A07004E0022000F082F878
:1003B00001202072304801F0A5FE012804D1314807
:1003C00001F0A0FE0128F0D031480178314803F057
:1003D000C0F82F480221415E2F4803F0BAF82B489D
:1003E00001682E4803F0B5F81421615E2C4803F033
:1003F000B0F82C48E16A03F0ACF8A179224803F088
:10040000A8F8A178284803F0A4F8618A274803F0E7
:10041000A0F82F722E611B486E810772468100E0A2
:1004200029E0A08D81B2002000F0DCF8012100203D
:1004300000F0E2F8287A21281DD11D48017A2129EF
:1004400019D1C079012816D1266304E0032000F0F9
:1004500031F801202072084801F054FE012804D12F
:10046000134801F04FFE0128F0D02F722E61104882
:100470006E8146810772F8BD40050020800500208E
:100480002C00002020050020006800088C000020BF
:10049000900000200054000800580008005C00088C
:1004A0000060000800640008006C0008007000088C
:1004B0006005002070B500221449012805D04723AB
:1004C00002280ED0032813D018E011480F24057815
:1004D000632007230C704870332D8B700DD13720AB
:1004E00004E00B700B20487062238B70C87005E02D
:1004F0000B706D2048700E208870CA700A714A71A6
:100500008A71CA7101F0A0FE70BD000014050020C0
:1005100032000020FEB5304C2E4802212060A18020
:100520000D23A371002161812161E17115272777D6
:100530001F222272294E6422A6616261254620355F
:10054000012212032860AA80AB7169812961E971D7
:100550002F771F222A72AE6164226A6122464032DE
:100560000126B60310609680937151811161D1719B
:1005700017771F261672642656617D26360196610E
:1005800016462036012252033060B280B371718169
:100590003161F17137771F223272642272617D22DC
:1005A0001201B2610E4A00926A4611715171022124
:1005B000D171694600F0A6FD6946306800F0A2FDE1
:1005C0006946286800F09EFD6946206800F09AFDA3
:1005D000FEBD000000040048200500207017000048
:1005E00002700000034A08B510180830009001603E
:1005F00008BD00000074004003090120044A98402F
:100600000029516801D0014300E0814351607047E7
:1006100000740040F8B5404C0021608A00B201F03F
:1006200077FE668A3D4D00960A20285E617C002791
:10063000884202D0297A202903D0E879012803D002
:1006400005E060746F8118E0287A21280ED0202000
:100650002872334E0A20305E617C884202D0307AA4
:1006600020281DD0F07901281CD01EE06F812D4973
:100670002869884204D214210AE0761C6682E8E7E1
:100680002849C94342182749491E8A4205D20A21EE
:10069000FFF744FD0029F0D0DBE7C007EDD0D8E735
:1006A000778113E0307A212809D020203072618AC6
:1006B0000098884224D0F07900281BD020E0778170
:1006C00018493069884205D214210BE0608A401E27
:1006D0006082ECE71349C94342181249491E8A4215
:1006E00005D20A21FFF71AFD0029EFD0DFE7C00786
:1006F000ECD0DCE7E879002802D10B4802F029FFB2
:10070000608AFF212D31884201D36182F8BD1E2805
:10071000FCD81E206082F8BD2C000020600500205F
:10072000800500207017000000700008F8B5022056
:1007300000F0DCF8002844D024480021244C415E1D
:10074000A078244B8200401CC0B29950A0700328AE
:1007500037D90026A670184603F0A0F81E490127D5
:10076000081AA0601D4A2770915F1D4D884201D371
:100770002F7005E01B4A1288891A814200D32E701F
:1007800019484168491C416002F02EFC607800283D
:100790000DD1287801280AD11448154A0168491C4E
:1007A00001601268914202D312490F70066002F094
:1007B0007DFC104801781048007802F027FA28786C
:1007C0006070022000F01AF8F8BD0000BC000020A4
:1007D00000000020FC000020FF0F0000400000206F
:1007E0002D0000203E000020900000205C00002032
:1007F0008C000020300000202F000020C10001D517
:10080000024900E0024948607047000000040240CD
:10081000000002400029016802D00122114301E0DA
:10082000014A114001607047FEFF0000F0B5016809
:100830002B4A114001600021016041608160C1606C
:100840002849284B08390F22984201D1486823E0F3
:10085000244CF0231434A04229D0224D1C01283509
:10086000A8422BD01F4E1D023C36B0422DD01D4F4A
:100870001E035037B8422FD01A4F6437B84204D104
:1008800048681A0408E04860F0BD164F7837B8424F
:1008900004D148680F2212061043F4E71249124FA0
:1008A0000839B842D2D0104A1432904202D1486876
:1008B0001843E8E70C4A2832904202D148682043A6
:1008C000E1E7094A3C32904202D148682843DAE71E
:1008D000054A50329042D7D148683043D3E70000F0
:1008E000FEFF00000800024008040240014600200C
:1008F000CA0001D5034A00E0034A12680A4200D048
:10090000012070470004024000000240002A0268F3
:1009100001D00A4300E08A430260704730B50368A3
:100920000C4A0C6A13408A684D6922430C692C43B7
:1009300022438C692243CC6922434C6A22438C6A4D
:1009400022431A430260CA6842600A6882604968AA
:10095000C16030BD0F80FFFF0021016041608160F8
:10096000C160016141618161C16101624162816275
:1009700070470000F8B5564C0026A079554D564FEB
:10098000332848D128460A21037A695E3846224630
:10099000C079D27A002902D0202B04D049E02673F6
:1009A000202B1BD045E0012906D0022908D00329BD
:1009B0000AD004290DD013E000283AD1012006E026
:1009C000002836D1022002E0002832D10320207313
:1009D0002FE000282DD10420207306E0042902D046
:1009E000052905D025E0002823D1002A04D020E0E5
:1009F00000281ED1012A1CD16E81267319E0287AA5
:100A0000212805D1387A212802D1F879012826D069
:100A10000120FFF74FFDE8790128F0D02F48C07979
:100A20000128ECD0F8790128E9D02D48C0790128B7
:100A3000E5D0217BE07A0A46024332D0012903D86F
:100A400001282ED001292FD0022930D0032936D0F9
:100A5000042903D1012801D1FFF7DCFDF8BDA079FD
:100A6000332804D03320A07126726E8105E0342033
:100A7000A071FAE70120FFF71DFD164801F042FBC7
:100A8000012804D1144801F03DFB0128F2D0A179DE
:100A9000144802F05EFD1F2028726E817E8138723C
:100AA000B9E700F021F8F8BD002805D0F8BD01280D
:100AB00002D0002808D0F8BD00F000FAF8BD0128E7
:100AC00002D00028C8D0F8BD00F0E6F9F8BD00005B
:100AD0002C0000204005002080050020200500207B
:100AE000600500200068000810B50548C07A00289D
:100AF00002D000F007F810BD00F032F910BD000080
:100B00002C000020F8B58F4C8F4D2046217B028DA4
:100B10000078002712B200290AD001297BD11821C0
:100B2000615E01F09BFFE879217A084374D0FDE013
:100B30001621615E01F014FFE879217A084375D12E
:100B4000A079332872D11626A65F26847F4D0096A1
:100B50000A20285EE17B884202D0297A202903D02E
:100B6000E879012803D005E0E0736F8118E0287A66
:100B700021280ED020202872754E0A20305EE17B9D
:100B8000884202D0307A20281DD0F07901281CD06C
:100B90001EE06F816F492869884204D814210AE059
:100BA000761CE682E8E76B49C94342186949491E49
:100BB0008A4205D80A21FFF7B1FA0029F0D0DBE715
:100BC000C007EDD0D8E7778114E0307A21280AD029
:100BD000202030721621615E0098884226D0F0797C
:100BE00000281DD022E077815A493069884205D219
:100BF00014210BE0E08A401EE082EBE75549C9432F
:100C000042185449491E8A4207D20A21FFF786FA40
:100C10000029EFD0DEE710E014E0C007EAD0D9E702
:100C2000E879002802D14C4802F093FC1621615E5D
:100C30007D204001814201DBE082F8BD6429FCDCBB
:100C40006420F9E7A079332870D11826A65F66845E
:100C50003E4D00960A20285EE17B884202D0297A28
:100C6000202903D0E879012803D005E0E0736F81E3
:100C700018E0287A21280ED020202872344E0A202D
:100C8000305EE17B884202D0307A20281DD0F07996
:100C900001281CD01EE06F812E492869884204D8A3
:100CA00014210AE0761C2683E8E72A49C943421842
:100CB0002849491E8A4205D80A21FFF72FFA002940
:100CC000F0D0DBE7C007EDD0D8E7778114E0307AC9
:100CD00021280AD0202030721821615E00988842B5
:100CE00024D0F07900281BD020E0778119493069A1
:100CF000884205D214210BE0208B401E2083EBE7B5
:100D00001449C94342181349491E8A4205D20A218F
:100D1000FFF704FA0029EFD0DEE7C007ECD0DBE7ED
:100D2000E879002802D10D4802F013FC1821615E19
:100D30007D204001814201DB2083F8BD6429FCDC79
:100D40006420F9E72C000020400500206005002009
:100D5000800500207017000000740008007800086B
:100D6000F8B5474C208D01B21420205E01F084FDBF
:100D70004448217AC07900270843002873D1A0791C
:100D8000332870D11426A65FE6833F4D00960A20D3
:100D9000285EA17B884202D0297A202903D0E879F5
:100DA000012803D005E0A0736F8118E0287A21287C
:100DB0000ED020202872354E0A20305EA17B88425A
:100DC00002D0307A20281DD0F07901281CD01EE0F6
:100DD0006F812F492869884204D814210AE0761CC3
:100DE000A682E8E72A49C94342182949491E8A428E
:100DF00005D80A21FFF792F90029F0D0DBE7C007F8
:100E0000EDD0D8E7778114E0307A21280AD020206D
:100E100030721421615E0098884224D0F079002855
:100E20001BD020E077811A493069884205D214210D
:100E30000BE0A08A401EA082EBE71549C943421887
:100E40001349491E8A4205D20A21FFF767F9002992
:100E5000EFD0DEE7C007ECD0DBE7E879002802D16D
:100E60000C4802F076FB1420205E7D214901884267
:100E700001DBA182F8BD0028FCDCA782F8BD0000E0
:100E80002C00002040050020600500208005002087
:100E9000701700000060000810B50548008E00B211
:100EA00001F05AFE0349002048810349488110BDE2
:100EB0002C0000208005002060050020F8B5184CAB
:100EC000A07801F08DFE17480A21415E227C0126A0
:100ED000154F002591420CD0027A202A09D12174A5
:100EE0004581A078002817D0A570A178384602F077
:100EF00030FB0E480A21415E227C91420BD0017AE0
:100F0000202908D14581A078002807D0A570A178B4
:100F1000384602F01EFBF8BDA670E6E7A670F6E7BD
:100F20002C00002060050020006C000880050020D7
:100F30000149C8607047000000200240F0B50B274F
:100F400006463F04384600F067F804280FD1084CE5
:100F500020690225284320616661206940210843F9
:100F60002061384600F058F82169A9432161F0BD9D
:100F70000020024008490420CA68D20701D001209D
:100F80007047CA68D20601D502207047C968490770
:100F9000FBD5032070470000002002400248016991
:100FA000802211430161704700200240F8B50646D7
:100FB00000200B273F0400900D46384600F02CF827
:100FC000042815D10B4C206901210843206135808C
:100FD000384600F021F8042806D1B61C280C0096EB
:100FE0003080384600F018F821694908490021612D
:100FF000F8BD00000020024004480169090603D53D
:1010000003494160034941607047000000200240ED
:1010100023016745AB89EFCD00B50346FFF7AAFF73
:1010200002E0FFF7A7FF5B1E012803D0002B00D1D1
:10103000052000BD002BF4D1FAE7000000B50D49F2
:101040000D4800F01DF80B4842780178120289180B
:101050008278C07812040006101809180548074A5B
:101060001C380162126842628A4201D1012000BD2F
:10107000002000BD1C000020F000002000800008BF
:1010800030B51F4AD3681C790470D3681B7A43704B
:10109000D3685B788370D368DB78C370D3681D78BE
:1010A00005715D7945719D7A8571DD79C5715D7ACE
:1010B00005729D784572DD7A85729B79C3721369DA
:1010C0001B7863400B70136984795B78057A634001
:1010D000C4796C406340447A6340847A6340C47A44
:1010E00063404B70136904799B7863408B7012697D
:1010F0008378D27840785A404240CA7030BD0000B0
:1011000000000020F0B50022012423460D68934022
:101110001D409D422AD10D79012D01D0022D12D101
:10112000876855000326AE40B74387604E79AE40CE
:1011300085682E43866085889D43858085888B7968
:1011400093401D438580066855000323AB409E43B2
:1011500006600E790768AE403E430660C6689E434F
:10116000C660CB79AB40C5682B43C360521C102AC4
:10117000CBD3F0BD4B07DB0E9A40C90810B58900F0
:101180000818016A0F249C40A1430162016A1143BF
:10119000016210BD0246128A00200A4200D00120DE
:1011A0007047000004490160002101710122427171
:1011B0008171C17170470000FFFF0000002A01D05B
:1011C0008161704701857047014909680160704776
:1011D0000800002010480068104948801048006846
:1011E0001049086010480168104881821049096858
:1011F000C1621049096881710F49096881700F49FE
:10120000096841820E490968C1820E490968018353
:101210000D490968C172704700580008900000200D
:10122000005C00088C000020006000082C000020FA
:101230000064000800680008006C000800700008E6
:101240000074000800780008007C000810B5002435
:1012500004E00A21FEF762FF641CE4B20028F8D122
:10126000204610BDF8B50020364C0090364D206168
:1012700020E036480168002001F0E6FC17E06846EF
:10128000FFF7A2FF00982169884200D32061304E09
:101290003078C10608D5EF21084030702B48002275
:1012A0000168104601F038FD287A212806D0E87937
:1012B0000128E4D020780028DBD0F8BD244801784C
:1012C000CA0637D5EF2211400170002211460120D5
:1012D00001F022FD2EE02069A06061680126081857
:1012E000400809277602FF06E06031463846FFF7DE
:1012F00051FF024631463846FFF760FF761031460F
:101300003846FFF747FF024631463846FFF756FF9B
:101310001048E16801800120207000206881E87198
:101320001F2028720C4802F014F90C4801680C4880
:1013300002F00FF9287A2128B9D1E8790028BDD127
:10134000C9E7000098000020200500206C00002064
:1013500035000020400000200060000858000020F8
:1013600000640008FEE700007CB50121480400F09D
:1013700003FD0121880400F0FFFC0121C80400F0F6
:10138000FBFC0121080500F0F7FC0121480500F0F5
:10139000F3FC0121880500F0EFFC6846FFF702FF2F
:1013A00003200002009001206946087100248C711E
:1013B00003224A710925C871ED062846FFF7A2FEEF
:1013C00069462846FFF79EFE0120C002009069464C
:1013D0000C714C71CC710248FFF794FE7CBD00008B
:1013E0000004004810B55D2000F022FE002801D066
:1013F00000F0FEFC074800F02BF8042000F01CF879
:101400007D20000100F01EF800F00EF800F004F856
:1014100010BD0000555500000249014808607047A2
:10142000CCCC000000300040024901480860704701
:10143000AAAA00000030004001494860704700003F
:1014400000300040014988607047000000300040D3
:10145000014908607047000000300040F8B5484876
:1014600000F050FE464C01250026012805D02046FC
:1014700000F048FE002805D005E02069401C2061EE
:10148000E57100E0E6712069002802D0E1790029C9
:1014900005D0A169884205D9E079012802D13848F0
:1014A00000F015FC3648203800F02CFE344F203F69
:1014B000012805D0384600F025FE002805D005E0BB
:1014C0003869401C3861FD7100E0FE713869002800
:1014D00002D0F979002905D0A169884206D9F879A6
:1014E000012803D12648203800F0F1FB24482030A1
:1014F00000F008FE224C2034012805D0204600F0E0
:1015000001FE002805D005E02069401C2061E5713E
:1015100000E0E6712069002802D0E179002905D0B9
:10152000A169884206D9E079012803D11448203006
:1015300000F0CDFB1248403000F0E4FD104F403782
:10154000012805D0384600F0DDFD002805D005E073
:101550003869401C3861FD7100E0FE71386900286F
:1015600002D0F979002905D0A169884206D9F87915
:10157000012803D10248403000F0A9FBF8BD00006B
:1015800040050020F8B5354CA06800F07DFE3448D9
:101590000A21344E415EA2780025F743914202D0E1
:1015A000027A202A03D0C179012903D005E0A17075
:1015B000458117E0017A21290ED0202101722A48A5
:1015C0000A21415EA278914202D0017A20291BD0E3
:1015D000C17901291AD01CE045810069B04205D2C9
:1015E000142109E0A068401CA060E8E71D49C21969
:1015F000491E8A4205D20A21FEF790FD0029F1D04A
:10160000DDE7C007EED0DAE7458110E0017A212955
:1016100007D020210172A06801281ADC0120A060F7
:10162000F8BD45810069B04205D2142109E0A068E7
:10163000401EA060EFE70B49C219491E8A4205D23D
:101640000A21FEF76BFD0029F1D0E4E7C007EED0D8
:10165000E1E706498842E3DBA160F8BD8400002091
:10166000600500207017000080050020FFFF0000CB
:10167000F8B55B4D5B4E5C4F5C4C29E000F0EAFA3C
:101680000A20285EE17888420CD0297A202909D1E5
:10169000E070002068812178491C49B2217003293B
:1016A00000DD20700A20305EE17888420CD0307A6C
:1016B000202809D1002070812078401E40B220707F
:1016C000002801DA032020700A20385E04282BDA73
:1016D00020780028D2D027E000F08AF80A21695E3D
:1016E000E07881420BD0297A202908D10021698134
:1016F0002278521C52B22270032A00DD21700A2186
:10170000715E81420CD0307A202809D1002070818E
:101710002078401E40B22070002801DA032020709B
:101720000A20385E04282BDC20780128D4D027E05A
:1017300000F01EF90A21695EE07881420BD0297A17
:10174000202908D1002169812278521C52B22270CE
:10175000032A00DD21700A21715E81420CD0307AAB
:10176000202809D1002070812078401E40B22070CE
:10177000002801DA032020700A20385E04282BDCC0
:1017800020780228D4D027E000F0ACF90A20285EA7
:10179000E17888420BD0287A202808D100226A817B
:1017A0002078401C40B22070032800DD22700A20FF
:1017B000305E88420CD0307A202809D10020708118
:1017C0002078401E40B22070002801DA03202070EB
:1017D0000A20385E042802DC20780328D4D0F8BD23
:1017E00060050020800500204005002084000020C6
:1017F000F8B5584CEF2720780025C106564E002931
:1018000003DA3840207000F009FE9AE053492020A6
:1018100008705348C079002803D15248C079002885
:1018200007D020784D49384020700220085E002102
:1018300008E02078C10607D53840207047490220CB
:10184000085E012100F00AFE444A45480A210C3A8C
:10185000415E1279914202D0027A202A03D0C179E6
:10186000012909D00BE03D4A0C3A117145813B48F2
:101870004188491C418004E0017A212910D02021AF
:101880000172364937480A220C39825E09798A4248
:1018900002D0017A20291FD0C17901291ED020E071
:1018A000458100693049884206D214210CE02B4959
:1018B0004888401C4880E4E72B49C94342182A491C
:1018C000491E8A4205D20A21FEF728FC0029EED0E3
:1018D000D7E7C007EBD0D4E7458116E0017A21298C
:1018E00009D0202101721D480222825E1F498A42CE
:1018F00024DB418025E0458100691B49884209D2EB
:101900001421FEF70BFC0029EDD114484188491E33
:101910004180E8E71449C94342181349491E8A42E5
:1019200009D20A21FEF7FAFB0029DCD10B494888CD
:10193000401E4880D7E7C007F8D0D4E7002A00DC73
:101940004580307A202803D17089042800D15DE7D2
:10195000F8BD000035000020400500209000002068
:101960006005002080050020701700000F27000090
:10197000F8B5554CEF2720780025C106534E0029B5
:1019800003DA3840207000F0EFFD94E05048212148
:1019900001705048C079002803D14F48C079002811
:1019A00008D02078DF210840207049490220085ED5
:1019B000002108E02078C10607D53840207044494E
:1019C0000220085E012100F0EFFD414A41480A2152
:1019D0000C3A415E5279914202D0027A202A03D019
:1019E000C179012905D007E0394A0C3A5171458186
:1019F0001AE0017A212910D0202101723449364899
:101A00000A220C39825E49798A4202D0017A202961
:101A10001FD0C179012922D024E0458100692F49D6
:101A2000884206D214210CE029484188491C418093
:101A3000E4E72A49C94342182849491E8A4205D287
:101A40000A21FEF76BFB0029EED0D7E7C007EBD0E9
:101A5000D4E71F4945814888401E488004E0017A48
:101A6000212909D02021017219480222825E1C49D5
:101A70008A421DDB41801EE045810069174988428A
:101A800006D214210CE012484188491E4180EBE740
:101A90001249C94342181149491E8A4205D20A21F6
:101AA000FEF73CFB0029EED0DEE7C007EBD0DBE71A
:101AB000002A00DC4580307A202803D17089042870
:101AC00000D163E7F8BD000035000020400500208C
:101AD00090000020600500208005002070170000A5
:101AE0000F270000F8B5544CEF2720780025C106D9
:101AF000524E002903DA3840207000F0DBFD93E0FD
:101B00004F48222101704F48C079002803D14E4828
:101B1000C079002807D02078494938402070022039
:101B2000085E002108E02078C10607D53840207003
:101B300043490220085E012100F0DCFD404A414893
:101B40000A210C3A415E9279914202D0027A202A0F
:101B500003D0C179012905D007E0394A0C3A9171C7
:101B600045811AE0017A212910D0202101723449DF
:101B700035480A220C39825E89798A4202D0017A7C
:101B800020291FD0C17901291ED020E0458100699C
:101B90002E49884206D214210CE029484188491C6C
:101BA0004180E4E72949C94342182849491E8A422D
:101BB00005D20A21FEF7B2FA0029EED0D7E7C00716
:101BC000EBD0D4E7458127E0017A212909D02021F3
:101BD00001721B480222825E1D498A4221DB41803C
:101BE00022E0458100691949884206D214210CE09F
:101BF00013484188491E4180EBE71449C943421804
:101C00001249491E8A4205D20A21FEF787FA0029A5
:101C1000EED0DEE7C007DCD109494888401E488085
:101C2000D7E7002A00DC4580307A202803D170896C
:101C3000042800D164E7F8BD3500002040050020ED
:101C40009000002060050020800500207017000033
:101C50000F27000010B506480178CA0604D5EF2208
:101C60001140017000F0CCFD02491F20087010BD2A
:101C700035000020900000207047000030B58378C8
:101C800001210278002B15D094080E4BA400E41813
:101C900023689207D50EFF22AA4093434278920709
:101CA000120EAA401A4322600078C006C00E81407E
:101CB000054804E0D006C00E814003488030016032
:101CC00030BD000000E400E000E100E0704730B506
:101CD00082790021212320240D2A09D00B2A14D037
:101CE0000C2A11D184690269A2420DD3037207E064
:101CF00085690269AA4208D30372C279002A03D116
:101D000001614189491C418130BD0472F8E700003E
:101D100010B50C4801680C4C01221204616191421B
:101D200001D300216161491C616101F012FC322084
:101D3000401E00B20028FBDC6069012801DC00F0D5
:101D4000EFF910BD005000080000002009494A6862
:101D500001239B039A434A604A6883B21A434A604C
:101D60000A6B8B159A430A630A6B000C02430A63E1
:101D70007047000000100240044A0029516901D058
:101D8000014300E0814351617047000000100240B0
:101D9000044A0029D16901D0014300E08143D161A7
:101DA0007047000000100240044A0029116901D068
:101DB000014300E0814311617047000000100240C0
:101DC000044A0029916901D0014300E081439161F7
:101DD0007047000000100240044A0029D16801D079
:101DE000014300E08143D1607047000000100240D1
:101DF0000348416A01221206114341627047000004
:101E00000010024010B500F029F8012000F03CF964
:101E1000012000F00DF90028FAD0002000F02AF986
:101E2000002000F03FF90521C904002000F052F91C
:101E3000012000F041F90848FFF788FF192000F061
:101E4000F7F80028FAD0022000F052F900F00AF961
:101E50000828FBD110BD00000040000112480168B5
:101E60000122114301604168104A1140416001683C
:101E70000F4A114001600168012292049143016000
:101E800041683F22120491434160C16A0909090176
:101E9000C162016B074A11400163416B4908490067
:101EA0004163002181607047001002400CB8FF08B8
:101EB000FFFFF6FEACFEF0FFF8B5564D044668682D
:101EC00000210C22544E104005D0042803D00828CD
:101ED00003D00C281AD026601AE0696868680322CB
:101EE0008902D2030F0F1040BF1C00280AD0E86AF5
:101EF0000107090F3046491CFEF710F978430146E7
:101F0000216005E0454839464143F9E744482060EF
:101F10006868444F0006000F3B5C20680246DA40C8
:101F200062606B685B055B0FFB5CDA40A2602B6B49
:101F3000DB0501D43C4B05E06B685B0401D453081E
:101F400000E09308E3602B6B5F06384B03D4374FF8
:101F50001237276100E023612F6BFF0601D4666111
:101F600000E060612F6BBF070ED02F6BBF07BF0F64
:101F7000012F0BD02F6BBF07BF0F022F08D02F6B85
:101F8000FF43BF0706D006E0A26104E0A06102E0C3
:101F9000A36100E0A6612F6BBF03BF0F0FD02F6BB3
:101FA000BF03BF0F012F0CD02F6BBF03BF0F022F3A
:101FB00009D02F6BBF03BF0F032F06D006E0E261ED
:101FC00004E0E06102E0E36100E0E6612F6B3F03C3
:101FD000BF0F0FD02A6B1203920F012A0CD0286B6F
:101FE0000003800F022809D0286B0003800F03280C
:101FF00006D006E0226204E0206202E0236200E0F4
:102000002662286B000602D405486062F8BD616252
:10201000F8BD00000010024000127A0000093D00E7
:10202000006CDC02AC000020809FD5000080000026
:10203000034600200A495A090CD0012A0CD0022A72
:102040000CD0496BDA06D20E012393400B4200D02C
:10205000012070470968F5E7096AF3E7496AF1E783
:1020600000100240024840680C2108407047000000
:1020700000100240034A5168F02399430143516024
:10208000704700000010024005490028086802D08F
:102090000122104301E04008400008607047000042
:1020A00000100240034A516807231B029943014371
:1020B00051607047001002400122054912060028B5
:1020C000086801D0104300E09043086070470000AA
:1020D0000010024010B5054A53687B24E403A34373
:1020E0005360536808430343536010BD001002401F
:1020F000034A516889088900014351607047000014
:102100000010024010B5044681880068FFF742F8CD
:10211000217F152902D1012800D0002010BD000028
:10212000F8B51F25384E0A20357070807D20374F56
:10213000C000374C3860A082E0623320A0710120DB
:10214000A070322060822946324801F002FA322023
:1021500001F0F7F90221715E2F4801F0FAF93220FF
:1021600001F0EFF92D48396801F0F3F9322001F060
:10217000E8F91421615E2A4801F0EBF9322001F000
:10218000E0F92848E16A01F0E4F9322001F0D9F9D8
:10219000A179254801F0DDF9322001F0D2F9A178CA
:1021A000224801F0D6F9322001F0CBF9618A2048AB
:1021B00001F0CFF9322001F0C4F91621615E1D480B
:1021C00001F0C7F9322001F0BCF91821615E1A480C
:1021D00001F0BFF9322001F0B4F9E17A174801F0BB
:1021E000B8F917480021057201614181154805724F
:1021F0004181A08D81B20020FEF7F4F90121002079
:10220000FEF7FAF9F8BD0000900000208C000020D5
:102210002C0000200054000800580008005C000852
:10222000006000080064000800680008006C0008F6
:10223000007000080074000800780008007C0008A6
:10224000400500202005002070B50D4C0B4821787A
:102250002546405C0C350B4A28704900515A69608C
:1022600001F0AEFC686801F055FC2078411C21703B
:10227000082801D30020207070BD00001405002044
:1022800070000020683C0008F1B50098FEF7DEFF02
:1022900005460A210098FDF741FF024648001A4F03
:1022A0001A4C385C00262070022D07D310460A21F4
:1022B000FDF734FF4800385C607000E06670032D65
:1022C0000AD364210098FDF729FF0A21FDF726FFB4
:1022D0004800385CA07000E0A670042D0BD37D216F
:1022E000C9000098FDF71AFF0A21FDF717FF480003
:1022F000385CE07000E0E6702671232060716D208C
:10230000A0710F20E071F8BD7A3C00081405002090
:10231000F3B581B00C460198FEF798FF07462046BA
:102320003B4E00253B4C00283CD03B48407A0028DF
:1023300030D00A210198FDF707FF4900715C217038
:10234000022F06D30A21FDF7FFFE4800305C6070C3
:1023500000E06570032F0AD364210198FDF7F4FEB5
:102360000A21FDF7F1FE4800305CA07000E0A57086
:10237000042F0BD37D21C9000198FDF7E5FE0A214A
:10238000FDF7E2FE4800305CE07000E0E5702248B6
:102390004572FEBD25706570A5701F48E57001216E
:1023A0004172FEBD0A210198FDF7CEFE4900715C25
:1023B0002170022F12D30A21FDF7C6FE4800305CBF
:1023C0006070032F0BD364210198FDF7BDFE0A2135
:1023D000FDF7BAFE4800305CA07001E06570A570A2
:1023E000042F0BD37D21C9000198FDF7ADFE0A2112
:1023F000FDF7AAFE4800305CE07000E0E570257152
:10240000072060714F20A0717320E071FEBD0000B5
:102410007A3C000814050020700000200D4840217F
:102420000170417081700C4AC17093780021002BBB
:1024300008D0732303714E23437183716323C371E7
:1024400091707047017141718171C171012090706B
:10245000704700001405002070000020F3B581B023
:102460000C460198FEF7F2FE074620463B4E00253B
:102470003B4C00283CD03B48C078002830D00A2193
:102480000198FDF761FE4900715C2170022F06D3AF
:102490000A21FDF759FE4800305C607000E065706D
:1024A000032F0AD364210198FDF74EFE0A21FDF7A0
:1024B0004BFE4800305CA07000E0A570042F0BD3E9
:1024C0007D21C9000198FDF73FFE0A21FDF73CFE82
:1024D0004800305CE07000E0E5702248C57034E0F0
:1024E00025706570A5701F48E5700121C1702CE052
:1024F0000A210198FDF728FE4900715C2170022F26
:1025000012D30A21FDF720FE4800305C6070032FD3
:102510000BD364210198FDF717FE0A21FDF714FE85
:102520004800305CA07001E06570A570042F0BD3EB
:102530007D21C9000198FDF707FE0A21FDF704FE81
:102540004800305CE07000E0E570732020714E20A0
:102550006071A0716320E071FEBD00007A3C00084C
:10256000140500207000002010B50D4840220270B4
:10257000427082700B4BC2701C790021002C08D075
:10258000732404714271622282716322C2711971D3
:1025900010BD017141718171C1710120187110BDAF
:1025A0001405002070000020F3B581B00C4601989E
:1025B000FEF74CFE074620463B4E00253B4C0028CC
:1025C0003CD03B484079002830D00A210198FDF7E3
:1025D000BBFD4900715C2170022F06D30A21FDF773
:1025E000B3FD4800305C607000E06570032F0AD3D3
:1025F00064210198FDF7A8FD0A21FDF7A5FD48001B
:10260000305CA07000E0A570042F0BD37D21C900C1
:102610000198FDF799FD0A21FDF796FD4800305C11
:10262000E07000E0E5702248457134E02570657087
:10263000A5701F48E570012141712CE00A21019825
:10264000FDF782FD4900715C2170022F12D30A212F
:10265000FDF77AFD4800305C6070032F0BD36421D6
:102660000198FDF771FD0A21FDF76EFD4800305C11
:10267000A07001E06570A570042F0BD37D21C90007
:102680000198FDF761FD0A21FDF75EFD4800305C11
:10269000E07000E0E57073202071402060716220DE
:1026A000A0716320E071FEBD7A3C00081405002093
:1026B000700000200D4840210170417081700C4A6B
:1026C000C17093790021002B09D047230371632344
:1026D0004371762383716D23C371917170470171CA
:1026E00041718171C1710120907170471405002002
:1026F00070000020F3B581B00C460198FEF7A6FDEE
:10270000074620463B4E00253B4C00283CD03B482A
:10271000C079002830D00A210198FDF715FD490045
:10272000715C2170022F06D30A21FDF70DFD4800D0
:10273000305C607000E06570032F0AD3642101985B
:10274000FDF702FD0A21FDF7FFFC4800305CA07098
:1027500000E0A570042F0BD37D21C9000198FDF77F
:10276000F3FC0A21FDF7F0FC4800305CE07000E06B
:10277000E5702248C57134E025706570A5701F486A
:10278000E5700121C1712CE00A210198FDF7DCFC04
:102790004900715C2170022F12D30A21FDF7D4FC8D
:1027A0004800305C6070032F0BD364210198FDF763
:1027B000CBFC0A21FDF7C8FC4800305CA07001E0AA
:1027C0006570A570042F0BD37D21C9000198FDF71A
:1027D000BBFC0A21FDF7B8FC4800305CE07000E06B
:1027E000E57047202071632060717620A0716D2014
:1027F000E071FEBD7A3C0008140500207000002046
:102800000D4840210170417081700C4AC1705378AD
:102810000021002B08D04E23037143716323837181
:102820004723C37151707047017141718171C1714A
:102830000120507070470000140500207000002037
:1028400010B50C490F220A7147234F224B71732494
:102850008A71CC71002805D07E2008704A700E2243
:102860008A7004E0002008704C708B706D20C87076
:1028700010BD000014050020F3B581B00298FEF7EA
:10288000E5FC07460198FEF7E1FC00900A2102985A
:10289000FDF75AFC024648002F4D304C285C0026BC
:1028A0002070022F07D310460A21FDF74DFC480087
:1028B000285C607000E06670032F0AD364210298E0
:1028C000FDF742FC0A21FDF73FFC4800285CA070A0
:1028D00000E0A67038467D27FF0004280AD3394659
:1028E0000298FDF731FC0A21FDF72EFC4800285C18
:1028F000E07000E0E6700A210198FDF725FC490030
:10290000695C21710099022906D30A21FDF71CFC9C
:102910004800285C607100E06671009803280AD3C3
:1029200064210198FDF710FC0A21FDF70DFC480019
:10293000285CA07100E0A671009804280AD33946EB
:102940000198FDF701FC0A21FDF7FEFB4800285C19
:10295000E071FEBDE671FEBD7A3C00081405002062
:10296000F7B582B00498FEF771FC00900398FEF76B
:102970006DFC07460A210498FDF7E6FB0246354E3A
:102980004800354C305C207000980025022807D3A1
:1029900010460A21FDF7D8FB4800305C607000E06B
:1029A0006570009803280AD364210498FDF7CCFBD6
:1029B0000A21FDF7C9FB4800305CA07000E0A5705B
:1029C000009804280BD37D21C9000498FDF7BCFBB7
:1029D0000A21FDF7B9FB4800305CE07000E0E570CB
:1029E000029800282FD00A210398FDF7ADFB49007B
:1029F000715C2171022F06D30A21FDF7A5FB480067
:102A0000305C607100E06571032F0AD36421039884
:102A1000FDF79AFB0A21FDF797FB4800305CA07197
:102A200000E0A571042F0CD37D21C9000398FDF7A8
:102A30008BFB0A21FDF788FB4800305CE07105B094
:102A4000F0BDE571FBE725710B2060717620A07168
:102A5000F7E700007A3C000814050020F7B582B0C3
:102A60000498FEF7F3FB00900398FEF7EFFB074690
:102A70000A210498FDF768FB0246354E4800354CA4
:102A8000305C207000980025022807D310460A21E8
:102A9000FDF75AFB4800305C607000E065700098FC
:102AA00003280AD364210498FDF74EFB0A21FDF7A1
:102AB0004BFB4800305CA07000E0A5700098042833
:102AC0000BD37D21C9000498FDF73EFB0A21FDF7D9
:102AD0003BFB4800305CE07000E0E57002980028A5
:102AE0002FD00A210398FDF72FFB4900715C21715B
:102AF000022F06D30A21FDF727FB4800305C6071E6
:102B000000E06571032F0AD364210398FDF71CFBD5
:102B10000A21FDF719FB4800305CA07100E0A571A7
:102B2000042F0CD37D21C9000398FDF70DFB0A216A
:102B3000FDF70AFB4800305CE07105B0F0BDE571BF
:102B4000FBE72571632060710720A071F7E70000A3
:102B50007A3C000814050020F1B50098FEF776FBDA
:102B600005460A210098FDF7EFFA024648001A4F81
:102B70001A4C385C00262070022D07D310460A211B
:102B8000FDF7E2FA4800385C607000E06670032DE3
:102B90000AD364210098FDF7D7FA0A21FDF7D4FA89
:102BA0004800385CA07000E0A670042D0BD37D2196
:102BB000C9000098FDF7C8FA0A21FDF7C5FA4800D8
:102BC000385CE07000E0E6702671232060715E20C2
:102BD000A0710F20E071F8BD7A3C000814050020B8
:102BE00010B5094900220A704A708A70CA706224BE
:102BF000632240230C714A7100288B7101D0072099
:102C000000E07320C87110BD1405002010B50C46FB
:102C1000012109204902C006FEF7BCFA094A002832
:102C200002D0012806D001E0012C01D0002006E0EE
:102C3000302004E0002C01D0362000E00620107285
:102C400010BD000014050020F3B581B007460298BE
:102C5000FEF7FCFA00252D4C0646012F05D0022F69
:102C60001CD025706570A57046E025706570A57054
:102C70002748E570817A002909D030212171472148
:102C800061714F21A1716D21E1718572FEBD2571C8
:102C90006571A571E57101218172FEBD0A2102985D
:102CA000FDF73CFA49001B4F022E795C217006D3D8
:102CB0000A21FDF733FA4800385C607000E0657067
:102CC000032E0AD364210298FDF728FA0A21FDF7A2
:102CD00025FA4800385CA07000E0A570042E0BD3E4
:102CE0007D21C9000298FDF719FA0A21FDF716FAAD
:102CF0004800385CE07000E0E5703020207147202B
:102D000060714F20A0716D20E071FEBD14050020A0
:102D1000700000207A3C0008F7B507460298FEF7DD
:102D200095FA00252D4C0646012F05D0022F1CD008
:102D300025706570A57046E025706570A5702848FF
:102D4000E570C17A002909D05B21217147216171A9
:102D50004F21A1716D21E171C572FEBD25716571B3
:102D6000A571E5710121C172FEBD0A210298FDF72E
:102D7000D5F949001B4F022E795C217006D30A2138
:102D8000FDF7CCF94800385C607000E06570032EF8
:102D90000AD364210298FDF7C1F90A21FDF7BEF9B3
:102DA0004800385CA07000E0A570042E0BD37D2194
:102DB000C9000298FDF7B2F90A21FDF7AFF9480002
:102DC000385CE07000E0E5705B20207147206071A6
:102DD0004F20A0716D20E071FEBD000014050020A1
:102DE000700000207A3C0008FEB501214804FEF77F
:102DF000C3FF01218804FEF7BFFF0121C804FEF7CD
:102E0000BBFF01210805FEF7B7FF01214805FEF7CA
:102E1000B3FF01218805FEF7AFFF6846FEF7C2F950
:102E20000126B602012468460096047100258571CA
:102E300003214171C47109206946C006FEF762F999
:102E400068460096047185714571C4710920694610
:102E5000C006FEF757F9E002009009206946C00657
:102E6000FEF750F92003009009206946C006FEF7DE
:102E700049F9E70309206946C0060097FEF742F9C1
:102E8000600300906846047185714571C47169469C
:102E90005148FEF737F9A003009069464E48FEF707
:102EA00031F969464C480097FEF72CF90320009051
:102EB0006846047185714571C47169464748FEF7DB
:102EC00021F9694645480094FEF71CF9402000901E
:102ED00068460471857145710221C1716946404897
:102EE000FEF710F9240269463D480094FEF70AF9FE
:102EF0000820009069463A48FEF704F965006946E3
:102F000037480095FEF7FEF8802000906946344867
:102F1000FEF7F8F82020009069463148FEF7F2F8F5
:102F20001020009069462E48FEF7ECF80920012297
:102F30003946C006FEF742F9012209201103C006F6
:102F4000FEF73CF901220920D102C006FEF736F94E
:102F5000092001223146C006FEF730F90122510353
:102F60001D48FEF72BF9012291031B48FEF726F9B5
:102F7000012239461848FEF721F90122022117489B
:102F8000FEF71CF9012211461448FEF717F9012239
:102F900040211348FEF712F9012221461048FEF79E
:102FA0000DF9012208210E48FEF708F901222946F1
:102FB0000B48FEF703F9012280210948FEF7FEF8CD
:102FC000012220210648FEF7F9F8012210210448C9
:102FD000FEF7F4F8FEBD00000008004800140048A9
:102FE0000004004870470000F8B52E48817A012996
:102FF0002BD081784278914201D1012300E0002357
:103000002848294CC370257801210920002749024E
:10301000C0061F2D11D026460222B25E7468214ED2
:10302000766A7243202D11D01F4E212D1AD0222DE9
:103030000BD11C4D002B27D121E0002B01D0012208
:1030400000E00022FEF7BAF86760F8BD002B05D05B
:103050000122FEF7B3F814484760F8BD9442FCD94A
:10306000002204E0002B05D09442F6D90122FEF79D
:10307000A5F8F8BD0022FEF7A1F87760F8BD6B7BDC
:10308000012B01D07760EBE7944205D20122FEF7D5
:1030900095F801206873F8BD0022FEF78FF86F7372
:1030A000F8BD00002C0000209000002070B50E4CF0
:1030B000A07A012817D02079FF2509260135F606C8
:1030C000002804D0012229463046FEF777F81A205E
:1030D000205EFA2807DB0020207160830246294623
:1030E0003046FEF76BF870BD2C000020134911200C
:1030F00008601348416841604168416041687F222F
:10310000D2039143416041680522D20411434160DA
:103110000168012212061143016001688901FCD592
:103120004168890889004160416802221143416079
:1031300041680907890F0229FAD17047002002402F
:103140000010024070B5124C0125A07A01280AD067
:10315000E9021048FEF71EF8002803D00020A072F4
:10316000E07170BDA572606B6428FAD3E571092522
:103170000121ED06002249022846FEF71FF8FF2133
:10318000002201312846FEF719F8A06BE06370BDFC
:103190002C000020000400487047000010B51448BF
:1031A00001680122114301604168124A11404160E7
:1031B0000168114A114001600168012292049143A3
:1031C000016041683F22120491434160C16A0909CC
:1031D0000901C162016BFF22543291430163416BCB
:1031E00049084900416300218160FFF77FFF10BD5E
:1031F000001002400CB8FFF8FFFFF6FE10B5064CB9
:103200000121204600F0ECF8002803D001212046DF
:1032100000F073F810BD0000002C014010B5012132
:103220008C07204600F0DCF8002803D0012120465E
:1032300000F063F810BD000070B5214E012130464A
:1032400000F0CEF8002839D01E4CA069401CA061C7
:103250000A21A069FCF762FF002500291BD11A484A
:103260000078002803D019480188491C0180FEF726
:10327000EBFFFEF7F3F816480168491C0160FEF702
:10328000D3F8144814490078002803D00868401C7B
:10329000086000E00D60A069104988420AD3104818
:1032A0001022017811430170A5610E4801220178B6
:1032B000514001700121304600F01FF870BD000040
:1032C00000040040000000203000002046000020E4
:1032D00064000020360000206000002030750000EF
:1032E000350000202C00002080220029018801D018
:1032F000114300E0914301807047C9430182704748
:103300000029018802D00122114301E04908490047
:10331000018070472A4910B5884202D10121C414A6
:103320003AE001218907884206D101210846FEF7CB
:103330003BFD0021012008E02249884208D10121FB
:103340000220FEF731FD00210220FEF72DFD10BD09
:103350001D49884206D101211020FEF725FD0021DC
:103360001020F2E71949884206D101212020FEF7FA
:103370001BFD00212020E8E71549884207D184156C
:1033800001212046FEF710FD00212046DDE711490E
:10339000884209D101210C042046FEF71DFD0021C1
:1033A0002046FEF719FD10BD0B49884202D10121CC
:1033B0004C04F1E709498842F5D101218C04EBE77F
:1033C000002C0140000400400010004000140040A8
:1033D00000200040004001400044014000480140FE
:1033E0000246138A002092890B400A40002B02D02B
:1033F000002A00D001207047002A828901D00A43A8
:1034000000E08A438281704770B5028C10239A4392
:103410000284048C8288038B1A4D2B400D782D0674
:103420002D0C1D4320239C438B891B051E0C4B88B0
:1034300026431B051B0C144C3343A04202D0134EF1
:10344000B04219D1124E32400E8AB604360C3243C5
:10345000A04211D18024A343CC892405240C1C4311
:1034600040239C438B881B051B0C2343094C2240A3
:103470004C8AA404240C22438280058389688163DA
:10348000038470BDFF8C0000002C0140004001400F
:10349000FFFB0000FFF70000028B034B09021A40FC
:1034A0001143018370470000FFF7000082887023FA
:1034B0009A43828082880A438280704710B50288CE
:1034C000144B984206D00124A407A04202D0124C0B
:1034D000A04203D17024A2434C8822430F4CA04247
:1034E00003D00F4C22400C89224302804A68C262FA
:1034F0000A880285984208D00A4A904205D00A4AB2
:10350000904202D0094A904201D1897A0186012174
:10351000818210BD002C01400004004000100040DA
:10352000FFFC000000400140004401400048014011
:103530000021C943416000210180018141808172E5
:10354000704700210A22504300E0491C8842FCD801
:10355000704770B50C460546FDF74EFD3520FDF76A
:10356000E7FC2846FDF7EAFC21462846FDF71EFD4C
:103570003520FDF7DDFCFDF711FD70BD02E008C848
:10358000121F08C1002AFAD170477047002001E0DD
:1035900001C1121F002AFBD17047000030B5012184
:1035A00087B04802FEF70CFC1C4C2046FCF750FE8E
:1035B0006846FCF7A8FE0021684601718020039050
:1035C000C000009104910591029069462046FCF7E5
:1035D00075FE01212046FCF787FE032208212046C4
:1035E000FCF716FE2046FCF743FE01212046FCF7BF
:1035F00014FE0B4D20462946FCF751FE0028F9D059
:1036000001212046FCF712FE02212046FCF718FE9D
:103610002046FCF773FE07B030BD000000240140D7
:103620000100000170B501218CB00846FEF7A4FB33
:103630000921684601700125857000244470FEF759
:103640001DFB154E3046FDF7F1F801A8FDF784F992
:10365000124802900394A80208900B9480200690D0
:103660000495202009900E4801908015079005943C
:1036700040010A9001A93046FDF750F901220221CC
:103680003046FDF743F90220FDF7B8F80121304636
:10369000FDF7C0F80CB070BD08000240BC0000206F
:1036A000402401401CB501214804FEF765FB684633
:1036B000FDF778FD0820009003206946087100207E
:1036C000887148710120C8710920C006FDF71AFDF4
:1036D0001CBD0000F0B58BB001210220FEF758FBA5
:1036E0000121C802FEF76CFB01210846FEF750FBE2
:1036F00001214804FEF740FB04A8FDF753FD022614
:103700006846049606750321417500240925C47591
:10371000ED0604A92846FDF7F5FC02220121284602
:10372000FDF728FD0F216846017301258573447359
:1037300003A8FEF7A3FA1021684601738573457349
:1037400003A8FEF79BFA2748FFF7E4FD6846FFF75A
:10375000EFFE6846048144800A2001902F276846C6
:103760000780847269461F48FFF7A8FE01221146B0
:103770001C48FFF741FE01211A48FFF7C1FDA807C9
:10378000FFF7C8FD6846FFF7D3FE68464480322045
:1037900001906846078084726946A807FFF78EFE8D
:1037A00060216846018345830896848406A9A8079A
:1037B000FFF72AFE0821C806FFF76EFE01218807E1
:1037C000FFF792FD012211469007FFF715FE202119
:1037D0004806FFF76BFE01218807FFF791FD0BB04C
:1037E000F0BD000000040040FDF7F4FC264C274D1E
:1037F000607A284E400840006072A18B24488B00FC
:103800001A1836681660C0582A68491C121888B2FF
:103810002A60A083802804D90020A0830120607141
:1038200002E06079002804D000206071D109A16213
:103830002860FFF787FC0926F606174F15E00121DF
:10384000002249023046FDF7B9FCFF210022013178
:103850003046FDF7B3FCE16BA06B401AB84204D3CD
:103860000020E0716063A07202E0E0790028E6D1F8
:10387000FDF780F8FCF750FDA0793328B8D100F0AF
:10388000FDF800F04BF8B3E72C0000200C050020F9
:103890000C01002008000020204E000030B5016817
:1038A00001250B460C46AA00825814198A4200D200
:1038B00011469A4200D913466D1C042DF3DBC8183B
:1038C000201AC10F0818401030BD000010B5FEF7D7
:1038D00099FAFFF789FA00F0BDF90E48FEF7ECFA05
:1038E000FDF742FDFCF716FEFF20F530401E00B24A
:1038F0000028FBDCFDF776FDFDF7A0FB064900285C
:10390000C87005D0FEF704FAFFF76EFF002010BD67
:10391000FEE70000C800002000000020F8B54D4878
:103920004D4E817A4D4F7170F979012902D1C179DB
:1039300001297DD04A49C979012979D04949002511
:10394000C979012974D077E06581FDF71BFE608994
:103950000128FAD02BE0444C2078FEF771FF414853
:103960000A21415E727891420CD0027A202A09D154
:1039700071704581207800280DD0257021783B4852
:10398000FFF7E7FD0A20385E717888420FD0387A59
:1039900020280CD102E001202070EFE77D81207803
:1039A000002810D0257021783048FFF7D2FD294833
:1039B00040890228CFD0274C60890328207A05D07F
:1039C000202839D135E001202070ECE7202833D1C0
:1039D00021480C3000781F2806D0202806D0212846
:1039E00006D0222828D105E0357025E0012002E02C
:1039F000022000E0032030701EE0FDF739FE207A3F
:103A0000202819D10A20205E042812DB6581E57187
:103A1000114C17480C342178FFF79BFD0221615EA1
:103A20001448FFF796FD1448B168FFF792FD03E0D4
:103A30000EE060890228E0D0064CE079012804D12C
:103A4000A1692069884200D37EE7207A2128FBD033
:103A5000F8BD000040050020840000208005002003
:103A6000200500206005002037000020007C0008B1
:103A70000054000800580008005C0008F8B5012454
:103A800009256402ED0621462846FDF783FB024620
:103A900021462846FDF792FB194CE07901282DD1EB
:103AA0001848C179012929D00027174D174EFCF776
:103AB00071FB7D20C000FFF744FD19E0022069681A
:103AC000FFF7C2F8207A212812D1E079012815D118
:103AD0006089A081202020720D491F204F8108722B
:103AE0007781084930724F8108722F70FDF7BAFB59
:103AF000207A2028E2D0E0790128D8D0F8BD000053
:103B000020050020400500209800002080050020AE
:103B10006005002030B51F491F4A204BC40701D063
:103B2000916100E019811E4C850701D5946100E088
:103B30001C811C4C450701D5946100E01C811A4C86
:103B4000050701D5946100E01C81184C184A194BF7
:103B5000C50601D5946100E01C81174C850601D58E
:103B6000946100E01C81440601D5916100E0198157
:103B7000124A0406022311492032002C01DA8B611B
:103B800000E01381C3050120002B01DA886130BDFC
:103B9000108130BD00800000000000482000004877
:103BA00000100000000800000004000000200000D9
:103BB00000080048200800480040000000140048A9
:103BC00070B50446204DC00701D0002200E001225C
:103BD00040212846FDF7F2FA1C49A00701D5002232
:103BE00000E001222846FDF7E9FA600701D500222E
:103BF00000E0012208212846FDF7E0FA14492007D9
:103C000001D5002200E001222846FDF7D7FAE006A0
:103C100001D5002200E0012280212846FDF7CEFADE
:103C2000A00601D5002200E0012220212846FDF750
:103C3000C5FA600601D5002200E0012210212846C5
:103C4000FDF7BCFA70BD0000000400480001000050
:103C50000002000010B5FFF725FDFFF79FFCFFF7FE
:103C6000E1FCFFF737FD10BD010002000400080071
:103C7000100020004000800000013F0030005B0089
:103C8000790074006D006F0038007F007D007E00B9
:103C900067000F0073004F004E0040006300620099
:103CA00023006D004700000007005E004E00760014
:103CB0000B000E00010002000400080010002000AC
:103CC00040008000FF00000037000000EC3C0008CE
:103CD00000000020BC0000007C350008A83D000862
:103CE000BC000020E40800008C3500080000000043
:103CF0000000000000000000ACF7FF1F28000020BB
:103D000000000000000000000000000000000000B3
:103D100000000000431910190000010000003300EA
:103D2000000000000000000000003200E803E8038B
:103D3000BC020000000000000000000017000000AE
:103D400000000000E8030000000000000000000088
:103D50000000000000000000000000000001010160
:103D6000010101010101000000000000000000004D
:103D70000000000000000000E80300001F000A002F
:103D80000000000000000000000000000000000033
:103D90000000000000000000000000000102030419
:083DA0000102030406070809F3
:04000005080000B13E
:00000001FF
