:020000040800F2
:10000000A0090020C5000008851C00087113000825
:1000100000000000000000000000000000000000E0
:10002000000000000000000000000000492D000852
:100030000000000000000000D91C0008FD2E000890
:10004000F5000008F5000008F5000008F5000008BC
:10005000F5000008F5000008F5000008F5000008AC
:1000600000000000BD070008F5000008F5000008CA
:10007000F5000008612F0008F5000008812F000836
:100080009D2F00080000000000000000F50000089F
:1000900000000000F5000008F5000008F500000869
:1000A00000000000F500000800000000F500000856
:1000B0000348854600F05CF80048004729360008F0
:1000C000A00900200C4880F308880C480168090E3C
:1000D0000B4A914205D10B480B4901600B480C4972
:1000E00001600C4880470C480047FEE7FEE7FEE74A
:1000F000FEE7FEE7FEE70000A00900200400000084
:100100001F00000018100240010000000000014024
:1001100000000000012F0008B100000830B50B46B8
:10012000014600202022012409E00D46D5409D42D1
:1001300005D31D469540491B254695404019154657
:10014000521E002DF1DC30BD70B50024254600287C
:1001500001DA01244042002901DA01254942FFF772
:10016000DDFFAC4200D04042002C00D0494270BDBF
:10017000064C0125064E05E0E36807CC2B430C3CFA
:1001800098471034B442F7D3FFF796FFB43900080C
:10019000D4390008F8B5194D0026194C194F6E6076
:1001A00027E019480178002923D006701348001D64
:1001B00001F01AF87D206968C000814202D92068E8
:1001C000401E03E0814202D22068401C20600F489C
:1001D0002168814201DB206002E0002900DC26600A
:1001E000208881B2002000F045FA0121002000F0B3
:1001F0004BFA6868C0196528D3D2F8BD9800002072
:10020000540000204AFCFFFF00000020FF0F000008
:10021000836A0B438362426170470029816801D081
:10022000012200E002221143816070470029C16869
:1002300002D00122114301E049084900C160704722
:10024000C26802239A43C260C2680A43C260704710
:10025000064910B5884208D144150121204601F015
:10026000A3FD0021204601F09FFD10BD00240140A8
:10027000826800210123DB071A4382600F231B03DE
:100280008268491CD20FD207994201D0002AF7D1C7
:100290008168002901DB006C70470020704702462E
:1002A0000020CB0104D5926801231B069A4300E08D
:1002B00012680A4200D001207047000030B5C368C0
:1002C000084A8C6813400A680D792243CC686D0394
:1002D0002C4322430C69496922430A431A43C260F2
:1002E00030BD000003D2FFFF012212030029C168C4
:1002F00001D0114300E09143C1607047816804223E
:100300001143816070470021016001718160C1600B
:100310000161416170470000F8B55B4D287A2128E2
:100320007DD15A483321027A1F270026584C212AB2
:1003300002D1C079012804D05648027A212A20D05F
:1003400082E0A079332802D0A1716E8107E03420C9
:10035000A071FAE7012000F0A7F8012020724A48B6
:1003600001F0B8FE012804D1484801F0B3FE01288D
:10037000F0D0A179484802F09EFF2F726E81434869
:100380007EE04448C07901285ED17D20434AC00008
:100390001060A082A17142490A220F704A80E06277
:1003A000322060820120A07004E0022000F07CF87E
:1003B00001202072344801F08DFE012804D1354817
:1003C00001F088FE0128F0D03548017832483238F3
:1003D00002F071FF32480221415E2F48283802F0B6
:1003E0006AFF2E4801682C481E3802F064FF2A4834
:1003F0001421615E143802F05EFF2748E16A0A3872
:1004000002F059FFA179244802F055FF2248A17853
:100410000A3002F050FF2048618A143000E031E0D9
:1004200002F049FF2F722E611A486E8107724681D1
:10043000A08D81B2002000F01DF90121002000F004
:1004400023F9287A21281DD11648017A212919D1AA
:10045000C079012816D1266304E0032000F024F8B7
:1004600001202072084801F035FE012804D10D4812
:1004700001F030FE0128F0D02F722E6109486E8104
:1004800046810772F8BD000040050020800500206D
:1004900028000020200500203C7000088C0000206F
:1004A000900000206005002070B50022144901284A
:1004B00005D0472302280ED0032813D018E0114896
:1004C0000F240578632007230C704870332D8B7040
:1004D0000DD1372004E00B703920487062238B70F7
:1004E000C87005E00B706D2048700E208870CA70CF
:1004F0000A714A718A71CA7101F0FAFD70BD00007B
:10050000140500202E000020FEB5314C2F4801219B
:1005100089022060A1800D23A371002161812161E6
:10052000E171152727771F2222722A4E6422A661C5
:10053000626125462035012212032860AA80AB7132
:1005400069812961E9712F771F222A72AE616422C5
:100550006A61224640320126B6031060968093718C
:1005600051811161D17117771F2616726426566169
:100570007D263601966116462036012252033060F0
:10058000B280B37171813161F17137771F2232729C
:10059000642272617D221201B2611D2292020092D8
:1005A0006A46117151710221D171694600F0BAFD9C
:1005B0006946306800F0B6FD6946286800F0B2FD73
:1005C0006946206800F0AEFDFEBD00000004004852
:1005D0002005002070170000054B0122824018689A
:1005E000002901D0104300E09043186070470000DC
:1005F000007400401CB50121480401F0A5FB012155
:10060000480701F0ADFB10200090032168460171FE
:1006100000214171C17109206946C00600F082FDC8
:100620001CBD000030B5074C2368074A8240934345
:1006300024C92A430D6849680D432A4382401A435E
:10064000226030BD00740040FE0F00001FB5FFF7B0
:10065000D1FF3C20009000210B200002019103916A
:10066000029069460020FFF7DDFF01210020FFF71F
:10067000B3FF1FBD034A08B5101808300090016091
:1006800008BD00000074004003090120044A98409E
:100690000029516801D0014300E081435160704757
:1006A00000740040F8B5404C0021608A00B201F0AF
:1006B00089FD3E4D0A20285E617C0027884202D0D9
:1006C000297A202903D0E879012803D005E0607455
:1006D0006F8118E0287A21280ED020202872344E0D
:1006E0000A20305E617C884202D0307A20281ED0F9
:1006F000F07901281DD01FE06F812E4928698842BA
:1007000005D214210BE0608A401C6082E7E729498A
:10071000C94342182749491E8A4205D20A21FFF7D8
:10072000FDFC0029EFD0DAE7C007ECD0D7E77781EE
:1007300013E0307A212809D020203072618A009895
:10074000884224D0F07900281BD020E07781194915
:100750003069884205D214210BE0608A401E608215
:10076000ECE71449C94342181249491E8A4205D28E
:100770000A21FFF7D3FC0029EFD0DFE7C007ECD058
:10078000DCE7E879002802D10B4802F094FD608A8A
:10079000FF212D31884201D36182F8BD1E28FCD88B
:1007A0001E206082F8BD00002800002060050020A7
:1007B000800500207017000050700008F8B5022076
:1007C00000F0DCF8002844D024480021244C415E8D
:1007D000A078244B8200401CC0B29950A07003281E
:1007E00037D90026A670184602F006FF1E490127D9
:1007F000081AA0601D4A2770915F1D4D884201D3E1
:100800002F7005E01B4A1288891A814200D32E708E
:1008100019484168491C416002F098FA6078002844
:100820000DD1287801280AD11448154A0168491CBD
:1008300001601268914202D312490F70066002F003
:10084000E7FA104801781048007802F09FF82878FD
:100850006070022000F01AF8F8BD0000BC00002013
:1008600000000020FC000020FF0F00003C000020E2
:10087000290000203A0000209000002058000020AD
:100880008C0000202C0000202B000020C10001D58E
:10089000024900E00249486070470000000402403D
:1008A000000002400029016802D00122114301E04A
:1008B000014A114001607047FEFF0000F0B5016879
:1008C0002B4A114001600021016041608160C160DC
:1008D0002849284B08390F22984201D1486823E063
:1008E000244CF0231434A04229D0224D1C01283579
:1008F000A8422BD01F4E1D023C36B0422DD01D4FBA
:100900001E035037B8422FD01A4F6437B84204D173
:1009100048681A0408E04860F0BD164F7837B842BE
:1009200004D148680F2212061043F4E71249124F0F
:100930000839B842D2D0104A1432904202D14868E5
:100940001843E8E70C4A2832904202D14868204315
:10095000E1E7094A3C32904202D148682843DAE78D
:10096000054A50329042D7D148683043D3E700005F
:10097000FEFF00000800024008040240014600207B
:10098000CA0001D5034A00E0034A12680A4200D0B7
:10099000012070470004024000000240002A026863
:1009A00001D00A4300E08A430260704730B5036813
:1009B0000C4A0C6A13408A684D6922430C692C4327
:1009C00022438C692243CC6922434C6A22438C6ABD
:1009D00022431A430260CA6842600A68826049681A
:1009E000C16030BD0F80FFFF002101604160816068
:1009F000C160016141618161C161016241628162E5
:100A000070470000F8B5524C0026A079514D524F66
:100A1000332840D128460A21027A695E3846C079D7
:100A2000002902D0202A04D043E02673202A06D0D1
:100A30003FE001290AD002290CD003290ED0444AF4
:100A40000429D27A0FD0052912D032E0002830D103
:100A5000012006E000282CD1022002E0002828D145
:100A60000320207325E0002823D1002A04D020E0B1
:100A700000281ED1012A1CD16E81267319E0287A24
:100A8000212805D1387A212802D1F879012826D0E9
:100A90000120FFF709FDE8790128F0D02F48C0793F
:100AA0000128ECD0F8790128E9D02D48C079012837
:100AB000E5D0217BE07A0A46024332D0012903D8EF
:100AC00001282ED001292FD0022930D0032936D079
:100AD000042903D1012801D1FFF7E4FDF8BDA07975
:100AE000332804D03320A07126726E8105E03420B3
:100AF000A071FAE70120FFF7D7FC164801F0EAFAE7
:100B0000012804D1144801F0E5FA0128F2D0A179B6
:100B1000144802F0D0FB1F2028726E817E8138724B
:100B2000B9E700F021F8F8BD002805D0F8BD01288C
:100B300002D0002808D0F8BD00F0D0F9F8BD012897
:100B400002D00028C8D0F8BD00F0BEF9F8BD000002
:100B500028000020400500208005002020050020FE
:100B6000600500203C70000810B50548C07A0028D8
:100B700002D000F007F810BD00F00AF910BD000027
:100B800028000020F8B57D4C7D4D2046217B028D4C
:100B9000007800267B4F12B200290AD001295FD1CC
:100BA0001821615E01F01AFEE879217A084377D0B6
:100BB000BEE01621615E01F011FEE879217A08435A
:100BC00047D1A079332844D11625655F25846E4826
:100BD0000A21415EE27B914202D0027A202A03D0B0
:100BE000C179012903D005E0E173468117E0017A5C
:100BF00021290ED02021017264480A21415EE27B46
:100C0000914202D0017A20291CD0C17901291BD040
:100C10001DE046810069B84204D814210AE06D1C29
:100C2000E582E9E75749C94342185649491E8A42B5
:100C300005D80A21FFF772FA0029F0D0DCE7C007D7
:100C4000EDD0D9E7468112E0017A212909D020218F
:100C500001721621615E7D20400181421CDBE08231
:100C6000F8BD46810069B84205D214210BE0E08A44
:100C7000401EE082EDE74349C94342184149491EFD
:100C80008A4206D20A21FFF749FA0029EFD0E0E7AD
:100C900006E0C007EBD0DCE76429E1DC6420DEE796
:100CA000A079332844D11825655F658436480A2128
:100CB000415EE27B914202D0027A202A03D0C179C0
:100CC000012903D005E0E173468117E0017A21296B
:100CD0000ED0202101722D480A21415EE27B914213
:100CE00002D0017A20291CD0C17901291BD01DE036
:100CF00046810069B84204D814210AE06D1C25839E
:100D0000E9E72049C94342181E49491E8A4205D8CD
:100D10000A21FFF703FA0029F0D0DCE7C007EDD085
:100D2000D9E7468112E0017A212909D020210172F8
:100D30001821615E7D20400181421BDB2083F8BDCC
:100D400046810069B84205D214210BE0208B401E79
:100D50002083EDE70B49C94342180A49491E8A42DC
:100D600005D20A21FFF7DAF90029EFD0E0E7C00742
:100D7000ECD0DDE76429E2DC6420DFE72800002016
:100D8000400500207017000060050020800500204D
:100D9000F8B5474C208D01B21420205E01F0AAFC6A
:100DA0004448217AC07900270843002873D1A079EC
:100DB000332870D11426A65FE6833F4D00960A20A3
:100DC000285EA17B884202D0297A202903D0E879C5
:100DD000012803D005E0A0736F8118E0287A21284C
:100DE0000ED020202872354E0A20305EA17B88422A
:100DF00002D0307A20281DD0F07901281CD01EE0C6
:100E00006F812F492869884204D814210AE0761C92
:100E1000A682E8E72A49C94342182949491E8A425D
:100E200005D80A21FFF77AF90029F0D0DBE7C007DF
:100E3000EDD0D8E7778114E0307A21280AD020203D
:100E400030721421615E0098884224D0F079002825
:100E50001BD020E077811A493069884205D21421DD
:100E60000BE0A08A401EA082EBE71549C943421857
:100E70001349491E8A4205D20A21FFF74FF900297A
:100E8000EFD0DEE7C007ECD0DBE7E879002802D13D
:100E90000C4802F010FA1420205E7D21490188429E
:100EA00001DBA182F8BD0028FCDCA782F8BD0000B0
:100EB000280000204005002060050020800500205B
:100EC000701700002870000810B50348008E00B2AB
:100ED00001F002FD10BD000028000020F8B5184CFC
:100EE000A07801F03DFD17480A21415E227C0126D1
:100EF000154F002591420CD0027A202A09D1217485
:100F00004581A078002817D0A570A178384602F056
:100F1000D2F90E480A21415E227C91420BD0017A1F
:100F2000202908D14581A078002807D0A570A17894
:100F3000384602F0C0F9F8BDA670E6E7A670F6E7FD
:100F40002800002060050020467000088005002071
:100F50000149C8607047000000200240F0B50B272F
:100F600006463F04384600F067F804280FD1084CC5
:100F700020690225284320616661206940210843D9
:100F80002061384600F058F82169A9432161F0BD7D
:100F90000020024008490420CA68D20701D001207D
:100FA0007047CA68D20601D502207047C968490750
:100FB000FBD5032070470000002002400248016971
:100FC000802211430161704700200240F8B50646B7
:100FD00000200B273F0400900D46384600F02CF807
:100FE000042815D10B4C206901210843206135806C
:100FF000384600F021F8042806D1B61C280C0096CB
:101000003080384600F018F821694908490021610C
:10101000F8BD00000020024004480169090603D51C
:1010200003494160034941607047000000200240CD
:1010300023016745AB89EFCD00B50346FFF7AAFF53
:1010400002E0FFF7A7FF5B1E012803D0002B00D1B1
:10105000052000BD002BF4D1FAE7000000B50D49D2
:101060000D4800F01DF80B484278017812028918EB
:101070008278C07812040006101809180548074A3B
:101080001838C161126802628A4201D1012000BD94
:10109000002000BD18000020F000002000800008A3
:1010A00030B51F4AD3681C790470D3681B7A43702B
:1010B000D3685B788370D368DB78C370D3681D789E
:1010C00005715D7945719D7A8571DD79C5715D7AAE
:1010D00005729D784572DD7A85729B79C3721369BA
:1010E0001B7863400B70136984795B78057A6340E1
:1010F000C4796C406340447A6340847A6340C47A24
:1011000063404B70136904799B7863408B7012695C
:101110008378D27840785A404240CA7030BD00008F
:1011200000000020F0B50022012423460D68934002
:101130001D409D422AD10D79012D01D0022D12D1E1
:10114000876855000326AE40B74387604E79AE40AE
:1011500085682E43866085889D43858085888B7948
:1011600093401D438580066855000323AB409E4392
:1011700006600E790768AE403E430660C6689E432F
:10118000C660CB79AB40C5682B43C360521C102AA4
:10119000CBD3F0BD4B07DB0E9A40C90810B58900D0
:1011A0000818016A0F249C40A1430162016A11439F
:1011B000016210BD0246128A00200A4200D00120BE
:1011C0007047000004490160002101710122427151
:1011D0008171C17170470000FFFF0000002A01D03B
:1011E0008161704701857047014909680160704756
:1011F0000800002070B515480168154C00292164CD
:1012000016D0831C9D68134A157045695580DA69AC
:10121000114D2A60826AA2821A6BE262C26BA271CD
:101220000A4A42325268A270084A40321269628207
:10123000491C216402F03FF8A08D81B20020FFF725
:1012400019FA01210020FFF71FFA70BD0070000895
:1012500028000020900000208C00002010B5002401
:1012600004E00A21FEF75AFF641CE4B20028F8D11A
:10127000204610BDF8B50020364C0090364D206158
:1012800020E036480168002001F09EFB17E0684628
:10129000FFF7AAFF00982169884200D32061304EF1
:1012A0003078C10608D5EF21084030702B48002265
:1012B0000168104601F0F0FB287A212806D0E87971
:1012C0000128E4D020780028DBD0F8BD244801783C
:1012D000CA0638D5EF2211400170002211460120C4
:1012E00001F0DAFB2FE02069A06061680126081890
:1012F000400809277602FF06E06031463846FFF7CE
:1013000059FF024631463846FFF768FF76103146EE
:101310003846FFF74FFF024631463846FFF75EFF7B
:101320001048E16801800120207000206881E87188
:101330001F2028720C4801F0BEFF0C4801680A48C3
:101340000A3001F0B8FF287A2128B8D1E8790028BE
:10135000BCD1C8E798000020200500206C000020C8
:10136000310000203C0000202870000854000020BC
:10137000FEE700007CB50121480400F0E5FC0121F6
:10138000880400F0E1FC0121C80400F0DDFC01212B
:10139000080500F0D9FC0121480500F0D5FC012129
:1013A000880500F0D1FC6846FFF70CFF032000021F
:1013B000009001206946087100248C7103224A7153
:1013C0000925C871ED062846FFF7ACFE6946284698
:1013D000FFF7A8FE0120C002009069460C714C7115
:1013E000CC710248FFF79EFE7CBD0000000400485F
:1013F00010B55D2000F004FE002801D000F0E0FCF4
:10140000074800F02BF8042000F01CF87D200001B4
:1014100000F01EF800F00EF800F004F810BD000017
:10142000555500000249014808607047CCCC0000C7
:10143000003000400249014808607047AAAA000035
:101440000030004001494860704700000030004013
:101450000149886070470000003000400149086081
:101460007047000000300040F8B5484800F032FEF8
:10147000464C01250026012805D0204600F02AFE12
:10148000002805D005E02069401C2061E57100E0DE
:10149000E6712069002802D0E179002905D0A16910
:1014A000884205D9E079012802D1384800F015FCBE
:1014B0003648203800F00EFE344F203F012805D07A
:1014C000384600F007FE002805D005E03869401CCA
:1014D0003861FD7100E0FE713869002802D0F979A9
:1014E000002905D0A169884206D9F879012803D1DD
:1014F0002648203800F0F1FB2448203000F0EAFDB7
:10150000224C2034012805D0204600F0E3FD0028BD
:1015100005D005E02069401C2061E57100E0E6711E
:101520002069002802D0E179002905D0A16988420C
:1015300006D9E079012803D11448203000F0CDFB12
:101540001248403000F0C6FD104F4037012805D04A
:10155000384600F0BFFD002805D005E03869401C82
:101560003861FD7100E0FE713869002802D0F97918
:10157000002905D0A169884206D9F879012803D14C
:101580000248403000F0A9FBF8BD000040050020F3
:10159000F8B5354CA06800F0D1FD34480A21344E2E
:1015A000415EA2780025F743914202D0027A202AB8
:1015B00003D0C179012903D005E0A170458117E06E
:1015C000017A21290ED0202101722A480A21415E88
:1015D000A278914202D0017A20291BD0C179012939
:1015E0001AD01CE045810069B04205D2142109E0FF
:1015F000A068401CA060E8E71D49C219491E8A4244
:1016000005D20A21FEF78AFD0029F1D0DDE7C007E7
:10161000EED0DAE7458110E0017A212907D02021B8
:101620000172A06801281ADC0120A060F8BD458184
:101630000069B04205D2142109E0A068401EA060F4
:10164000EFE70B49C219491E8A4205D20A21FEF76B
:1016500065FD0029F1D0E4E7C007EED0E1E70649D7
:101660008842E3DBA160F8BD840000206005002013
:101670007017000080050020FFFF0000F8B55B4DEB
:101680005B4E5C4F5C4C29E000F0EAFA0A20285ED1
:10169000E17888420CD0297A202909D1E070002015
:1016A00068812178491C49B22170032900DD20702E
:1016B0000A20305EE17888420CD0307A202809D1A7
:1016C000002070812078401E40B22070002801DA8E
:1016D000032020700A20385E04282BDA20780028A6
:1016E000D2D027E000F08AF80A21695EE0788142D2
:1016F0000BD0297A202908D1002169812278521C37
:1017000052B22270032A00DD21700A21715E8142EB
:101710000CD0307A202809D1002070812078401E1A
:1017200040B22070002801DA032020700A20385EC1
:1017300004282BDC20780128D4D027E000F01EF903
:101740000A21695EE07881420BD0297A202908D1EC
:10175000002169812278521C52B22270032A00DDD6
:1017600021700A21715E81420CD0307A202809D183
:10177000002070812078401E40B22070002801DADD
:10178000032020700A20385E04282BDC20780228F1
:10179000D4D027E000F0ACF90A20285EE178884236
:1017A0000BD0287A202808D100226A812078401C9A
:1017B00040B22070032800DD22700A20305E88428B
:1017C0000CD0307A202809D1002070812078401E6A
:1017D00040B22070002801DA032020700A20385E11
:1017E000042802DC20780328D4D0F8BD600500204E
:1017F000800500204005002084000020F8B5584CEA
:10180000EF2720780025C106564E002903DA38401C
:10181000207000F05DFD9AE0534920200870534885
:10182000C079002803D15248C079002807D0207819
:101830004D49384020700220085E002108E02078E1
:10184000C10607D53840207047490220085E0121B3
:1018500000F05EFD444A45480A210C3A415E127987
:10186000914202D0027A202A03D0C179012909D0FD
:101870000BE03D4A0C3A117145813B484188491CB7
:10188000418004E0017A212910D0202101723649DB
:1018900037480A220C39825E09798A4202D0017ADD
:1018A00020291FD0C17901291ED020E0458100697F
:1018B0003049884206D214210CE02B494888401C4C
:1018C0004880E4E72B49C94342182A49491E8A4205
:1018D00005D20A21FEF722FC0029EED0D7E7C00787
:1018E000EBD0D4E7458116E0017A212909D02021E7
:1018F00001721D480222825E1F498A4224DB418018
:1019000025E0458100691B49884209D21421FEF770
:1019100005FC0029EDD114484188491E4180E8E7C3
:101920001449C94342181349491E8A4209D20A215F
:10193000FEF7F4FB0029DCD10B494888401E4880A3
:10194000D7E7C007F8D0D4E7002A00DC4580307A1A
:10195000202803D17089042800D15DE7F8BD00007C
:10196000310000204005002090000020600500208C
:1019700080050020701700000F270000F8B5554CB7
:10198000EF2720780025C106534E002903DA38409E
:10199000207000F043FD94E0504821210170504830
:1019A000C079002803D14F48C079002808D020789A
:1019B000DF210840207049490220085E002108E02C
:1019C0002078C10607D53840207044490220085EBF
:1019D000012100F043FD414A41480A210C3A415E91
:1019E0005279914202D0027A202A03D0C17901298A
:1019F00005D007E0394A0C3A517145811AE0017A65
:101A0000212910D020210172344936480A220C398C
:101A1000825E49798A4202D0017A20291FD0C17999
:101A2000012922D024E0458100692F49884206D24D
:101A300014210CE029484188491C4180E4E72A49E7
:101A4000C94342182849491E8A4205D20A21FEF795
:101A500065FB0029EED0D7E7C007EBD0D4E71F49DC
:101A600045814888401E488004E0017A212909D038
:101A70002021017219480222825E1C498A421DDB24
:101A800041801EE0458100691749884206D2142131
:101A90000CE012484188491E4180EBE71249C943D6
:101AA00042181149491E8A4205D20A21FEF736FB27
:101AB0000029EED0DEE7C007EBD0DBE7002A00DC30
:101AC0004580307A202803D17089042800D163E74B
:101AD000F8BD0000310000204005002090000020EB
:101AE0006005002080050020701700000F2700000F
:101AF000F8B5544CEF2720780025C106524E002936
:101B000003DA3840207000F02FFD93E04F48222187
:101B100001704F48C079002803D14E48C079002891
:101B200007D020784949384020700220085E002103
:101B300008E02078C10607D53840207043490220CC
:101B4000085E012100F030FD404A41480A210C3A6C
:101B5000415E9279914202D0027A202A03D0C17963
:101B6000012905D007E0394A0C3A917145811AE004
:101B7000017A212910D020210172344935480A22E6
:101B80000C39825E89798A4202D0017A20291FD0DD
:101B9000C17901291ED020E0458100692E49884283
:101BA00006D214210CE029484188491C4180E4E711
:101BB0002949C94342182849491E8A4205D20A21A7
:101BC000FEF7ACFA0029EED0D7E7C007EBD0D4E798
:101BD000458127E0017A212909D0202101721B4883
:101BE0000222825E1D498A4221DB418022E045813A
:101BF00000691949884206D214210CE01348418833
:101C0000491E4180EBE71449C94342181249491E55
:101C10008A4205D20A21FEF781FA0029EED0DEE7DA
:101C2000C007DCD109494888401E4880D7E7002A10
:101C300000DC4580307A202803D17089042800D147
:101C400064E7F8BD3100002040050020900000202E
:101C50006005002080050020701700000F2700009D
:101C600010B506480178CA0604D5EF22114001706C
:101C700000F020FD02491F20087010BD3100002037
:101C8000900000207047000030B583780121027871
:101C9000002B15D094080E4BA400E418236892077B
:101CA000D50EFF22AA40934342789207120EAA4013
:101CB0001A4322600078C006C00E8140054804E047
:101CC000D006C00E814003488030016030BD000066
:101CD00000E400E000E100E0704730B582790021C7
:101CE000212320240D2A09D00B2A14D00C2A11D12B
:101CF00084690269A2420DD3037207E08569026913
:101D0000AA4208D30372C279002A03D10161418932
:101D1000491C418130BD0472F8E7000009494A6856
:101D200001239B039A434A604A6883B21A434A607C
:101D30000A6B8B159A430A630A6B000C02430A6311
:101D40007047000000100240044A0029516901D088
:101D5000014300E0814351617047000000100240E0
:101D6000044A0029D16901D0014300E08143D161D7
:101D70007047000000100240044A0029116901D098
:101D8000014300E0814311617047000000100240F0
:101D9000044A0029916901D0014300E08143916127
:101DA0007047000000100240044A0029D16801D0A9
:101DB000014300E08143D160704700000010024001
:101DC0000348416A01221206114341627047000034
:101DD0000010024010B500F029F8012000F03CF995
:101DE000012000F00DF90028FAD0002000F02AF9B7
:101DF000002000F03FF90521C904002000F052F94D
:101E0000012000F041F90848FFF788FF192000F091
:101E1000F7F80028FAD0022000F052F900F00AF991
:101E20000828FBD110BD00000040000112480168E5
:101E30000122114301604168104A1140416001686C
:101E40000F4A114001600168012292049143016030
:101E500041683F22120491434160C16A09090901A6
:101E6000C162016B074A11400163416B4908490097
:101E70004163002181607047001002400CB8FF08E8
:101E8000FFFFF6FEACFEF0FFF8B5564D044668685D
:101E900000210C22544E104005D0042803D00828FD
:101EA00003D00C281AD026601AE0696868680322FB
:101EB0008902D2030F0F1040BF1C00280AD0E86A25
:101EC0000107090F3046491CFEF728F978430146FF
:101ED000216005E0454839464143F9E74448206020
:101EE0006868444F0006000F3B5C20680246DA40F9
:101EF00062606B685B055B0FFB5CDA40A2602B6B7A
:101F0000DB0501D43C4B05E06B685B0401D453084E
:101F100000E09308E3602B6B5F06384B03D4374F28
:101F20001237276100E023612F6BFF0601D4666141
:101F300000E060612F6BBF070ED02F6BBF07BF0F94
:101F4000012F0BD02F6BBF07BF0F022F08D02F6BB5
:101F5000FF43BF0706D006E0A26104E0A06102E0F3
:101F6000A36100E0A6612F6BBF03BF0F0FD02F6BE3
:101F7000BF03BF0F012F0CD02F6BBF03BF0F022F6A
:101F800009D02F6BBF03BF0F032F06D006E0E2611D
:101F900004E0E06102E0E36100E0E6612F6B3F03F3
:101FA000BF0F0FD02A6B1203920F012A0CD0286B9F
:101FB0000003800F022809D0286B0003800F03283C
:101FC00006D006E0226204E0206202E0236200E024
:101FD0002662286B000602D405486062F8BD616283
:101FE000F8BD00000010024000127A0000093D0018
:101FF000006CDC02AC000020809FD5000080000057
:10200000034600200A495A090CD0012A0CD0022AA2
:102010000CD0496BDA06D20E012393400B4200D05C
:10202000012070470968F5E7096AF3E7496AF1E7B3
:1020300000100240024840680C2108407047000030
:1020400000100240034A5168F02399430143516054
:10205000704700000010024005490028086802D0BF
:102060000122104301E04008400008607047000072
:1020700000100240034A516807231B0299430143A1
:1020800051607047001002400122054912060028E5
:10209000086801D0104300E09043086070470000DA
:1020A0000010024010B5054A53687B24E403A343A3
:1020B0005360536808430343536010BD001002404F
:1020C000034A516889088900014351607047000044
:1020D0000010024010B5044681880068FFF76AF8D6
:1020E000217F152902D1012800D0002010BD000059
:1020F00070B5104C0E4920782546095C0C352970C6
:102100000D494000085A6860002001F0CBFB686868
:1021100001F06CFB287801F0C5FB686801F066FBF4
:102120002078411C2170082801D30020207070BD48
:10213000140500207000002050390008F1B5009807
:10214000FFF78CF805460A210098FDF7E7FF0246E5
:1021500048001A4F1A4C385C00262070022D07D315
:1021600010460A21FDF7DAFF4800385C607000E095
:102170006670032D0AD364210098FDF7CFFF0A2172
:10218000FDF7CCFF4800385CA07000E0A670042D7D
:102190000BD37D21C9000098FDF7C0FF0A21FDF790
:1021A000BDFF4800385CE07000E0E6702671232037
:1021B00060716D20A0710F20E071F8BD62390008D8
:1021C00014050020F3B581B00C460198FFF746F8DE
:1021D000074620463B4E00253B4C00283CD03B4860
:1021E000407A002830D00A210198FDF7ADFF490060
:1021F000715C2170022F06D30A21FDF7A5FF48006C
:10220000305C607000E06570032F0AD36421019890
:10221000FDF79AFF0A21FDF797FF4800305CA07098
:1022200000E0A570042F0BD37D21C9000198FDF7B4
:102230008BFF0A21FDF788FF4800305CE07000E06A
:10224000E5702248457234E025706570A5701F481E
:10225000E570012141722CE00A210198FDF774FF1D
:102260004900715C2170022F12D30A21FDF76CFF27
:102270004800305C6070032F0BD364210198FDF798
:1022800063FF0A21FDF760FF4800305CA07001E0A9
:102290006570A570042F0BD37D21C9000198FDF74F
:1022A00053FF0A21FDF750FF4800305CE07000E06A
:1022B000E5702571072060714F20A0717320E071D7
:1022C000FEBD0000623900081405002070000020E7
:1022D0000D4840210170417081700C4AC1709378A3
:1022E0000021002B08D0732303714E2343718371A7
:1022F0006323C37191707047017141718171C17124
:10230000012090707047000014050020700000202C
:10231000F3B581B00C460198FEF7A0FF07462046B2
:102320003B4E00253B4C00283CD03B48C078002861
:1023300030D00A210198FDF707FF4900715C217038
:10234000022F06D30A21FDF7FFFE4800305C6070C3
:1023500000E06570032F0AD364210198FDF7F4FEB5
:102360000A21FDF7F1FE4800305CA07000E0A57086
:10237000042F0BD37D21C9000198FDF7E5FE0A214A
:10238000FDF7E2FE4800305CE07000E0E5702248B6
:10239000C57034E025706570A5701F48E570012197
:1023A000C1702CE00A210198FDF7CEFE4900715C56
:1023B0002170022F12D30A21FDF7C6FE4800305CBF
:1023C0006070032F0BD364210198FDF7BDFE0A2135
:1023D000FDF7BAFE4800305CA07001E06570A570A2
:1023E000042F0BD37D21C9000198FDF7ADFE0A2112
:1023F000FDF7AAFE4800305CE07000E0E570732055
:1024000020714E206071A0716320E071FEBD00005C
:1024100062390008140500207000002010B50D4836
:1024200040220270427082700B4BC2701C790021F6
:10243000002C08D0732404714271622282716322DD
:10244000C271197110BD017141718171C171012099
:10245000187110BD1405002070000020F3B581B084
:102460000C460198FEF7FAFE074620463B4E002533
:102470003B4C00283CD03B484079002830D00A2112
:102480000198FDF761FE4900715C2170022F06D3AF
:102490000A21FDF759FE4800305C607000E065706D
:1024A000032F0AD364210198FDF74EFE0A21FDF7A0
:1024B0004BFE4800305CA07000E0A570042F0BD3E9
:1024C0007D21C9000198FDF73FFE0A21FDF73CFE82
:1024D0004800305CE07000E0E5702248457134E06F
:1024E00025706570A5701F48E570012141712CE0D1
:1024F0000A210198FDF728FE4900715C2170022F26
:1025000012D30A21FDF720FE4800305C6070032FD3
:102510000BD364210198FDF717FE0A21FDF714FE85
:102520004800305CA07001E06570A570042F0BD3EB
:102530007D21C9000198FDF707FE0A21FDF704FE81
:102540004800305CE07000E0E570732020714020AE
:1025500060716220A0716320E071FEBD62390008E5
:1025600014050020700000200D48402101704170CA
:1025700081700C4AC17093790021002B09D0472348
:10258000037163234371762383716D23C37191714A
:102590007047017141718171C17101209071704763
:1025A0001405002070000020F3B581B00C4601989E
:1025B000FEF754FE074620463B4E00253B4C0028C4
:1025C0003CD03B48C079002830D00A210198FDF763
:1025D000BBFD4900715C2170022F06D30A21FDF773
:1025E000B3FD4800305C607000E06570032F0AD3D3
:1025F00064210198FDF7A8FD0A21FDF7A5FD48001B
:10260000305CA07000E0A570042F0BD37D21C900C1
:102610000198FDF799FD0A21FDF796FD4800305C11
:10262000E07000E0E5702248C57134E02570657007
:10263000A5701F48E5700121C1712CE00A210198A5
:10264000FDF782FD4900715C2170022F12D30A212F
:10265000FDF77AFD4800305C6070032F0BD36421D6
:102660000198FDF771FD0A21FDF76EFD4800305C11
:10267000A07001E06570A570042F0BD37D21C90007
:102680000198FDF761FD0A21FDF75EFD4800305C11
:10269000E07000E0E57047202071632060717620D3
:1026A000A0716D20E071FEBD6239000814050020A4
:1026B000700000200D4840210170417081700C4A6B
:1026C000C17053780021002B08D04E230371437151
:1026D000632383714723C371517070470171417146
:1026E0008171C171012050707047000014050020F5
:1026F00070000020F3B581B00298FEF7AFFD0746E9
:102700000198FEF7ABFD00900A210298FDF71CFD31
:10271000024648002F4D304C285C00262070022FC6
:1027200007D310460A21FDF70FFD4800285C6070B2
:1027300000E06670032F0AD364210298FDF704FDC0
:102740000A21FDF701FD4800285CA07000E0A6709A
:1027500038467D27FF0004280AD339460298FDF742
:10276000F3FC0A21FDF7F0FC4800285CE07000E073
:10277000E6700A210198FDF7E7FC4900695C2171C8
:102780000099022906D30A21FDF7DEFC4800285CE7
:10279000607100E06671009803280AD364210198F3
:1027A000FDF7D2FC0A21FDF7CFFC4800285CA071A0
:1027B00000E0A671009804280AD339460198FDF775
:1027C000C3FC0A21FDF7C0FC4800285CE071FEBD97
:1027D000E671FEBD6239000814050020F7B582B02D
:1027E0000498FEF73BFD00900398FEF737FD07467F
:1027F0000A210498FDF7A8FC0246354E4800354CE6
:10280000305C207000980025022807D310460A216A
:10281000FDF79AFC4800305C607000E0657000983D
:1028200003280AD364210498FDF78EFC0A21FDF7E2
:102830008BFC4800305CA07000E0A5700098042874
:102840000BD37D21C9000498FDF77EFC0A21FDF71A
:102850007BFC4800305CE07000E0E57002980028E6
:102860002FD00A210398FDF76FFC4900715C21719C
:10287000022F06D30A21FDF767FC4800305C607127
:1028800000E06571032F0AD364210398FDF75CFC17
:102890000A21FDF759FC4800305CA07100E0A571E9
:1028A000042F0CD37D21C9000398FDF74DFC0A21AC
:1028B000FDF74AFC4800305CE07105B0F0BDE57101
:1028C000FBE72571392060717620A071F7E70000E1
:1028D0006239000814050020F1B50098FEF7BEFC2F
:1028E00005460A210098FDF72FFC024648001A4FC2
:1028F0001A4C385C00262070022D07D310460A219E
:10290000FDF722FC4800385C607000E06670032D23
:102910000AD364210098FDF717FC0A21FDF714FC87
:102920004800385CA07000E0A670042D0BD37D2118
:10293000C9000098FDF708FC0A21FDF705FC4800D6
:10294000385CE07000E0E6702671232060715E2044
:10295000A0710F20E071F8BD623900081405002055
:1029600010B5094900220A704A708A70CA70622440
:10297000632240230C714A7100288B7101D007201B
:1029800000E07320C87110BD1405002010B50C467E
:10299000012109204902C006FEF70CFC094A002863
:1029A00002D0012806D001E0012C01D0002006E071
:1029B000302004E0002C01D0362000E00620107208
:1029C00010BD000014050020F3B581B00746029841
:1029D000FEF744FC00252D4C0646012F05D0022FA2
:1029E0001CD025706570A57046E025706570A570D7
:1029F0002748E570817A002909D0302121714721CB
:102A000061714F21A1716D21E1718572FEBD25714A
:102A10006571A571E57101218172FEBD0A210298DF
:102A2000FDF77CFB49001B4F022E795C217006D319
:102A30000A21FDF773FB4800385C607000E06570A8
:102A4000032E0AD364210298FDF768FB0A21FDF7E3
:102A500065FB4800385CA07000E0A570042E0BD325
:102A60007D21C9000298FDF759FB0A21FDF756FBAD
:102A70004800385CE07000E0E570302020714720AD
:102A800060714F20A0716D20E071FEBD1405002023
:102A90007000002062390008F7B507460298FEF77B
:102AA000DDFB00252D4C0646012F05D0022F1CD042
:102AB00025706570A57046E025706570A570284882
:102AC000E570C17A002909D05B212171472161712C
:102AD0004F21A1716D21E171C572FEBD2571657136
:102AE000A571E5710121C172FEBD0A210298FDF7B1
:102AF00015FB49001B4F022E795C217006D30A2179
:102B0000FDF70CFB4800385C607000E06570032E38
:102B10000AD364210298FDF701FB0A21FDF7FEFAB2
:102B20004800385CA07000E0A570042E0BD37D2116
:102B3000C9000298FDF7F2FA0A21FDF7EFFA480002
:102B4000385CE07000E0E5705B2020714720607128
:102B50004F20A0716D20E071FEBD00001405002023
:102B60007000002062390008FEB501214804FFF71B
:102B7000EBF801218804FFF7E7F80121C804FFF70B
:102B8000E3F801210805FFF7DFF801214805FFF709
:102B9000DBF801218805FFF7D7F86846FEF712FB3E
:102BA0000126B6030125684600960571002484714C
:102BB0004471C57169465E48FEF7B4FA5D480090FD
:102BC0006846057184714471C57169465848FEF7BD
:102BD000A9FA69465648FEF7A5FA69465448FEF731
:102BE000A1FA554F69463846FEF79CFA0720800245
:102BF00000906846057184714471C5710920694669
:102C0000C006FEF78FFA09206946C006FEF78AFA69
:102C100009206946C006FEF785FA484800906846D4
:102C2000057184714471C57169464548FEF77AFAA9
:102C300009206946C006FEF775FA424800906846CA
:102C40000571847144710221C17169463C48FEF7E7
:102C500069FA69463A48FEF765FA69463846FEF76A
:102C600061FA69463648FEF75DFA69463448FEF770
:102C700059FA69463248FEF755FA69463048FEF778
:102C800051FA002201213846FEF7A8FAEC0300228F
:102C900021462748FEF7A2FA002231462448FEF7D3
:102CA0009DFA0022A1102248FEF798FA092000227E
:102CB0006111C006FEF792FA092000222111C00618
:102CC000FEF78CFA09200022E110C006FEF786FA12
:102CD000002208211A48FEF781FA09200022214625
:102CE000C006FEF77BFA002280211548FEF776FA2F
:102CF000002220211248FEF771FA002202213846F4
:102D0000FEF76CFA002210210D48FEF767FA002248
:102D100040210B48FEF762FA0022E1110848FEF755
:102D20005DFA0022A1110648FEF758FAFEBD000028
:102D30000008004801E0000000140048088000007E
:102D400000040048F203000070470000F8B52E4868
:102D5000817A01292BD081784278914201D10123D7
:102D600000E000232848294CC37025780121092060
:102D700000274902C0061F2D11D026460222B25E4E
:102D80007468214E766A7243202D11D01F4E212D7A
:102D90001AD0222D0BD11C4D002B27D121E0002B66
:102DA00001D0012200E00022FEF718FA6760F8BDAA
:102DB000002B05D00122FEF711FA14484760F8BD38
:102DC0009442FCD9002204E0002B05D09442F6D9AD
:102DD0000122FEF703FAF8BD0022FEF7FFF9776043
:102DE000F8BD6B7B012B01D07760EBE7944205D2F5
:102DF0000122FEF7F3F901206873F8BD0022FEF707
:102E0000EDF96F73F8BD000028000020900000204D
:102E100070B50E4CA07A012817D02079FF2509261D
:102E20000135F606002804D0012229463046FEF777
:102E3000D5F91A20205EFA2807DB00202071608374
:102E4000024629463046FEF7C9F970BD2800002029
:102E5000134911200860134841684160416841608E
:102E600041687F22D2039143416041680522D20428
:102E7000114341600168012212061143016001689B
:102E80008901FCD5416889088900416041680222B6
:102E90001143416041680907890F0229FAD170473F
:102EA000002002400010024070B5124C0125A07AAB
:102EB00001280AD0E9021048FEF77CF9002803D067
:102EC0000020A072E07170BDA572606B6428FAD317
:102ED000E57109250121ED06002249022846FEF789
:102EE0007DF9FF21002201312846FEF777F9A06B1A
:102EF000E06370BD28000020000400487047000017
:102F000010B5144801680122114301604168124A5A
:102F1000114041600168114A1140016001680122BD
:102F200092049143016041683F2212049143416041
:102F3000C16A09090901C162016BFF225432914340
:102F40000163416B49084900416300218160FFF73B
:102F50007FFF10BD001002400CB8FFF8FFFFF6FE27
:102F600010B5064C0121204600F0ECF8002803D0F3
:102F70000121204600F073F810BD0000002C014034
:102F800010B501218C07204600F0DCF8002803D0A2
:102F90000121204600F063F810BD000070B5214EFD
:102FA0000121304600F0CEF8002839D01E4C60696F
:102FB000401C60610A216069FDF7B0F80025002916
:102FC0001BD11A480078002803D019480188491CF1
:102FD0000180FFF78DF8FEF747FA16480168491C93
:102FE0000160FEF727FA144814490078002803D03E
:102FF0000868401C086000E00D6060691049884264
:103000000AD31048102201781143017065610E48FF
:1030100001220178514001700121304600F01FF873
:1030200070BD000000040040000000202C000020C3
:103030004200002060000020320000205C000020E0
:103040008813000031000020280000208022002981
:10305000018801D0114300E0914301807047C943CA
:10306000018270470029018802D00122114301E04A
:1030700049084900018070472A4910B5884202D1A9
:103080000121C4143AE001218907884206D10121B7
:103090000846FEF771FE0021012008E0224988421F
:1030A00008D101210220FEF767FE00210220FEF771
:1030B00063FE10BD1D49884206D101211020FEF794
:1030C0005BFE00211020F2E71949884206D1012158
:1030D0002020FEF751FE00212020E8E71549884214
:1030E00007D1841501212046FEF746FE0021204627
:1030F000DDE71149884209D101210C042046FEF781
:1031000053FE00212046FEF74FFE10BD0B498842BA
:1031100002D101214C04F1E709498842F5D101218E
:103120008C04EBE7002C014000040040001000403C
:1031300000140040002000400040014000440140D5
:10314000004801400246138A002092890B400A4041
:10315000002B02D0002A00D001207047002A82896B
:1031600001D00A4300E08A438281704770B5028C27
:1031700010239A430284048C8288038B1A4D2B40BF
:103180000D782D062D0C1D4320239C438B891B0598
:103190001E0C4B8826431B051B0C144C3343A042CA
:1031A00002D0134EB04219D1124E32400E8AB604EC
:1031B000360C3243A04211D18024A343CC8924058C
:1031C000240C1C4340239C438B881B051B0C23436E
:1031D000094C22404C8AA404240C2243828005839B
:1031E00089688163038470BDFF8C0000002C01405E
:1031F00000400140FFFB0000FFF70000028B034B83
:1032000009021A401143018370470000FFF70000D4
:10321000828870239A43828082880A438280704722
:1032200010B50288144B984206D00124A407A0428E
:1032300002D0124CA04203D17024A2434C882243F6
:103240000F4CA04203D00F4C22400C892243028035
:103250004A68C2620A880285984208D00A4A9042A7
:1032600005D00A4A904202D0094A904201D1897A97
:1032700001860121818210BD002C01400004004024
:1032800000100040FFFC00000040014000440140ED
:10329000004801400021C9434160002101800181B3
:1032A00041808172704700210A22504300E0491C8E
:1032B0008842FCD8704770B50C460546FDF7ACFE59
:1032C0003520FDF745FE2846FDF748FE21462846F5
:1032D000FDF77CFE3520FDF73BFEFDF76FFE70BD70
:1032E00002E008C8121F08C1002AFAD170477047CF
:1032F000002001E001C1121F002AFBD1704700002D
:1033000030B5012187B04802FEF742FD1C4C204633
:10331000FCF79EFF6846FCF7F6FF00216846017146
:1033200080200390C00000910491059102906946AD
:103330002046FCF7C3FF01212046FCF7D5FF0322FE
:1033400004212046FCF764FF2046FCF791FF012191
:103350002046FCF762FF0B4D20462946FCF79FFFF5
:103360000028F9D001212046FCF760FF0221204609
:10337000FCF766FF2046FCF7C1FF07B030BD000038
:10338000002401400100000170B501218CB0084605
:10339000FEF7DAFC092168460170012585700024DA
:1033A0004470FEF771FC154E3046FDF787FA01A810
:1033B000FDF71AFB124802900394A80208900B94A0
:1033C000802006900495202009900E4801908015D9
:1033D0000790059440010A9001A93046FDF7E6FAEE
:1033E000012202213046FDF7D9FA0220FDF74EFAFC
:1033F00001213046FDF756FA0CB070BD08000240BE
:10340000BC000020402401401CB501214804FEF707
:103410009BFC6846FDF7D6FE042000900320694619
:1034200008710020887148710120C8710920C00608
:10343000FDF778FE1CBD0000F0B58BB00121022025
:10344000FEF78EFC0121C802FEF7A2FC012108460E
:10345000FEF786FC01214804FEF776FC04A8FDF780
:10346000B1FE0221684604910175032141750024D3
:103470000925C475ED0604A92846FDF753FE02226E
:1034800001212846FDF786FE0F21684601730125BC
:103490008573447303A8FEF7F7FB10216846017398
:1034A0008573457303A8FEF7EFFB2548FFF7E4FD9E
:1034B0006846FFF7EFFE6846048144800A262F27FE
:1034C00001960780847269461D48FFF7A9FE012214
:1034D00011461B48FFF742FE01211948FFF7C2FDC4
:1034E000A807FFF7C9FD6846FFF7D4FE6846448089
:1034F0000196078084726946A807FFF791FE602154
:103500006846018345830896848406A9A807FFF7C7
:103510002DFE0821C806FFF771FE01218807FFF77D
:1035200095FD012211469007FFF718FE202148065D
:10353000FFF76EFE01218807FFF794FD0BB0F0BD89
:1035400000040040FDF756FE264C274D607A284EB9
:10355000400840006072A18B24488B001A1836681E
:103560001660C0582A68491C121888B22A60A083C5
:10357000802804D90020A0830120607102E06079D6
:10358000002804D000206071D109A1622860FFF7F3
:103590008BFC0926F606174F15E00121002249028F
:1035A0003046FDF71BFEFF21002201313046FDF7BA
:1035B00015FEE16BA06B401AB84204D30020E07105
:1035C0006063A07202E0E0790028E6D1FDF71AFA04
:1035D000FCF7A2FEA0793328B8D100F0BBF800F0C8
:1035E0004BF8B3E7280000200C0500200C01002058
:1035F00008000020204E000030B5016801250B4670
:103600000C46AA00825814198A4200D211469A42E6
:1036100000D913466D1C042DF3DBC818201AC10F06
:103620000818401030BD000010B5FEF7D3FBFFF7BF
:103630009BFA00F083F90E48FEF726FCFDF706F82A
:10364000FDF798FEFCF760FFFF20F530401E00B24A
:103650000028FBDCFDF7CCFEFDF700FD0549002846
:10366000C87003D0FFF76EFF002010BDFEE700001A
:10367000C800002000000020F8B5304C304DA07A82
:1036800068703048C079012802D1E079012853D010
:103690002D48C07901284FD02C48294EC0790027E9
:1036A0000C36012848D03DE0FDF772FF0A20205E6D
:1036B00069788842207A30D0202833D10321618173
:1036C00030781F2806D0202806D0212806D02228AE
:1036D00007D007E02F7005E0012000E002202870ED
:1036E00000E02970FDF7CAFF207A20281AD10A20AD
:1036F000205E042813DB6781E77131781448FFF7F7
:10370000DAFD13480221715E0A30FFF7D4FD10483C
:10371000A9681430FFF7CFFD04E0202802D16089AA
:103720000328DFD0E079012803D1A169206988420C
:10373000BAD2207A2128B7D0F8BD00004005002079
:103740008400002080050020200500206005002066
:103750000A700008F8B5012409256402ED06214627
:103760002846FDF727FD024621462846FDF736FD8F
:10377000194CE07901282DD11848C179012929D0A7
:103780000027174D174EFCF705FD7D20C000FFF701
:103790008AFD19E002206968FFF716F9207A2128CE
:1037A00012D1E079012815D16089A08120202072F2
:1037B0000D491F204F8108727781084930724F816F
:1037C00008722F70FDF756FD207A2028E2D0E079AC
:1037D0000128D8D0F8BD00002005002040050020B9
:1037E00098000020800500206005002030B5C20749
:1037F0000121002A02D01F4A916102E01D4A2032B5
:1038000011811D491D4A1E4B840701D5916100E0BD
:1038100019811C4C450701D5946100E01C811A4CAC
:10382000050701D5946100E01C81184C184A194B1A
:10383000C50601D5946100E01C81174C850601D5B1
:10384000946100E01C81154C450601D5946100E0AF
:103850001C8105060824002D02DA114DAC6102E03E
:103860000F4D20352C81C00501D5916130BD1981E6
:1038700030BD00000014004800800000000800482F
:103880002008004800400000002000000004000064
:103890000000004820000048000800000010000060
:1038A0000004004870B50446204DC00701D0002236
:1038B00000E0012280212846FDF790FCA00701D5F9
:1038C000002200E0012220212846FDF787FC18484D
:1038D000610701D5002200E001220221FDF77EFCF4
:1038E000200701D5002200E0012210212846FDF723
:1038F00075FCE00601D5002200E0012240212846A7
:10390000FDF76CFC0B49A00601D5002200E0012266
:103910002846FDF763FC0849600601D5002200E057
:1039200001222846FDF75AFC70BD00000004004843
:1039300000140048000100000002000010B5FFF76D
:1039400063FDFFF7DDFCFFF71FFDFFF775FD10BD01
:103950000100020004000800100020004000800068
:1039600000013F0030005B00790074006D006F00C3
:1039700038007F007D007E0067000F0073004F005D
:103980004E0040006300620023006D00470000000D
:1039900007005E004E00760039000E0001000200B4
:1039A000040008001000200040008000FF0000001C
:1039B00037000000D439000800000020BC000000DF
:1039C000E0320008903A0008BC000020E408000043
:1039D000F0320008000000000000000000000000BD
:1039E000ACF7FF1F240000200000000000000000D2
:1039F0000000000000000000431910190000010041
:103A00000000330000000000000000000000320051
:103A1000E803E803BC020000000000000000000012
:103A20001700000000000000E80300000000000094
:103A30000000000000000000000000000000000086
:103A4000000000000001010101010101010100006D
:103A50000000000000000000000000000000000066
:103A6000E80300001F000A00000000000000000042
:103A70000000000000000000000000000000000046
:103A80000000000001020304010203040607080904
:04000005080000B13E
:00000001FF
