:020000040800F2
:10000000A0090020D5000008AD1C000899130008C5
:1000100000000000000000000000000000000000E0
:100020000000000000000000000000003130000867
:100030000000000000000000011D0008E53100087C
:100040000501000805010008050100080501000878
:100050000501000805010008050100080501000868
:10006000050100083D07000805010008050100081A
:10007000050100084932000805010008693200083E
:100080008532000805010008000000000501000895
:100090000501000805010008050100080501000828
:1000A0000501000805010008050100080501000818
:1000B0000501000800000000050100080000000024
:1000C0000348854600F05CF800480047513A0008B4
:1000D000A00900200C4880F308880C480168090E2C
:1000E0000B4A914205D10B480B4901600B480C4962
:1000F00001600C4880470C480047FEE7FEE7FEE73A
:10010000FEE7FEE7FEE70000A00900200400000073
:100110001F00000018100240010000000000014014
:1001200000000000E9310008C100000830B50B46AE
:10013000014600202022012409E00D46D5409D42C1
:1001400005D31D469540491B254695404019154647
:10015000521E002DF1DC30BD70B50024254600286C
:1001600001DA01244042002901DA01254942FFF762
:10017000DDFFAC4200D04042002C00D0494270BDAF
:10018000064C0125064E05E0E36807CC2B430C3CEA
:1001900098471034B442F7D3FFF796FF503E00085B
:1001A000703E0008F8B5194D0026194C194F6E60C5
:1001B00027E019480178002923D006701348001D54
:1001C00001F01CF87D206968C000814202D92068D6
:1001D000401E03E0814202D22068401C20600F488C
:1001E0002168814201DB206002E0002900DC2660FA
:1001F000208881B2002000F0FDF90121002000F0EC
:1002000003FA6868C0196528D3D2F8BD98000020A9
:10021000580000204AFCFFFF00000020FF0F0000F4
:10022000836A0B438362426170470029816801D071
:10023000012200E002221143816070470029C16859
:1002400002D00122114301E049084900C160704712
:10025000C26802239A43C260C2680A43C260704700
:10026000064910B5884208D144150121204601F005
:10027000CDFD0021204601F0C9FD10BD0024014044
:10028000826800210123DB071A4382600F231B03CE
:100290008268491CD20FD207994201D0002AF7D1B7
:1002A0008168002901DB006C70470020704702461E
:1002B0000020CB0104D5926801231B069A4300E07D
:1002C00012680A4200D001207047000030B5C368B0
:1002D000084A8C6813400A680D792243CC686D0384
:1002E0002C4322430C69496922430A431A43C260E2
:1002F00030BD000003D2FFFF012212030029C168B4
:1003000001D0114300E09143C1607047816804222D
:100310001143816070470021016001718160C160FB
:100320000161416170470000F8B5574D287A2128D6
:100330007ED156483321027A1F270026544C212AA9
:1003400002D1C079012804D05248027A212A20D053
:100350007BE0A079332802D0A1716E8107E03420C0
:10036000A071FAE7012000F0ADF8012020724648A4
:1003700001F0E2FE012804D1444801F0DDFE01282D
:10038000F0D0A179444803F060F92F726E813F48A4
:1003900077E04048C079012857D17D203F4AC0000E
:1003A0001060A082A1713E490A220F704A80E0626B
:1003B000322060820120A07004E0022000F082F868
:1003C00001202072304801F0B7FE012804D13148E5
:1003D00001F0B2FE0128F0D031480178314803F035
:1003E00034F92F480221415E2F4803F02EF92B48A3
:1003F00001682E4803F029F91421615E2C4803F0AE
:1004000024F92C48E16A03F020F9A179224803F08D
:100410001CF9A178284803F018F9618A274803F0ED
:1004200014F92F722E611B486E810772468100E01D
:1004300029E0A08D81B2002000F0DCF8012100202D
:1004400000F0E2F8287A21281DD11D48017A2129DF
:1004500019D1C079012816D1266304E0032000F0E9
:1004600031F801202072084801F066FE012804D10D
:10047000134801F061FE0128F0D02F722E61104860
:100480006E8146810772F8BD40050020800500207E
:100490002C0000202005002000A800088C0000206F
:1004A000900000200094000800980008009C0008BC
:1004B00000A0000800A4000800AC000800B000087C
:1004C0006005002070B500221449012805D047239B
:1004D00002280ED0032813D018E011480F24057805
:1004E000632007230C704870332D8B700DD137209B
:1004F00004E00B700B20487062238B70C87005E01D
:100500000B706D2048700E208870CA700A714A7195
:100510008A71CA7101F0B2FE70BD0000140500209E
:1005200032000020FEB5304C2E4802212060A18010
:100530000D23A371002161812161E17115272777C6
:100540001F222272294E6422A6616261254620354F
:10055000012212032860AA80AB7169812961E971C7
:100560002F771F222A72AE6164226A6122464032CE
:100570000126B60310609680937151811161D1718B
:1005800017771F261672642656617D2636019661FE
:1005900016462036012252033060B280B371718159
:1005A0003161F17137771F223272642272617D22CC
:1005B0001201B2610E4A00926A4611715171022114
:1005C000D171694600F0B2FD6946306800F0AEFDB9
:1005D0006946286800F0AAFD6946206800F0A6FD7B
:1005E000FEBD000000040048200500207017000038
:1005F00002700000034A08B510180830009001602E
:1006000008BD00000074004003090120044A98401E
:100610000029516801D0014300E0814351607047D7
:1006200000740040F8B5404C0021608A00B201F02F
:1006300089FE668A3D4D00960A20285E617C00276F
:10064000884202D0297A202903D0E879012803D0F2
:1006500005E060746F8118E0287A21280ED02020F0
:100660002872334E0A20305E617C884202D0307A94
:1006700020281DD0F07901281CD01EE06F812D4963
:100680002869884204D214210AE0761C6682E8E7D1
:100690002849C94342182749491E8A4205D20A21DE
:1006A000FFF744FD0029F0D0DBE7C007EDD0D8E725
:1006B000778113E0307A212809D020203072618AB6
:1006C0000098884224D0F07900281BD020E0778160
:1006D00018493069884205D214210BE0608A401E17
:1006E0006082ECE71349C94342181249491E8A4205
:1006F00005D20A21FFF71AFD0029EFD0DFE7C00776
:10070000ECD0DCE7E879002802D10B4802F09DFF2D
:10071000608AFF212D31884201D36182F8BD1E28F5
:10072000FCD81E206082F8BD2C000020600500204F
:10073000800500207017000000B00008F8B5022006
:1007400000F0F4F8002860D030480021304C415EC1
:10075000A078304B82009950401C0925A070ED060E
:100760008021284600F031FD002822D0002280217F
:10077000284600F03DFD0125AD070021284602F086
:1007800017FFA07803283DD90221284602F010FF68
:100790000026A6701F4803F043F91F490127081AD5
:1007A000A0601E4A2770915F1D4D884203D32F70B1
:1007B00007E00122DBE71B4A1288891A814200D335
:1007C0002E7019484168491C416002F033FC607882
:1007D00000280DD1287801280AD11448144A01684C
:1007E000491C01601268914202D312490F700660E1
:1007F00002F082FC0F4801780F48007802F020FADE
:1008000028786070022000F019F8F8BDBC000020C4
:1008100000000020FC000020FF0F0000400000202E
:100820002D0000203E000020900000205C000020F1
:100830008C000020300000202F000020C10001D5D6
:10084000024900E00249486070470000000402408D
:10085000000002400029016802D00122114301E09A
:10086000014A114001607047FEFF0000F0B50168C9
:100870002B4A114001600021016041608160C1602C
:100880002849284B08390F22984201D1486823E0B3
:10089000244CF0231434A04229D0224D1C012835C9
:1008A000A8422BD01F4E1D023C36B0422DD01D4F0A
:1008B0001E035037B8422FD01A4F6437B84204D1C4
:1008C00048681A0408E04860F0BD164F7837B8420F
:1008D00004D148680F2212061043F4E71249124F60
:1008E0000839B842D2D0104A1432904202D1486836
:1008F0001843E8E70C4A2832904202D14868204366
:10090000E1E7094A3C32904202D148682843DAE7DD
:10091000054A50329042D7D148683043D3E70000AF
:10092000FEFF0000080002400804024001460020CB
:10093000CA0001D5034A00E0034A12680A4200D007
:10094000012070470004024000000240002A0268B3
:1009500001D00A4300E08A430260704730B5036863
:100960000C4A0C6A13408A684D6922430C692C4377
:1009700022438C692243CC6922434C6A22438C6A0D
:1009800022431A430260CA6842600A68826049686A
:10099000C16030BD0F80FFFF0021016041608160B8
:1009A000C160016141618161C16101624162816235
:1009B00070470000F8B5564C0026A079554D564FAB
:1009C000332848D128460A21037A695E38462246F0
:1009D000C079D27A002902D0202B04D049E02673B6
:1009E000202B1BD045E0012906D0022908D003297D
:1009F0000AD004290DD013E000283AD1012006E0E6
:100A0000002836D1022002E0002832D103202073D2
:100A10002FE000282DD10420207306E0042902D005
:100A2000052905D025E0002823D1002A04D020E0A4
:100A300000281ED1012A1CD16E81267319E0287A64
:100A4000212805D1387A212802D1F879012826D029
:100A50000120FFF737FDE8790128F0D02F48C07951
:100A60000128ECD0F8790128E9D02D48C079012877
:100A7000E5D0217BE07A0A46024332D0012903D82F
:100A800001282ED001292FD0022930D0032936D0B9
:100A9000042903D1012801D1FFF7C4FDF8BDA079D5
:100AA000332804D03320A07126726E8105E03420F3
:100AB000A071FAE70120FFF705FD164801F03CFBA5
:100AC000012804D1144801F037FB0128F2D0A179A4
:100AD000144802F0BAFD1F2028726E817E813872A0
:100AE000B9E700F021F8F8BD002805D0F8BD0128CD
:100AF00002D0002808D0F8BD00F000FAF8BD0128A7
:100B000002D00028C8D0F8BD00F0E6F9F8BD00001A
:100B10002C0000204005002080050020200500203A
:100B20006005002000A8000810B50548C07A00281C
:100B300002D000F007F810BD00F032F910BD00003F
:100B40002C000020F8B58F4C8F4D2046217B028D64
:100B50000078002712B200290AD001297BD1182180
:100B6000615E01F095FFE879217A084374D0FDE0D9
:100B70001621615E01F00EFFE879217A084375D1F4
:100B8000A079332872D11626A65F26847F4D009661
:100B90000A20285EE17B884202D0297A202903D0EE
:100BA000E879012803D005E0E0736F8118E0287A26
:100BB00021280ED020202872754E0A20305EE17B5D
:100BC000884202D0307A20281DD0F07901281CD02C
:100BD0001EE06F816F492869884204D814210AE019
:100BE000761CE682E8E76B49C94342186949491E09
:100BF0008A4205D80A21FFF799FA0029F0D0DBE7ED
:100C0000C007EDD0D8E7778114E0307A21280AD0E8
:100C1000202030721621615E0098884226D0F0793B
:100C200000281DD022E077815A493069884205D2D8
:100C300014210BE0E08A401EE082EBE75549C943EE
:100C400042185449491E8A4207D20A21FFF76EFA18
:100C50000029EFD0DEE710E014E0C007EAD0D9E7C2
:100C6000E879002802D14C4802F0EFFC1621615EC1
:100C70007D204001814201DBE082F8BD6429FCDC7B
:100C80006420F9E7A079332870D11826A65F66841E
:100C90003E4D00960A20285EE17B884202D0297AE8
:100CA000202903D0E879012803D005E0E0736F81A3
:100CB00018E0287A21280ED020202872344E0A20ED
:100CC000305EE17B884202D0307A20281DD0F07956
:100CD00001281CD01EE06F812E492869884204D863
:100CE00014210AE0761C2683E8E72A49C943421802
:100CF0002849491E8A4205D80A21FFF717FA002918
:100D0000F0D0DBE7C007EDD0D8E7778114E0307A88
:100D100021280AD0202030721821615E0098884274
:100D200024D0F07900281BD020E077811949306960
:100D3000884205D214210BE0208B401E2083EBE774
:100D40001449C94342181349491E8A4205D20A214F
:100D5000FFF7ECF90029EFD0DEE7C007ECD0DBE7C6
:100D6000E879002802D10D4802F06FFC1821615E7D
:100D70007D204001814201DB2083F8BD6429FCDC39
:100D80006420F9E72C0000204005002060050020C9
:100D9000800500207017000000B4000800B80008AB
:100DA000F8B5474C208D01B21420205E01F07EFD85
:100DB0004448217AC07900270843002873D1A079DC
:100DC000332870D11426A65FE6833F4D00960A2093
:100DD000285EA17B884202D0297A202903D0E879B5
:100DE000012803D005E0A0736F8118E0287A21283C
:100DF0000ED020202872354E0A20305EA17B88421A
:100E000002D0307A20281DD0F07901281CD01EE0B5
:100E10006F812F492869884204D814210AE0761C82
:100E2000A682E8E72A49C94342182949491E8A424D
:100E300005D80A21FFF77AF90029F0D0DBE7C007CF
:100E4000EDD0D8E7778114E0307A21280AD020202D
:100E500030721421615E0098884224D0F079002815
:100E60001BD020E077811A493069884205D21421CD
:100E70000BE0A08A401EA082EBE71549C943421847
:100E80001349491E8A4205D20A21FFF74FF900296A
:100E9000EFD0DEE7C007ECD0DBE7E879002802D12D
:100EA0000C4802F0D2FB1420205E7D2149018842CB
:100EB00001DBA182F8BD0028FCDCA782F8BD0000A0
:100EC0002C00002040050020600500208005002047
:100ED0007017000000A0000810B50548008E00B291
:100EE00001F054FE0349002048810349488110BDA8
:100EF0002C0000208005002060050020F8B5184C6B
:100F0000A07801F087FE17480A21415E227C012665
:100F1000154F002591420CD0027A202A09D1217464
:100F20004581A078002817D0A570A178384602F036
:100F30008CFB0E480A21415E227C91420BD0017A43
:100F4000202908D14581A078002807D0A570A17874
:100F5000384602F07AFBF8BDA670E6E7A670F6E721
:100F60002C0000206005002000AC00088005002057
:100F70000149C8607047000000200240F0B50B270F
:100F800006463F04384600F05BF804280FD1084CB1
:100F900020690225284320616661206940210843B9
:100FA0002061384600F04CF82169A9432161F0BD69
:100FB0000020024008490420CA68D20701D001205D
:100FC0007047CA68D20601D502207047C968490730
:100FD000FBD5032070470000002002400248016951
:100FE000802211430161704700200240F0B50B27B9
:100FF00006463F040D46384600F022F804280CD17E
:10100000064C20690121084320613580384600F0F4
:1010100017F82169490849002161F0BD002002400C
:1010200004480169090603D5034941600349416049
:10103000704700000020024023016745AB89EFCDD7
:1010400000B50346FFF7B6FF02E0FFF7B3FF5B1EF4
:10105000012803D0002B00D1052000BD002BF4D1C6
:10106000FAE7000000B50D490D4800F01DF80B48E7
:1010700042780178120289188278C078120400063A
:10108000101809180548074A1C38016212684262A4
:101090008A4201D1012000BD002000BD1C000020BB
:1010A000F00000200080000830B51F4AD3681C798A
:1010B0000470D3681B7A4370D3685B788370D368FD
:1010C000DB78C370D3681D7805715D7945719D7AB1
:1010D0008571DD79C5715D7A05729D784572DD7A1D
:1010E00085729B79C37213691B7863400B70136917
:1010F00084795B78057A6340C4796C406340447AB4
:101100006340847A6340C47A63404B701369047906
:101110009B7863408B7012698378D27840785A400C
:101120004240CA7030BD000000000020F0B500222F
:10113000012423460D6893401D409D422AD10D791C
:10114000012D01D0022D12D1876855000326AE4033
:10115000B74387604E79AE4085682E4386608588A8
:101160009D43858085888B7993401D4385800668E3
:1011700055000323AB409E4306600E790768AE40DE
:101180003E430660C6689E43C660CB79AB40C568E7
:101190002B43C360521C102ACBD3F0BD4B07DB0E90
:1011A0009A40C90810B589000818016A0F249C40AC
:1011B000A1430162016A1143016210BD0246128A15
:1011C00000200A4200D0012070470246928A002087
:1011D0000A4200D0012070470449016000210171DA
:1011E000012242718171C17170470000FFFF000050
:1011F000002A01D081617047018570470149096863
:1012000001607047080000201048006810494880BD
:101210001048006810490860104801681048818231
:1012200010490968C1621049096881710F4909684C
:1012300081700F49096841820E490968C1820E49CF
:10124000096801830D490968C17270470098000858
:1012500090000020009C00088C00002000A00008E6
:101260002C00002000A4000800A8000800AC000822
:1012700000B0000800B4000800B8000800BC000876
:1012800010B5002404E00A21FEF750FF641CE4B20C
:101290000028F8D1204610BDF8B50020364C00904B
:1012A000364D206120E036480168002001F0E6FC60
:1012B00017E06846FFF7A2FF00982169884200D333
:1012C0002061304E3078C10608D5EF2108403070DB
:1012D0002B4800220168104601F038FD287A2128A9
:1012E00006D0E8790128E4D020780028DBD0F8BDCA
:1012F00024480178CA0637D5EF2211400170002238
:101300001146012001F022FD2EE02069A0606168F5
:1013100001260818400809277602FF06E0603146DA
:101320003846FFF74BFF024631463846FFF760FF6D
:10133000761031463846FFF741FF024631463846BF
:10134000FFF756FF1048E16801800120207000205F
:101350006881E8711F2028720C4802F076F90C4869
:1013600001680C4802F071F9287A2128B9D1E8798E
:101370000028BDD1C9E7000098000020200500200A
:101380006C000020350000204000002000A0000874
:101390005800002000A40008FEE700007CB50121F1
:1013A000480400F003FD0121880400F0FFFC012146
:1013B000C80400F0FBFC0121080500F0F7FC012146
:1013C000480500F0F3FC0121880500F0EFFC6846B9
:1013D000FFF702FF03200002009001206946087118
:1013E00000248C7103224A710925C871ED06284634
:1013F000FFF79CFE69462846FFF798FE0120C002D1
:10140000009069460C714C71CC710248FFF78EFE5A
:101410007CBD00000004004810B55D2000F022FEF5
:10142000002801D000F0FEFC074800F02BF8042053
:1014300000F01CF87D20000100F01EF800F00EF80E
:1014400000F004F810BD00005555000002490148A5
:1014500008607047CCCC00000030004002490148D1
:1014600008607047AAAA00000030004001494860A7
:10147000704700000030004001498860704700005C
:101480000030004001490860704700000030004013
:10149000F8B5484800F050FE464C012500260128CA
:1014A00005D0204600F048FE002805D005E0206960
:1014B000401C2061E57100E0E6712069002802D03F
:1014C000E179002905D0A169884205D9E079012890
:1014D00002D1384800F015FC3648203800F02CFEC8
:1014E000344F203F012805D0384600F025FE002863
:1014F00005D005E03869401C3861FD7100E0FE71DF
:101500003869002802D0F979002905D0A1698842FC
:1015100006D9F879012803D12648203800F0F1FBDC
:101520002448203000F008FE224C2034012805D049
:10153000204600F001FE002805D005E02069401C8F
:101540002061E57100E0E6712069002802D0E179B0
:10155000002905D0A169884206D9E079012803D184
:101560001448203000F0CDFB1248403000F0E4FD7C
:10157000104F4037012805D0384600F0DDFD002827
:1015800005D005E03869401C3861FD7100E0FE714E
:101590003869002802D0F979002905D0A16988426C
:1015A00006D9F879012803D10248403000F0A9FBA0
:1015B000F8BD000040050020F8B5354CA06800F0EB
:1015C0007DFE34480A21344E415EA2780025F7435F
:1015D000914202D0027A202A03D0C179012903D096
:1015E00005E0A170458117E0017A21290ED0202164
:1015F00001722A480A21415EA278914202D0017A02
:1016000020291BD0C17901291AD01CE0458100692D
:10161000B04205D2142109E0A068401CA060E8E7B0
:101620001D49C219491E8A4205D20A21FEF77EFDD4
:101630000029F1D0DDE7C007EED0DAE7458110E000
:10164000017A212907D020210172A06801281ADC23
:101650000120A060F8BD45810069B04205D2142187
:1016600009E0A068401EA060EFE70B49C219491EBF
:101670008A4205D20A21FEF759FD0029F1D0E4E79C
:10168000C007EED0E1E706498842E3DBA160F8BD80
:1016900084000020600500207017000080050020F5
:1016A000FFFF0000F8B55B4D5B4E5C4F5C4C29E0E2
:1016B00000F0EAFA0A20285EE17888420CD0297A04
:1016C000202909D1E070002068812178491C49B2A5
:1016D0002170032900DD20700A20305EE178884205
:1016E0000CD0307A202809D1002070812078401E4B
:1016F00040B22070002801DA032020700A20385EF2
:1017000004282BDA20780028D2D027E000F08AF8CD
:101710000A21695EE07881420BD0297A202908D11C
:10172000002169812278521C52B22270032A00DD06
:1017300021700A21715E81420CD0307A202809D1B3
:10174000002070812078401E40B22070002801DA0D
:10175000032020700A20385E04282BDC2078012822
:10176000D4D027E000F01EF90A21695EE0788142BA
:101770000BD0297A202908D1002169812278521CB6
:1017800052B22270032A00DD21700A21715E81426B
:101790000CD0307A202809D1002070812078401E9A
:1017A00040B22070002801DA032020700A20385E41
:1017B00004282BDC20780228D4D027E000F0ACF9F4
:1017C0000A20285EE17888420BD0287A202808D1A8
:1017D00000226A812078401C40B22070032800DD7E
:1017E00022700A20305E88420CD0307A202809D13D
:1017F000002070812078401E40B22070002801DA5D
:10180000032020700A20385E042802DC2078032898
:10181000D4D0F8BD600500208005002040050020E0
:1018200084000020F8B5584CEF2720780025C10629
:10183000564E002903DA3840207000F009FE9AE085
:101840005349202008705348C079002803D15248DA
:10185000C079002807D020784D49384020700220F8
:10186000085E002108E02078C10607D538402070C6
:1018700047490220085E012100F00AFE444A45481B
:101880000A210C3A415E1279914202D0027A202A52
:1018900003D0C179012909D00BE03D4A0C3A1171FE
:1018A00045813B484188491C418004E0017A212957
:1018B00010D020210172364937480A220C39825E45
:1018C00009798A4202D0017A20291FD0C1790129E1
:1018D0001ED020E0458100693049884206D214219B
:1018E0000CE02B494888401C4880E4E72B49C94359
:1018F00042182A49491E8A4205D20A21FEF716FCDF
:101900000029EED0D7E7C007EBD0D4E7458116E039
:10191000017A212909D0202101721D480222825E0C
:101920001F498A4224DB418025E0458100691B492B
:10193000884209D21421FEF7F9FB0029EDD11448A1
:101940004188491E4180E8E71449C94342181349B8
:10195000491E8A4209D20A21FEF7E8FB0029DCD1A0
:101960000B494888401E4880D7E7C007F8D0D4E725
:10197000002A00DC4580307A202803D170890428B1
:1019800000D15DE7F8BD00003500002040050020D3
:1019900090000020600500208005002070170000E6
:1019A0000F270000F8B5554CEF2720780025C10619
:1019B000534E002903DA3840207000F0EFFD94E028
:1019C0005048212101705048C079002803D14F4868
:1019D000C079002808D02078DF21084020704949CC
:1019E0000220085E002108E02078C10607D53840B3
:1019F000207044490220085E012100F0EFFD414AB9
:101A000041480A210C3A415E5279914202D0027A51
:101A1000202A03D0C179012905D007E0394A0C3AC0
:101A2000517145811AE0017A212910D020210172DB
:101A3000344936480A220C39825E49798A4202D0FA
:101A4000017A20291FD0C179012922D024E04581C3
:101A500000692F49884206D214210CE029484188A8
:101A6000491C4180E4E72A49C94342182849491ED4
:101A70008A4205D20A21FEF759FB0029EED0D7E7AA
:101A8000C007EBD0D4E71F4945814888401E4880F5
:101A900004E0017A212909D020210172194802228B
:101AA000825E1C498A421DDB41801EE0458100693F
:101AB0001749884206D214210CE012484188491E79
:101AC0004180EBE71249C94342181149491E8A4235
:101AD00005D20A21FEF72AFB0029EED0DEE7C00777
:101AE000EBD0DBE7002A00DC4580307A202803D1E8
:101AF0007089042800D163E7F8BD0000350000209C
:101B00004005002090000020600500208005002096
:101B1000701700000F270000F8B5544CEF2720780D
:101B20000025C106524E002903DA3840207000F02B
:101B3000DBFD93E04F48222101704F48C079002817
:101B400003D14E48C079002807D020784949384051
:101B500020700220085E002108E02078C10607D529
:101B60003840207043490220085E012100F0DCFD6E
:101B7000404A41480A210C3A415E9279914202D092
:101B8000027A202A03D0C179012905D007E0394A19
:101B90000C3A917145811AE0017A212910D0202157
:101BA0000172344935480A220C39825E89798A42A9
:101BB00002D0017A20291FD0C17901291ED020E04E
:101BC000458100692E49884206D214210CE029483B
:101BD0004188491C4180E4E72949C9434218284902
:101BE000491E8A4205D20A21FEF7A0FA0029EED04A
:101BF000D7E7C007EBD0D4E7458127E0017A212958
:101C000009D0202101721B480222825E1D498A42AE
:101C100021DB418022E0458100691949884206D2D2
:101C200014210CE013484188491E4180EBE7144918
:101C3000C94342181249491E8A4205D20A21FEF7B9
:101C400075FA0029EED0DEE7C007DCD109494888E3
:101C5000401E4880D7E7002A00DC4580307A2028E3
:101C600003D17089042800D164E7F8BD3500002055
:101C70004005002090000020600500208005002025
:101C8000701700000F27000010B506480178CA063B
:101C900004D5EF221140017000F0CCFD02491F2055
:101CA000087010BD35000020900000207047000033
:101CB00030B5837801210278002B15D094080E4BA3
:101CC000A400E41823689207D50EFF22AA4093438C
:101CD00042789207120EAA401A4322600078C0068A
:101CE000C00E8140054804E0D006C00E8140034884
:101CF0008030016030BD000000E400E000E100E061
:101D0000704730B582790021212320240D2A09D083
:101D10000B2A14D00C2A11D184690269A2420DD376
:101D2000037207E085690269AA4208D30372C27987
:101D3000002A03D101614189491C418130BD0472EF
:101D4000F8E7000010B50C4801680C4C01221204A1
:101D50006161914201D300216161491C616101F01F
:101D600074FC3220401E00B20028FBDC60690128B0
:101D700001DC00F0EFF910BD009000080000002029
:101D800009494A6801239B039A434A604A6883B21F
:101D90001A434A600A6B8B159A430A630A6B000C5C
:101DA00002430A637047000000100240044A002901
:101DB000516901D0014300E0814351617047000047
:101DC00000100240044A0029D16901D0014300E01B
:101DD0008143D1617047000000100240044A00298D
:101DE000116901D0014300E0814311617047000097
:101DF00000100240044A0029916901D0014300E02B
:101E0000814391617047000000100240044A00299C
:101E1000D16801D0014300E08143D16070470000E8
:101E2000001002400348416A012212061143416238
:101E3000704700000010024010B500F029F80120A2
:101E400000F03CF9012000F00DF90028FAD0002044
:101E500000F02AF9002000F03FF90521C904002014
:101E600000F052F9012000F041F90848FFF788FF1F
:101E7000192000F0F7F80028FAD0022000F052F9FB
:101E800000F00AF90828FBD110BD00000040000155
:101E9000124801680122114301604168104A114053
:101EA000416001680F4A11400160016801229204FB
:101EB0009143016041683F22120491434160C16A2D
:101EC00009090901C162016B074A11400163416BB5
:101ED00049084900416300218160704700100240B9
:101EE0000CB8FFF8FFFFF6FEACFEF0FFF8B5564D5C
:101EF0000446686800210C22544E104005D0042886
:101F000003D0082803D00C281AD026601AE069688C
:101F1000686803228902D2030F0F1040BF1C0028FB
:101F20000AD0E86A0107090F3046491CFEF7FEF89F
:101F300078430146216005E0454839464143F9E7C9
:101F4000444820606868444F0006000F3B5C2068EE
:101F50000246DA4062606B685B055B0FFB5CDA404F
:101F6000A2602B6BDB0501D43C4B05E06B685B0486
:101F700001D4530800E09308E3602B6B5F06384BF5
:101F800003D4374F1237276100E023612F6BFF0620
:101F900001D4666100E060612F6BBF070ED02F6B2C
:101FA000BF07BF0F012F0BD02F6BBF07BF0F022F33
:101FB00008D02F6BFF43BF0706D006E0A26104E004
:101FC000A06102E0A36100E0A6612F6BBF03BF0F19
:101FD0000FD02F6BBF03BF0F012F0CD02F6BBF0390
:101FE000BF0F022F09D02F6BBF03BF0F032F06D0E7
:101FF00006E0E26104E0E06102E0E36100E0E66146
:102000002F6B3F03BF0F0FD02A6B1203920F012AD1
:102010000CD0286B0003800F022809D0286B000326
:10202000800F032806D006E0226204E0206202E06E
:10203000236200E02662286B000602D40548606235
:10204000F8BD6162F8BD00000010024000127A0085
:1020500000093D00006CDC02AC000020809FD50030
:1020600000800000034600200A495A090CD0012ACA
:102070000CD0022A0CD0496BDA06D20E0123934011
:102080000B4200D0012070470968F5E7096AF3E7C1
:10209000496AF1E700100240024840680C210840FC
:1020A0007047000000100240034A5168F023994332
:1020B00001435160704700000010024005490028AC
:1020C000086802D00122104301E040084000086087
:1020D0007047000000100240034A516807231B02AA
:1020E00099430143516070470010024001220549A5
:1020F00012060028086801D0104300E090430860F1
:10210000704700000010024010B5054A53687B2458
:10211000E403A3435360536808430343536010BD73
:1021200000100240034A5168890889000143516048
:10213000704700000010024010B504468188006816
:10214000FFF73CF8217F152902D1012800D000209B
:1021500010BD0000F8B51F25384E0A20357070807C
:102160007D20374FC000374C3860A082E0623320BA
:10217000A0710120A070322060822946324801F00F
:1021800064FA322001F059FA0221715E2F4801F001
:102190005CFA322001F051FA2D48396801F055FA05
:1021A000322001F04AFA1421615E2A4801F04DFA0A
:1021B000322001F042FA2848E16A01F046FA322062
:1021C00001F03BFAA179254801F03FFA322001F0F5
:1021D00034FAA178224801F038FA322001F02DFAC1
:1021E000618A204801F031FA322001F026FA1621E6
:1021F000615E1D4801F029FA322001F01EFA182113
:10220000615E1A4801F021FA322001F016FAE17AF3
:10221000174801F01AFA174800210572016141813F
:10222000154805724181A08D81B20020FEF7E2F9C8
:1022300001210020FEF7E8F9F8BD00009000002021
:102240008C0000202C00002000940008009800085A
:10225000009C000800A0000800A4000800A80008D6
:1022600000AC000800B0000800B4000800B8000886
:1022700000BC0008400500202005002070B50D4C72
:102280000B4821782546405C0C350B4A28704900E4
:10229000515A696001F056FD686801F0FDFC207834
:1022A000411C2170082801D30020207070BD00005F
:1022B0001405002070000020EC3D0008F1B50098E6
:1022C000FEF7DEFF05460A210098FDF72FFF0246C4
:1022D00048001A4F1A4C385C00262070022D07D394
:1022E00010460A21FDF722FF4800385C607000E0CC
:1022F0006670032D0AD364210098FDF717FF0A21A9
:10230000FDF714FF4800385CA07000E0A670042DB3
:102310000BD37D21C9000098FDF708FF0A21FDF7C6
:1023200005FF4800385CE07000E0E670267123206D
:1023300060716D20A0710F20E071F8BDFE3D0008B6
:1023400014050020F3B581B00C460198FEF798FF04
:10235000074620463B4E00253B4C00283CD03B48DE
:10236000407A002830D00A210198FDF7F5FE490097
:10237000715C2170022F06D30A21FDF7EDFE4800A3
:10238000305C607000E06570032F0AD3642101980F
:10239000FDF7E2FE0A21FDF7DFFE4800305CA07089
:1023A00000E0A570042F0BD37D21C9000198FDF733
:1023B000D3FE0A21FDF7D0FE4800305CE07000E05B
:1023C000E57022484572FEBD25706570A5701F48F6
:1023D000E57001214172FEBD0A210198FDF7BCFEA6
:1023E0004900715C2170022F12D30A21FDF7B4FE5F
:1023F0004800305C6070032F0BD364210198FDF717
:10240000ABFE0A21FDF7A8FE4800305CA07001E099
:102410006570A570042F0BD37D21C9000198FDF7CD
:102420009BFE0A21FDF798FE4800305CE07000E05A
:10243000E5702571072060714F20A0717320E07155
:10244000FEBD0000FE3D00081405002070000020C5
:102450000D4840210170417081700C4AC170937821
:102460000021002B08D0732303714E234371837125
:102470006323C37191707047017141718171C171A2
:1024800001209070704700001405002070000020AB
:10249000F3B581B00C460198FEF7F2FE07462046E0
:1024A0003B4E00253B4C00283CD03B48C0780028E0
:1024B00030D00A210198FDF74FFE4900715C217070
:1024C000022F06D30A21FDF747FE4800305C6070FA
:1024D00000E06570032F0AD364210198FDF73CFEEC
:1024E0000A21FDF739FE4800305CA07000E0A570BD
:1024F000042F0BD37D21C9000198FDF72DFE0A2181
:10250000FDF72AFE4800305CE07000E0E5702248EC
:10251000C57034E025706570A5701F48E570012115
:10252000C1702CE00A210198FDF716FE4900715C8C
:102530002170022F12D30A21FDF70EFE4800305CF5
:102540006070032F0BD364210198FDF705FE0A216B
:10255000FDF702FE4800305CA07001E06570A570D8
:10256000042F0BD37D21C9000198FDF7F5FD0A2149
:10257000FDF7F2FD4800305CE07000E0E57073208C
:1025800020714E206071A0716320E071FEBD0000DB
:10259000FE3D0008140500207000002010B50D4815
:1025A00040220270427082700B4BC2701C79002175
:1025B000002C08D07324047142716222827163225C
:1025C000C271197110BD017141718171C171012018
:1025D000187110BD1405002070000020F3B581B003
:1025E0000C460198FEF74CFE074620463B4E002560
:1025F0003B4C00283CD03B484079002830D00A2191
:102600000198FDF7A9FD4900715C2170022F06D3E6
:102610000A21FDF7A1FD4800305C607000E06570A4
:10262000032F0AD364210198FDF796FD0A21FDF7D7
:1026300093FD4800305CA07000E0A570042F0BD320
:102640007D21C9000198FDF787FD0A21FDF784FD72
:102650004800305CE07000E0E5702248457134E0ED
:1026600025706570A5701F48E570012141712CE04F
:102670000A210198FDF770FD4900715C2170022F5D
:1026800012D30A21FDF768FD4800305C6070032F0B
:102690000BD364210198FDF75FFD0A21FDF75CFD76
:1026A0004800305CA07001E06570A570042F0BD36A
:1026B0007D21C9000198FDF74FFD0A21FDF74CFD72
:1026C0004800305CE07000E0E5707320207140202D
:1026D00060716220A0716320E071FEBDFE3D0008C4
:1026E00014050020700000200D4840210170417049
:1026F00081700C4AC17093790021002B09D04723C7
:10270000037163234371762383716D23C3719171C8
:102710007047017141718171C171012090717047E1
:102720001405002070000020F3B581B00C4601981C
:10273000FEF7A6FD074620463B4E00253B4C0028F1
:102740003CD03B48C079002830D00A210198FDF7E1
:1027500003FD4900715C2170022F06D30A21FDF7A9
:10276000FBFC4800305C607000E06570032F0AD30A
:1027700064210198FDF7F0FC0A21FDF7EDFC48000B
:10278000305CA07000E0A570042F0BD37D21C90040
:102790000198FDF7E1FC0A21FDF7DEFC4800305C02
:1027A000E07000E0E5702248C57134E02570657086
:1027B000A5701F48E5700121C1712CE00A21019824
:1027C000FDF7CAFC4900715C2170022F12D30A2167
:1027D000FDF7C2FC4800305C6070032F0BD364210E
:1027E0000198FDF7B9FC0A21FDF7B6FC4800305C02
:1027F000A07001E06570A570042F0BD37D21C90086
:102800000198FDF7A9FC0A21FDF7A6FC4800305C01
:10281000E07000E0E5704720207163206071762051
:10282000A0716D20E071FEBDFE3D00081405002082
:10283000700000200D4840210170417081700C4AE9
:10284000C17053780021002B08D04E2303714371CF
:10285000632383714723C3715170704701714171C4
:102860008171C17101205070704700001405002073
:102870007000002010B50C490F220A7147234F2227
:102880004B7173248A71CC71002805D07E200870AA
:102890004A700E228A7004E0002008704C708B7021
:1028A0006D20C87010BD000014050020F3B581B084
:1028B0000298FEF7E5FC07460198FEF7E1FC009060
:1028C0000A210298FDF748FC024648002F4D304C83
:1028D000285C00262070022F07D310460A21FDF73E
:1028E0003BFC4800285C607000E06670032F0AD350
:1028F00064210298FDF730FC0A21FDF72DFC480009
:10290000285CA07000E0A67038467D27FF000428F0
:102910000AD339460298FDF71FFC0A21FDF71CFC7B
:102920004800285CE07000E0E6700A210198FDF79D
:1029300013FC4900695C21710099022906D30A2120
:10294000FDF70AFC4800285C607100E066710098A1
:1029500003280AD364210198FDF7FEFB0A21FDF745
:10296000FBFB4800285CA07100E0A67100980428D9
:102970000AD339460198FDF7EFFB0A21FDF7ECFB7E
:102980004800285CE071FEBDE671FEBDFE3D00081A
:1029900014050020F7B582B00498FEF771FC009092
:1029A0000398FEF76DFC07460A210498FDF7D4FB57
:1029B0000246354E4800354C305C207000980025AA
:1029C000022807D310460A21FDF7C6FB4800305CF9
:1029D000607000E06570009803280AD364210498B1
:1029E000FDF7BAFB0A21FDF7B7FB4800305CA07089
:1029F00000E0A570009804280BD37D21C90004983D
:102A0000FDF7AAFB0A21FDF7A7FB4800305CE07048
:102A100000E0E570029800282FD00A210398FDF706
:102A20009BFB4900715C2171022F06D30A21FDF73F
:102A300093FB4800305C607100E06571032F0AD39E
:102A400064210398FDF788FB0A21FDF785FB480008
:102A5000305CA07100E0A571042F0CD37D21C9006A
:102A60000398FDF779FB0A21FDF776FB4800305CFF
:102A7000E07105B0F0BDE571FBE725710B206071D9
:102A80007620A071F7E70000FE3D00081405002045
:102A9000F7B582B00498FEF7F3FB00900398FEF7B9
:102AA000EFFB07460A210498FDF756FB0246354E18
:102AB0004800354C305C207000980025022807D370
:102AC00010460A21FDF748FB4800305C607000E0CA
:102AD0006570009803280AD364210498FDF73CFB35
:102AE0000A21FDF739FB4800305CA07000E0A570BA
:102AF000009804280BD37D21C9000498FDF72CFB16
:102B00000A21FDF729FB4800305CE07000E0E57029
:102B1000029800282FD00A210398FDF71DFB4900D9
:102B2000715C2171022F06D30A21FDF715FB4800C5
:102B3000305C607100E06571032F0AD36421039853
:102B4000FDF70AFB0A21FDF707FB4800305CA07186
:102B500000E0A571042F0CD37D21C9000398FDF777
:102B6000FBFA0A21FDF7F8FA4800305CE07105B085
:102B7000F0BDE571FBE72571632060710720A0714E
:102B8000F7E70000FE3D000814050020F1B50098AD
:102B9000FEF776FB05460A210098FDF7DDFA0246AE
:102BA00048001A4F1A4C385C00262070022D07D3BB
:102BB00010460A21FDF7D0FA4800385C607000E04A
:102BC0006670032D0AD364210098FDF7C5FA0A2127
:102BD000FDF7C2FA4800385CA07000E0A670042D32
:102BE0000BD37D21C9000098FDF7B6FA0A21FDF745
:102BF000B3FA4800385CE07000E0E67026712320EC
:102C000060715E20A0710F20E071F8BDFE3D0008EC
:102C10001405002010B5094900220A704A708A7014
:102C2000CA706224632240230C714A7100288B71A0
:102C300001D0072000E07320C87110BD14050020EA
:102C400010B50C46012109204902C006FEF7B6FA6C
:102C5000094A002802D0012806D001E0012C01D049
:102C6000002006E0302004E0002C01D0362000E0F7
:102C70000620107210BD000014050020F3B581B0CD
:102C800007460298FEF7FCFA00252D4C0646012F58
:102C900005D0022F1CD025706570A57046E0257008
:102CA0006570A5702748E570817A002909D0302128
:102CB0002171472161714F21A1716D21E1718572EF
:102CC000FEBD25716571A571E57101218172FEBDA1
:102CD0000A210298FDF72AFA49001B4F022E795C5F
:102CE000217006D30A21FDF721FA4800385C607094
:102CF00000E06570032E0AD364210298FDF716FAEE
:102D00000A21FDF713FA4800385CA07000E0A570B6
:102D1000042E0BD37D21C9000298FDF707FA0A2182
:102D2000FDF704FA4800385CE07000E0E570302000
:102D30002071472060714F20A0716D20E071FEBDB1
:102D40001405002070000020FE3D0008F7B507467E
:102D50000298FEF795FA00252D4C0646012F05D066
:102D6000022F1CD025706570A57046E02570657037
:102D7000A5702848E570C17A002909D05B2121712E
:102D8000472161714F21A1716D21E171C572FEBDB5
:102D900025716571A571E5710121C172FEBD0A2120
:102DA0000298FDF7C3F949001B4F022E795C217090
:102DB00006D30A21FDF7BAF94800385C607000E0DC
:102DC0006570032E0AD364210298FDF7AFF90A213A
:102DD000FDF7ACF94800385CA07000E0A570042E47
:102DE0000BD37D21C9000298FDF7A0F90A21FDF758
:102DF0009DF94800385CE07000E0E5705B202071D0
:102E0000472060714F20A0716D20E071FEBD000071
:102E10001405002070000020FE3D0008FEB50121D1
:102E20004804FEF7C3FF01218804FEF7BFFF01211C
:102E3000C804FEF7BBFF01210805FEF7B7FF01211B
:102E40004805FEF7B3FF01218805FEF7AFFF68468E
:102E5000FEF7C2F980200090012468460471002525
:102E6000857103264671C47109206946C006FEF7C4
:102E70005DF9A70268460097047185714671C471B7
:102E800009206946C006FEF751F9684600970471AB
:102E900085714571C47109206946C006FEF746F97F
:102EA000E002009009206946C006FEF73FF92003C2
:102EB000009009206946C006FEF738F9E00300904B
:102EC00009206946C006FEF731F9600300906846A4
:102ED000047185714571C47169465248FEF726F93F
:102EE000A003009069464F48FEF720F9E0030090E8
:102EF00069464C48FEF71AF96846009604718571D8
:102F00004571C47169464848FEF710F9694646485C
:102F10000094FEF70BF9402000906846047185711B
:102F200045710221C171414E69463046FEF7FEF8F7
:102F30002402694630460094FEF7F8F80820009015
:102F400069463046FEF7F2F865006946304600955E
:102F5000FEF7ECF88020009069463046FEF7E6F870
:102F60002020009069463046FEF7E0F810200090DF
:102F700069463046FEF7DAF801220920D103C0067F
:102F8000FEF736F9012209201103C006FEF730F9D9
:102F900001220920D102C006FEF72AF909200122E8
:102FA0003946C006FEF724F9012251031D48FEF7F9
:102FB0001FF9012291031B48FEF71AF90122D103E0
:102FC0001848FEF715F9012202211748FEF710F9FB
:102FD000012211461448FEF70BF901224021304628
:102FE000FEF706F9012221463046FEF701F90122DB
:102FF00008213046FEF7FCF8012229463046FEF74C
:10300000F7F8012280213046FEF7F2F80122202154
:103010003046FEF7EDF8012210213046FEF7E8F8C1
:10302000FEBD0000000800480014004800040048ED
:1030300070470000F8B52E48817A01292BD081789D
:103040004278914201D1012300E000232848294C15
:10305000C37025780121092000274902C0061F2DD1
:1030600011D026460222B25E7468214E766A7243FF
:10307000202D11D01F4E212D1AD0222D0BD11C4DE9
:10308000002B27D121E0002B01D0012200E00022FB
:10309000FEF7AEF86760F8BD002B05D00122FEF701
:1030A000A7F814484760F8BD9442FCD9002204E018
:1030B000002B05D09442F6D90122FEF799F8F8BD0D
:1030C0000022FEF795F87760F8BD6B7B012B01D0ED
:1030D0007760EBE7944205D20122FEF789F80120E0
:1030E0006873F8BD0022FEF783F86F73F8BD000027
:1030F0002C0000209000002070B50E4CA07A012812
:1031000017D02079FF2509260135F606002804D0BE
:10311000012229463046FEF76BF81A20205EFA2875
:1031200007DB002020716083024629463046FEF707
:103130005FF870BD2C00002013491120086013486F
:10314000416841604168416041687F22D2039143F8
:10315000416041680522D2041143416001680122A7
:1031600012061143016001688901FCD54168890894
:1031700089004160416802221143416041680907AA
:10318000890F0229FAD17047002002400010024046
:1031900070B5124C0125A07A01280AD0E902104826
:1031A000FEF70CF8002803D00020A072E07170BD7B
:1031B000A572606B6428FAD3E57109250121ED063B
:1031C000002249022846FEF713F8FF2100220131B0
:1031D0002846FEF70DF8A06BE06370BD2C000020C0
:1031E000000400487047000010B51448016801222F
:1031F000114301604168124A114041600168114A5F
:10320000114001600168012292049143016041680C
:103210003F22120491434160C16A09090901C16258
:10322000016BFF22543291430163416B490849000D
:10323000416300218160FFF77FFF10BD0010024055
:103240000CB8FFF8FFFFF6FE10B5064C0121204632
:1032500000F0FCF8002803D00121204600F076F8A9
:1032600010BD0000002C014010B501218C07204644
:1032700000F0ECF8002803D00121204600F066F8A9
:1032800010BD000070B5214E0121304600F0DEF87F
:10329000002839D01E4CA069401CA0610A21A069F9
:1032A000FCF744FF002500291BD11A4800780028AC
:1032B00003D019480188491C0180FEF7DFFFFEF7A3
:1032C000E7F816480168491C0160FEF7C7F8144882
:1032D00014490078002803D00868401C086000E00A
:1032E0000D60A069104988420AD310481022017865
:1032F00011430170A5610E4801220178514001700F
:103300000121304600F022F870BD000000040040AA
:103310000000002030000020460000206400002053
:1033200036000020600000203075000035000020CD
:103330002C00002080220029018801D0114300E0E8
:10334000914301807047C94301827047C94301829C
:1033500070470029018802D00122114301E0490889
:1033600049000180704740300029818803D0012244
:10337000D203114301E04904490C818070470000E9
:103380002A4910B5884202D10121C4143AE0012132
:103390008907884206D101210846FEF71FFD00215A
:1033A000012008E02249884208D101210220FEF7CD
:1033B00015FD00210220FEF711FD10BD1D498842B8
:1033C00006D101211020FEF709FD00211020F2E7AF
:1033D0001949884206D101212020FEF7FFFC002177
:1033E0002020E8E71549884207D1841501212046AD
:1033F000FEF7F4FC00212046DDE71149884209D19F
:1034000001210C042046FEF701FD00212046FEF7B5
:10341000FDFC10BD0B49884202D101214C04F1E7AB
:1034200009498842F5D101218C04EBE7002C0140C9
:103430000004004000100040001400400020004044
:103440000040014000440140004801400246138A08
:10345000002092890B400A40002B02D0002A00D0A5
:1034600001207047002A828901D00A4300E08A4384
:103470008281704730B5028C520852000284038C5E
:103480008288048B7025AC43A4080D88A4002543D2
:103490000224A3438C891C434B8823430F4CA04236
:1034A00008D00F4CA04205D00E4CA04202D00E4CCA
:1034B000A0420DD10824A343CC891C4304239C4380
:1034C0008B882343094C22400C8A14434A8A2243A6
:1034D0008280058389684163038430BD002C0140EC
:1034E000004001400044014000480140FFFC000052
:1034F000028B08239A430A430283704770B5028CFB
:1035000010239A430284048C8288038B1A4D2B402B
:103510000D782D062D0C1D4320239C438B891B0504
:103520001E0C4B8826431B051B0C144C3343A04236
:1035300002D0134EB04219D1124E32400E8AB60458
:10354000360C3243A04211D18024A343CC892405F8
:10355000240C1C4340239C438B881B051B0C2343DA
:10356000094C22404C8AA404240C22438280058307
:1035700089688163038470BDFF8C0000002C0140CA
:1035800000400140FFFB0000FFF70000028B034BEF
:1035900009021A401143018370470000FFF7000041
:1035A000828870239A43828082880A43828070478F
:1035B0008163704710B50288144B984206D00124ED
:1035C000A407A04202D0124CA04203D17024A2430F
:1035D0004C8822430F4CA04203D00F4C22400C8950
:1035E000224302804A68C2620A880285984208D053
:1035F0000A4A904205D00A4A904202D0094A9042B3
:1036000001D1897A01860121818210BD002C0140FF
:103610000004004000100040FFFC0000004001409A
:1036200000440140004801400021C943416000219D
:103630000180018141808172704700210A2250433C
:1036400000E0491C8842FCD8704770B50C4605461E
:10365000FDF7E6FC3520FDF78BFC2846FDF78EFCD8
:10366000A1B22846FDF7C2FC3520FDF781FCFDF72D
:10367000B5FC70BD02E008C8121F08C1002AFAD1CB
:1036800070477047002001E001C1121F002AFBD1E2
:103690007047000030B5012187B04802FEF7AAFB51
:1036A0001C4C2046FCF7DCFD6846FCF734FE00218C
:1036B0006846017180200390C0000091049105913B
:1036C000029069462046FCF701FE01212046FCF7E6
:1036D00013FE032208212046FCF7A2FD2046FCF73A
:1036E000CFFD01212046FCF7A0FD0B4D20462946C9
:1036F000FCF7DDFD0028F9D001212046FCF79EFDF6
:1037000002212046FCF7A4FD2046FCF7FFFD07B090
:1037100030BD0000002401400100000170B501210E
:103720008CB00846FEF742FB09216846017001256E
:10373000857000244470FEF7BBFA154E3046FDF745
:1037400095F801A8FDF728F9124802900394A80201
:1037500008900B94802006900495202009900E4834
:10376000019080150790059440010A9001A9304608
:10377000FDF7F4F8012202213046FDF7E7F80220B8
:10378000FDF75CF801213046FDF764F80CB070BD20
:1037900008000240BC000020402401401CB501216B
:1037A0004804FEF703FB6846FDF716FD082000906D
:1037B0000320694608710020887148710120C87192
:1037C0000920C006FDF7B2FC1CBD0000F0B58BB0AF
:1037D00001210220FEF7F6FA0121C802FEF70AFBDA
:1037E00001210846FEF7EEFA01214804FEF7DEFA51
:1037F00004A8FDF7F1FC0221684604910175032637
:10380000467500240925C475ED0604A92846FDF770
:103810008DFC022201212846FDF7C0FC0D216846DF
:10382000017301258573447303A8FEF741FA0F2144
:10383000684601738573457303A8FEF739FA1021B2
:10384000684601738573467303A8FEF731FA45484D
:10385000FFF796FD6846FFF7E7FE6846048144805F
:103860000A2001902F2768460780847269463D48E8
:10387000FFF7A0FE012211463A48FFF7F3FD0121B0
:103880003848FFF766FDA807FFF77AFD6846FFF79F
:10389000CBFE684644800A20019068460780847207
:1038A0006946A807FFF786FE6021684601834583C5
:1038B0000894848406A9A807FFF720FE0821C806FB
:1038C000FFF764FE01218807FFF734FD012211464E
:1038D0009007FFF7C7FD20214806FFF761FE012191
:1038E0008807FFF736FD684607804480192001905D
:1038F00068461D4F847269463846FFF75BFE6021BB
:10390000684601834583848384840821C1844901F6
:103910000185448506A938460896FFF7ABFD0821C6
:103920003846FFF7E5FD01213846FFF70CFD01227F
:1039300011463846FFF796FD01213846FFF7FAFC9D
:1039400010213846FFF72CFE01213846FFF7FEFC18
:1039500001213846FFF707FD01213846FFF7F9FC42
:103960000BB0F0BD00040040002C0140FDF74CFC02
:10397000264C274D607A284E400840006072A18B8B
:1039800024488B001A1836681660C0582A68491CEB
:10399000121888B22A60A083802804D90020A0834E
:1039A0000120607102E06079002804D0002060717D
:1039B000D109A1622860FFF7EBFB0926F606174F35
:1039C00015E00121002249023046FDF711FCFF21DC
:1039D000002201313046FDF70BFCE16BA06B401A71
:1039E000B84204D30020E0716063A07202E0E07985
:1039F0000028E6D1FCF7DEFFFCF796FCA07933281F
:103A0000B8D100F0FDF800F04BF8B3E72C0000202F
:103A10000C0500200C01002008000020204E0000B2
:103A200030B5016801250B460C46AA0082581419CE
:103A30008A4200D211469A4200D913466D1C042DC9
:103A4000F3DBC818201AC10F0818401030BD000061
:103A500010B5FEF7F1F9FFF7E1F900F0BDF90E48F6
:103A6000FEF744FAFDF79AFCFCF75CFDFF20F53009
:103A7000401E00B20028FBDCFDF7CEFCFDF7F2FA99
:103A800006490028C87005D0FEF75CF9FFF76EFF05
:103A9000002010BDFEE70000C8000020000000204C
:103AA000F8B54D484D4E817A4D4F7170F979012925
:103AB00002D1C17901297DD04A49C979012979D03A
:103AC00049490025C979012974D077E06581FDF75E
:103AD00073FD60890128FAD02BE0444C2078FEF772
:103AE000C9FE41480A21415E727891420CD0027AA7
:103AF000202A09D171704581207800280DD02570C9
:103B000021783B48FFF7A1FD0A20385E7178884292
:103B10000FD0387A20280CD102E001202070EFE786
:103B20007D812078002810D0257021783048FFF75B
:103B30008CFD294840890228CFD0274C6089032872
:103B4000207A05D0202839D135E001202070ECE71B
:103B5000202833D121480C3000781F2806D0202897
:103B600006D0212806D0222828D105E0357025E08E
:103B7000012002E0022000E0032030701EE0FDF78B
:103B800091FD207A202819D10A20205E042812DB1A
:103B90006581E571114C17480C342178FFF755FD0C
:103BA0000221615E1448FFF750FD1448B168FFF729
:103BB0004CFD03E00EE060890228E0D0064CE0797D
:103BC000012804D1A1692069884200D37EE7207AC8
:103BD0002128FBD0F8BD0000400500208400002013
:103BE000800500202005002060050020370000200F
:103BF00000BC00080094000800980008009C000821
:103C0000F8B5012409256402ED0621462846FDF792
:103C1000D5FA024621462846FDF7EAFA194CE07922
:103C200001282DD11848C179012929D00027174D25
:103C3000174EFCF7B7FA7D20C000FFF7FEFC19E035
:103C400002206968FFF71AF8207A212812D1E0795A
:103C5000012815D16089A081202020720D491F20E4
:103C60004F8108727781084930724F8108722F7036
:103C7000FDF712FB207A2028E2D0E0790128D8D085
:103C8000F8BD00002005002040050020980000201D
:103C9000800500206005002030B51F491F4A204BD9
:103CA000C40701D0916100E019811E4C850701D540
:103CB000946100E01C811C4C450701D5946100E033
:103CC0001C811A4C050701D5946100E01C81184C39
:103CD000184A194BC50601D5946100E01C81174CA8
:103CE000850601D5946100E01C81440601D59161EF
:103CF00000E01981124A0406022311492032002CE7
:103D000001DA8B6100E01381C3050120002B01DA89
:103D1000886130BD108130BD008000000000004887
:103D2000200000480010000000080000000400000F
:103D30000020000000080048200800480040000063
:103D40000014004870B50446204DC00701D0002281
:103D500000E0012240212846FDF74AFA1C49A0074D
:103D600001D5002200E001222846FDF741FA600754
:103D700001D5002200E0012208212846FDF738FA8B
:103D80001449200701D5002200E001222846FDF752
:103D90002FFAE00601D5002200E00122802128460A
:103DA000FDF726FAA00601D5002200E0012220211D
:103DB0002846FDF71DFA600601D5002200E0012229
:103DC00010212846FDF714FA70BD000000040048D9
:103DD000000100000002000010B5FFF7DFFCFFF754
:103DE00059FCFFF79BFCFFF7F1FC10BD010002003E
:103DF00004000800100020004000800000013F0087
:103E000030005B00790074006D006F0038007F00A7
:103E10007D007E0067000F0073004F004E004000E1
:103E20006300620023006D004700000007005E0091
:103E30004E0076000B000E00010002000400080096
:103E40001000200040008000FF000000370000004C
:103E5000703E000800000020BC000000743600081E
:103E60002C3F0008BC000020E40800008436000855
:103E7000000000000000000000000000ACF7FF1F81
:103E800028000020000000000000000000000000EA
:103E9000000000000000000043191019000001009C
:103EA00000003300000000000000000000003200AD
:103EB000E803E803BC02000000000000000000006E
:103EC0001700000000000000E803000000000000F0
:103ED00000000000000000000000000000000000E2
:103EE00000010101010101010101000000000000C9
:103EF000000000000000000000000000E8030000D7
:103F00001F000A0000000000000000000000000088
:103F100000000000000000000000000000000000A1
:0C3F200001020304010203040607080963
:04000005080000C12E
:00000001FF
