:020000040800F2
:10000000A0090020C5000008311C00081D130008CD
:1000100000000000000000000000000000000000E0
:10002000000000000000000000000000252E000875
:100030000000000000000000851C0008D92F000807
:10004000F5000008F5000008F5000008F5000008BC
:10005000F5000008F5000008F5000008F5000008AC
:100060000000000095070008F5000008F5000008F2
:10007000F50000083D300008F50000085D3000087C
:10008000793000080000000000000000F5000008C2
:1000900000000000F5000008F5000008F500000869
:1000A00000000000F500000800000000F500000856
:1000B0000348854600F05CF8004800470537000813
:1000C000A00900200C4880F308880C480168090E3C
:1000D0000B4A914205D10B480B4901600B480C4972
:1000E00001600C4880470C480047FEE7FEE7FEE74A
:1000F000FEE7FEE7FEE70000A00900200400000084
:100100001F00000018100240010000000000014024
:1001100000000000DD2F0008B100000830B50B46DC
:10012000014600202022012409E00D46D5409D42D1
:1001300005D31D469540491B254695404019154657
:10014000521E002DF1DC30BD70B50024254600287C
:1001500001DA01244042002901DA01254942FFF772
:10016000DDFFAC4200D04042002C00D0494270BDBF
:10017000064C0125064E05E0E36807CC2B430C3CFA
:1001800098471034B442F7D3FFF796FFE83A0008D7
:10019000083B0008F8B5194D0026194C194F6E6040
:1001A00027E019480178002923D006701348001D64
:1001B00001F00EF87D206968C000814202D92068F4
:1001C000401E03E0814202D22068401C20600F489C
:1001D0002168814201DB206002E0002900DC26600A
:1001E000208881B2002000F045FA0121002000F0B3
:1001F0004BFA6868C0196528D3D2F8BD9800002072
:10020000540000204AFCFFFF00000020FF0F000008
:10021000836A0B438362426170470029816801D081
:10022000012200E002221143816070470029C16869
:1002300002D00122114301E049084900C160704722
:10024000C26802239A43C260C2680A43C260704710
:10025000064910B5884208D144150121204601F015
:1002600079FD0021204601F075FD10BD00240140FC
:10027000826800210123DB071A4382600F231B03DE
:100280008268491CD20FD207994201D0002AF7D1C7
:100290008168002901DB006C70470020704702462E
:1002A0000020CB0104D5926801231B069A4300E08D
:1002B00012680A4200D001207047000030B5C368C0
:1002C000084A8C6813400A680D792243CC686D0394
:1002D0002C4322430C69496922430A431A43C260F2
:1002E00030BD000003D2FFFF012212030029C168C4
:1002F00001D0114300E09143C1607047816804223E
:100300001143816070470021016001718160C1600B
:100310000161416170470000F8B55B4D287A2128E2
:100320007DD15A483321027A1F270026584C212AB2
:1003300002D1C079012804D05648027A212A20D05F
:1003400082E0A079332802D0A1716E8107E03420C9
:10035000A071FAE7012000F0A7F8012020724A48B6
:1003600001F08EFE012804D1484801F089FE0128E1
:10037000F0D0A179484803F00CF82F726E81434801
:100380007EE04448C07901285ED17D20434AC00008
:100390001060A082A17142490A220F704A80E06277
:1003A000322060820120A07004E0022000F07CF87E
:1003B00001202072344801F063FE012804D1354841
:1003C00001F05EFE0128F0D035480178324832381D
:1003D00002F0DFFF32480221415E2F48283802F048
:1003E000D8FF2E4801682C481E3802F0D2FF2A4858
:1003F0001421615E143802F0CCFF2748E16A0A3804
:1004000002F0C7FFA179244802F0C3FF2248A17877
:100410000A3002F0BEFF2048618A143000E031E06B
:1004200002F0B7FF2F722E611A486E810772468163
:10043000A08D81B2002000F01DF90121002000F004
:1004400023F9287A21281DD11648017A212919D1AA
:10045000C079012816D1266304E0032000F024F8B7
:1004600001202072084801F00BFE012804D10D483C
:1004700001F006FE0128F0D02F722E6109486E812E
:1004800046810772F8BD000040050020800500206D
:1004900028000020200500203C7000088C0000206F
:1004A000900000206005002070B50022144901284A
:1004B00005D0472302280ED0032813D018E0114896
:1004C0000F240578632007230C704870332D8B7040
:1004D0000DD1372004E00B703920487062238B70F7
:1004E000C87005E00B706D2048700E208870CA70CF
:1004F0000A714A718A71CA7101F0D0FD70BD0000A5
:10050000140500202E000020FEB5314C2F4801219B
:1005100089022060A1800D23A371002161812161E6
:10052000E171152727771F2222722A4E6422A661C5
:10053000626125462035012212032860AA80AB7132
:1005400069812961E9712F771F222A72AE616422C5
:100550006A61224640320126B6031060968093718C
:1005600051811161D17117771F2616726426566169
:100570007D263601966116462036012252033060F0
:10058000B280B37171813161F17137771F2232729C
:10059000642272617D221201B2611D2292020092D8
:1005A0006A46117151710221D171694600F0AEFDA8
:1005B0006946306800F0AAFD6946286800F0A6FD8B
:1005C0006946206800F0A2FDFEBD0000000400485E
:1005D0002005002070170000054B0122824018689A
:1005E000002901D0104300E09043186070470000DC
:1005F000007400401CB50121480401F07BFB01217F
:10060000480701F083FB1020009003216846017128
:1006100000214171C17109206946C00600F076FDD4
:100620001CBD000030B5074C2368074A8240934345
:1006300024C92A430D6849680D432A4382401A435E
:10064000226030BD00740040FE0F00001FB5FFF7B0
:10065000D1FF3C20009000210B200002019103916A
:10066000029069460020FFF7DDFF01210020FFF71F
:10067000B3FF1FBD034A08B5101808300090016091
:1006800008BD00000074004003090120044A98409E
:100690000029516801D0014300E081435160704757
:1006A00000740040F8B5374C0021608A00B201F0B8
:1006B0005FFD35480A21354E415E627C0025F743D7
:1006C000914202D0027A202A03D0C179012903D0B5
:1006D00005E06174458117E0017A21290ED02021BF
:1006E00001722B480A21415E627C914202D0017A5C
:1006F00020291BD0C17901291AD01CE0458100694D
:10070000B04205D2142109E0608A401C6082E8E70B
:100710001E49C219491E8A4205D20A21FFF7FEFC72
:100720000029F1D0DDE7C007EED0DAE7458111E01E
:10073000017A212908D020210172608AFF212D3100
:10074000884219D36182F8BD45810069B04205D263
:10075000142109E0608A401E6082EEE70B49C2194D
:10076000491E8A4205D20A21FFF7D8FC0029F1D0A0
:10077000E3E7C007EED0E0E71E28E4D81E20608241
:10078000F8BD000028000020600500207017000060
:1007900080050020F8B5022000F0DCF8002844D0E5
:1007A00024480021244C415EA078244B8200401C48
:1007B000C0B29950A070032837D90026A6701846F9
:1007C00002F088FF1E490127081AA0601D4A277001
:1007D000915F1D4D884201D32F7005E01B4A12889E
:1007E000891A814200D32E7019484168491C416022
:1007F00002F01AFB607800280DD1287801280AD170
:100800001448154A0168491C01601268914202D3DC
:1008100012490F70066002F069FB10480178104819
:10082000007802F023F928786070022000F01AF8AE
:10083000F8BD0000BC00002000000020FC000020EB
:10084000FF0F00003C000020290000203A0000209B
:1008500090000020580000208C0000202C00002078
:100860002B000020C10001D5024900E00249486088
:1008700070470000000402400000024000290168A7
:1008800002D00122114301E0014A1140016070478A
:10089000FEFF0000F0B501682B4A11400160002105
:1008A000016041608160C1602849284B08390F22EE
:1008B000984201D1486823E0244CF0231434A0422C
:1008C00029D0224D1C012835A8422BD01F4E1D02D5
:1008D0003C36B0422DD01D4F1E035037B8422FD0AA
:1008E0001A4F6437B84204D148681A0408E04860D7
:1008F000F0BD164F7837B84204D148680F2212066F
:100900001043F4E71249124F0839B842D2D0104AC6
:100910001432904202D148681843E8E70C4A283262
:10092000904202D148682043E1E7094A3C329042B4
:1009300002D148682843DAE7054A50329042D7D1BD
:1009400048683043D3E70000FEFF00000800024083
:100950000804024001460020CA0001D5034A00E015
:10096000034A12680A4200D0012070470004024086
:1009700000000240002A026801D00A4300E08A43D6
:100980000260704730B503680C4A0C6A13408A68ED
:100990004D6922430C692C4322438C692243CC6964
:1009A00022434C6A22438C6A22431A430260CA687B
:1009B00042600A6882604968C16030BD0F80FFFFF5
:1009C0000021016041608160C1600161416181611C
:1009D000C16101624162816270470000F8B5564C06
:1009E0000026A079554D564F332848D128460A2174
:1009F000037A695E38462246C079D27A002902D04D
:100A0000202B04D049E02673202B1BD045E0012980
:100A100006D0022908D003290AD004290DD013E0FA
:100A200000283AD1012006E0002836D1022002E059
:100A3000002832D1032020732FE000282DD104207C
:100A4000207306E0042902D0052905D025E00028FE
:100A500023D1002A04D020E000281ED1012A1CD175
:100A60006E81267319E0287A212805D1387A212849
:100A700002D1F879012826D00120FFF715FDE87989
:100A80000128F0D02F48C0790128ECD0F87901284E
:100A9000E9D02D48C0790128E5D0217BE07A0A46CB
:100AA000024332D0012903D801282ED001292FD0AA
:100AB000022930D0032936D0042903D1012801D1DD
:100AC000FFF7F0FDF8BDA079332804D03320A071E2
:100AD00026726E8105E03420A071FAE70120FFF74D
:100AE000E3FC164801F0CCFA012804D1144801F0C7
:100AF000C7FA0128F2D0A179144802F04AFC1F205D
:100B000028726E817E813872B9E700F021F8F8BD55
:100B1000002805D0F8BD012802D0002808D0F8BD73
:100B200000F0D0F9F8BD012802D00028C8D0F8BDE7
:100B300000F0BEF9F8BD00002800002040050020AC
:100B40008005002020050020600500203C70000882
:100B500010B50548C07A002802D000F007F810BD93
:100B600000F00AF910BD000028000020F8B57D4C07
:100B70007D4D2046217B028D007800267B4F12B2EE
:100B800000290AD001295FD11821615E01F096FE8B
:100B9000E879217A084377D0BEE01621615E01F042
:100BA0000FFEE879217A084347D1A079332844D150
:100BB0001625655F25846E480A21415EE27B9142DD
:100BC00002D0027A202A03D0C179012903D005E09E
:100BD000E173468117E0017A21290ED020210172AC
:100BE00064480A21415EE27B914202D0017A2029C9
:100BF0001CD0C17901291BD01DE046810069B84293
:100C000004D814210AE06D1CE582E9E75749C9437D
:100C100042185649491E8A4205D80A21FFF77EFA32
:100C20000029F0D0DCE7C007EDD0D9E7468112E01B
:100C3000017A212909D0202101721621615E7D20CF
:100C4000400181421CDBE082F8BD46810069B84268
:100C500005D214210BE0E08A401EE082EDE7434913
:100C6000C94342184149491E8A4206D20A21FFF768
:100C700055FA0029EFD0E0E706E0C007EBD0DCE74B
:100C80006429E1DC6420DEE7A079332844D118250B
:100C9000655F658436480A21415EE27B914202D05D
:100CA000027A202A03D0C179012903D005E0E1733B
:100CB000468117E0017A21290ED0202101722D48AA
:100CC0000A21415EE27B914202D0017A20291CD0A8
:100CD000C17901291BD01DE046810069B84204D8C2
:100CE00014210AE06D1C2583E9E72049C943421815
:100CF0001E49491E8A4205D80A21FFF70FFA00292A
:100D0000F0D0DCE7C007EDD0D9E7468112E0017AE8
:100D1000212909D0202101721821615E7D20400126
:100D200081421BDB2083F8BD46810069B84205D2B1
:100D300014210BE0208B401E2083EDE70B49C943B3
:100D400042180A49491E8A4205D20A21FFF7E6F9EC
:100D50000029EFD0E0E7C007ECD0DDE76429E2DC52
:100D60006420DFE728000020400500207017000005
:100D70006005002080050020F8B5474C208D01B2A9
:100D80001420205E01F0A8FC4448217AC079002795
:100D90000843002873D1A079332870D11426A65FA8
:100DA000E6833F4D00960A20285EA17B884202D050
:100DB000297A202903D0E879012803D005E0A0731F
:100DC0006F8118E0287A21280ED020202872354E15
:100DD0000A20305EA17B884202D0307A20281DD0C4
:100DE000F07901281CD01EE06F812F4928698842C4
:100DF00004D814210AE0761CA682E8E72A49C943F0
:100E000042182949491E8A4205D80A21FFF786F966
:100E10000029F0D0DBE7C007EDD0D8E7778114E0F8
:100E2000307A21280AD0202030721421615E009887
:100E3000884224D0F07900281BD020E077811A491D
:100E40003069884205D214210BE0A08A401EA0829E
:100E5000EBE71549C94342181349491E8A4205D296
:100E60000A21FFF75BF90029EFD0DEE7C007ECD0DD
:100E7000DBE7E879002802D10C4802F08AFA142056
:100E8000205E7D214901884201DBA182F8BD002856
:100E9000FCDCA782F8BD00002800002040050020EF
:100EA00060050020800500207017000028700008F1
:100EB00010B50348008E00B201F07EFD10BD0000A9
:100EC00028000020F8B5184CA07801F0B9FD1748AB
:100ED0000A21415E227C0126154F002591420CD04B
:100EE000027A202A09D121744581A078002817D0E0
:100EF000A570A178384602F04CFA0E480A21415EEE
:100F0000227C91420BD0017A202908D14581A0781A
:100F1000002807D0A570A178384602F03AFAF8BD4B
:100F2000A670E6E7A670F6E728000020600500201E
:100F300046700008800500200149C8607047000025
:100F400000200240F0B50B2706463F04384600F06B
:100F500067F804280FD1084C206902252843206136
:100F600066612069402108432061384600F058F846
:100F70002169A9432161F0BD0020024008490420F5
:100F8000CA68D20701D001207047CA68D20601D5CD
:100F900002207047C9684907FBD50320704700004D
:100FA000002002400248016980221143016170471C
:100FB00000200240F8B5064600200B273F040090B1
:100FC0000D46384600F02CF8042815D10B4C20694A
:100FD0000121084320613580384600F021F80428BB
:100FE00006D1B61C280C00963080384600F018F860
:100FF0002169490849002161F8BD00000020024034
:1010000004480169090603D5034941600349416069
:10101000704700000020024023016745AB89EFCDF7
:1010200000B50346FFF7AAFF02E0FFF7A7FF5B1E2C
:10103000012803D0002B00D1052000BD002BF4D1E6
:10104000FAE7000000B50D490D4800F01DF80B4807
:1010500042780178120289188278C078120400065A
:10106000101809180548074A1838C1611268026249
:101070008A4201D1012000BD002000BD18000020DF
:10108000F00000200080000830B51F4AD3681C79AA
:101090000470D3681B7A4370D3685B788370D3681D
:1010A000DB78C370D3681D7805715D7945719D7AD1
:1010B0008571DD79C5715D7A05729D784572DD7A3D
:1010C00085729B79C37213691B7863400B70136937
:1010D00084795B78057A6340C4796C406340447AD4
:1010E0006340847A6340C47A63404B701369047927
:1010F0009B7863408B7012698378D27840785A402D
:101100004240CA7030BD000000000020F0B500224F
:10111000012423460D6893401D409D422AD10D793C
:10112000012D01D0022D12D1876855000326AE4053
:10113000B74387604E79AE4085682E4386608588C8
:101140009D43858085888B7993401D438580066803
:1011500055000323AB409E4306600E790768AE40FE
:101160003E430660C6689E43C660CB79AB40C56807
:101170002B43C360521C102ACBD3F0BD4B07DB0EB0
:101180009A40C90810B589000818016A0F249C40CC
:10119000A1430162016A1143016210BD0246128A35
:1011A00000200A4200D0012070470000044901607D
:1011B00000210171012242718171C17170470000EB
:1011C000FFFF0000002A01D0816170470185704750
:1011D00001490968016070470800002010B5084CFB
:1011E0000848216C491C216402F0D3F8A08D81B21B
:1011F0000020FFF73FFA01210020FFF745FA10BD5C
:10120000280000200070000810B5002404E00A2126
:10121000FEF784FF641CE4B20028F8D1204610BD1C
:10122000F8B50020364C0090364D206120E036485D
:101230000168002001F038FC17E06846FFF7C8FF9E
:1012400000982169884200D32061304E3078C10671
:1012500008D5EF21084030702B4800220168104665
:1012600001F08AFC287A212806D0E8790128E4D008
:1012700020780028DBD0F8BD24480178CA0638D58C
:10128000EF221140017000221146012001F074FC90
:101290002FE02069A060616801260818400809272E
:1012A0007602FF06E06031463846FFF777FF0246D8
:1012B00031463846FFF786FF761031463846FFF74D
:1012C0006DFF024631463846FFF77CFF1048E16863
:1012D00001800120207000206881E8711F202872A1
:1012E0000C4802F056F80C4801680A480A3002F02F
:1012F00050F8287A2128B8D1E8790028BCD1C8E76D
:1013000098000020200500206C0000203100002003
:101310003C0000202870000854000020FEE7000078
:101320007CB50121480400F0E5FC0121880400F0AF
:10133000E1FC0121C80400F0DDFC0121080500F0FA
:10134000D9FC0121480500F0D5FC0121880500F0F9
:10135000D1FC6846FFF72AFF03200002009001201D
:101360006946087100248C7103224A710925C871ED
:10137000ED062846FFF7CAFE69462846FFF7C6FE77
:101380000120C002009069460C714C71CC7102487A
:10139000FFF7BCFE7CBD00000004004810B55D20D6
:1013A00000F004FE002801D000F0E0FC074800F047
:1013B0002BF8042000F01CF87D20000100F01EF83E
:1013C00000F00EF800F004F810BD000055550000C4
:1013D0000249014808607047CCCC00000030004052
:1013E0000249014808607047AAAA00000030004086
:1013F00001494860704700000030004001498860A2
:10140000704700000030004001490860704700004C
:1014100000300040F8B5484800F032FE464C012547
:101420000026012805D0204600F02AFE002805D01D
:1014300005E02069401C2061E57100E0E67120694B
:10144000002802D0E179002905D0A169884205D998
:10145000E079012802D1384800F015FC36482038E0
:1014600000F00EFE344F203F012805D0384600F032
:1014700007FE002805D005E03869401C3861FD7181
:1014800000E0FE713869002802D0F979002905D002
:10149000A169884206D9F879012803D12648203865
:1014A00000F0F1FB2448203000F0EAFD224C20340B
:1014B000012805D0204600F0E3FD002805D005E016
:1014C0002069401C2061E57100E0E6712069002878
:1014D00002D0E179002905D0A169884206D9E079D6
:1014E000012803D11448203000F0CDFB12484030D1
:1014F00000F0C6FD104F4037012805D0384600F0F7
:10150000BFFD002805D005E03869401C3861FD7139
:1015100000E0FE713869002802D0F979002905D071
:10152000A169884206D9F879012803D102484030E0
:1015300000F0A9FBF8BD000040050020F8B5354CCF
:10154000A06800F0D1FD34480A21344E415EA278F3
:101550000025F743914202D0027A202A03D0C179B4
:10156000012903D005E0A170458117E0017A212906
:101570000ED0202101722A480A21415EA2789142B0
:1015800002D0017A20291BD0C17901291AD01CE090
:1015900045810069B04205D2142109E0A068401CD1
:1015A000A060E8E71D49C219491E8A4205D20A21F6
:1015B000FEF7B4FD0029F1D0DDE7C007EED0DAE791
:1015C000458110E0017A212907D020210172A0680D
:1015D00001281ADC0120A060F8BD45810069B042F5
:1015E00005D2142109E0A068401EA060EFE70B4976
:1015F000C219491E8A4205D20A21FEF78FFD002931
:10160000F1D0E4E7C007EED0E1E706498842E3DB2A
:10161000A160F8BD84000020600500207017000064
:1016200080050020FFFF0000F8B55B4D5B4E5C4F6E
:101630005C4C29E000F0EAFA0A20285EE178884252
:101640000CD0297A202909D1E07000206881217806
:10165000491C49B22170032900DD20700A20305E48
:10166000E17888420CD0307A202809D1002070819E
:101670002078401E40B22070002801DA032020703C
:101680000A20385E04282BDA20780028D2D027E000
:1016900000F08AF80A21695EE07881420BD0297A4D
:1016A000202908D1002169812278521C52B222706F
:1016B000032A00DD21700A21715E81420CD0307A4C
:1016C000202809D1002070812078401E40B220706F
:1016D000002801DA032020700A20385E04282BDC61
:1016E00020780128D4D027E000F01EF90A21695E95
:1016F000E07881420BD0297A202908D10021698124
:101700002278521C52B22270032A00DD21700A2175
:10171000715E81420CD0307A202809D1002070817E
:101720002078401E40B22070002801DA032020708B
:101730000A20385E04282BDC20780228D4D027E049
:1017400000F0ACF90A20285EE17888420BD0287AB4
:10175000202808D100226A812078401C40B22070E5
:10176000032800DD22700A20305E88420CD0307AD7
:10177000202809D1002070812078401E40B22070BE
:10178000002801DA032020700A20385E042802DCD9
:1017900020780328D4D0F8BD600500208005002003
:1017A0004005002084000020F8B5584CEF27207831
:1017B0000025C106564E002903DA3840207000F09B
:1017C0005DFD9AE05349202008705348C0790028F5
:1017D00003D15248C079002807D020784D493840BD
:1017E00020700220085E002108E02078C10607D59D
:1017F0003840207047490220085E012100F05EFD5C
:10180000444A45480A210C3A415E1279914202D07D
:10181000027A202A03D0C179012909D00BE03D4A80
:101820000C3A117145813B484188491C418004E0D4
:10183000017A212910D020210172364937480A2225
:101840000C39825E09798A4202D0017A20291FD0A0
:10185000C17901291ED020E04581006930498842C4
:1018600006D214210CE02B494888401C4880E4E74C
:101870002B49C94342182A49491E8A4205D20A21E6
:10188000FEF74CFC0029EED0D7E7C007EBD0D4E739
:10189000458116E0017A212909D0202101721D48D5
:1018A0000222825E1F498A4224DB418025E0458175
:1018B00000691B49884209D21421FEF72FFC002938
:1018C000EDD114484188491E4180E8E71449C943D5
:1018D00042181349491E8A4209D20A21FEF71EFC0A
:1018E0000029DCD10B494888401E4880D7E7C00753
:1018F000F8D0D4E7002A00DC4580307A202803D1D4
:101900007089042800D15DE7F8BD00003100002097
:101910004005002090000020600500208005002088
:10192000701700000F270000F8B5554CEF272078FE
:101930000025C106534E002903DA3840207000F01C
:1019400043FD94E05048212101705048C07900289F
:1019500003D14F48C079002808D02078DF21084003
:10196000207049490220085E002108E02078C10665
:1019700007D53840207044490220085E012100F05C
:1019800043FD414A41480A210C3A415E5279914255
:1019900002D0027A202A03D0C179012905D007E0BC
:1019A000394A0C3A517145811AE0017A212910D047
:1019B00020210172344936480A220C39825E497965
:1019C0008A4202D0017A20291FD0C179012922D070
:1019D00024E0458100692F49884206D214210CE099
:1019E00029484188491C4180E4E72A49C9434218F3
:1019F0002849491E8A4205D20A21FEF78FFB002999
:101A0000EED0D7E7C007EBD0D4E71F49458148881F
:101A1000401E488004E0017A212909D0202101726A
:101A200019480222825E1C498A421DDB41801EE069
:101A3000458100691749884206D214210CE01248FA
:101A40004188491E4180EBE71249C94342181149B8
:101A5000491E8A4205D20A21FEF760FB0029EED01A
:101A6000DEE7C007EBD0DBE7002A00DC4580307AF8
:101A7000202803D17089042800D163E7F8BD000055
:101A8000310000204005002090000020600500206B
:101A900080050020701700000F270000F8B5544C97
:101AA000EF2720780025C106524E002903DA38407E
:101AB000207000F02FFD93E04F48222101704F4825
:101AC000C079002803D14E48C079002807D020787B
:101AD0004949384020700220085E002108E0207843
:101AE000C10607D53840207043490220085E012115
:101AF00000F030FD404A41480A210C3A415E92799B
:101B0000914202D0027A202A03D0C179012905D05E
:101B100007E0394A0C3A917145811AE0017A21298E
:101B200010D020210172344935480A220C39825ED6
:101B300089798A4202D0017A20291FD0C1790129EE
:101B40001ED020E0458100692E49884206D214212A
:101B50000CE029484188491C4180E4E72949C943F0
:101B600042182849491E8A4205D20A21FEF7D6FAB0
:101B70000029EED0D7E7C007EBD0D4E7458127E0B6
:101B8000017A212909D0202101721B480222825E9C
:101B90001D498A4221DB418022E0458100691949C3
:101BA000884206D214210CE013484188491E418026
:101BB000EBE71449C94342181249491E8A4205D22B
:101BC0000A21FEF7ABFA0029EED0DEE7C007DCD130
:101BD00009494888401E4880D7E7002A00DC458034
:101BE000307A202803D17089042800D164E7F8BD39
:101BF00031000020400500209000002060050020FA
:101C000080050020701700000F27000010B506485F
:101C10000178CA0604D5EF221140017000F020FDC2
:101C200002491F20087010BD3100002090000020E4
:101C30007047000030B5837801210278002B15D061
:101C400094080E4BA400E41823689207D50EFF22D7
:101C5000AA40934342789207120EAA401A43226088
:101C60000078C006C00E8140054804E0D006C00ED2
:101C7000814003488030016030BD000000E400E096
:101C800000E100E0704730B5827900212123202453
:101C90000D2A09D00B2A14D00C2A11D184690269AB
:101CA000A2420DD3037207E085690269AA4208D3F4
:101CB0000372C279002A03D101614189491C418123
:101CC00030BD0472F8E7000009494A6801239B030C
:101CD0009A434A604A6883B21A434A600A6B8B157A
:101CE0009A430A630A6B000C02430A6370470000C0
:101CF00000100240044A0029516901D0014300E06C
:101D0000814351617047000000100240044A0029DD
:101D1000D16901D0014300E08143D16170470000E7
:101D200000100240044A0029116901D0014300E07B
:101D3000814311617047000000100240044A0029ED
:101D4000916901D0014300E0814391617047000037
:101D500000100240044A0029D16801D0014300E08C
:101D60008143D16070470000001002400348416A7F
:101D70000122120611434162704700000010024028
:101D800010B500F029F8012000F03CF9012000F026
:101D90000DF90028FAD0002000F02AF9002000F008
:101DA0003FF90521C904002000F052F9012000F09C
:101DB00041F90848FFF788FF192000F0F7F80028DC
:101DC000FAD0022000F052F900F00AF90828FBD1FD
:101DD00010BD0000004000011248016801221143BB
:101DE00001604168104A1140416001680F4A11408A
:101DF00001600168012292049143016041683F2221
:101E0000120491434160C16A09090901C162016B71
:101E1000074A11400163416B4908490041630021B1
:101E200081607047001002400CB8FF08FFFFF6FE0B
:101E3000ACFEF0FFF8B5564D0446686800210C2250
:101E4000544E104005D0042803D0082803D00C2895
:101E50001AD026601AE06968686803228902D203F2
:101E60000F0F1040BF1C00280AD0E86A0107090FB5
:101E70003046491CFEF752F978430146216005E0DF
:101E8000454839464143F9E7444820606868444F73
:101E90000006000F3B5C20680246DA4062606B6817
:101EA0005B055B0FFB5CDA40A2602B6BDB0501D4AA
:101EB0003C4B05E06B685B0401D4530800E09308D9
:101EC000E3602B6B5F06384B03D4374F1237276123
:101ED00000E023612F6BFF0601D4666100E06061C2
:101EE0002F6BBF070ED02F6BBF07BF0F012F0BD07B
:101EF0002F6BBF07BF0F022F08D02F6BFF43BF0709
:101F000006D006E0A26104E0A06102E0A36100E067
:101F1000A6612F6BBF03BF0F0FD02F6BBF03BF0F87
:101F2000012F0CD02F6BBF03BF0F022F09D02F6BD7
:101F3000BF03BF0F032F06D006E0E26104E0E061BB
:101F400002E0E36100E0E6612F6B3F03BF0F0FD0BB
:101F50002A6B1203920F012A0CD0286B0003800F0A
:101F6000022809D0286B0003800F032806D006E062
:101F7000226204E0206202E0236200E02662286B15
:101F8000000602D405486062F8BD6162F8BD000039
:101F90000010024000127A0000093D00006CDC02D3
:101FA000AC000020809FD500008000000346002088
:101FB0000A495A090CD0012A0CD0022A0CD0496BCC
:101FC000DA06D20E012393400B4200D00120704765
:101FD0000968F5E7096AF3E7496AF1E7001002408A
:101FE000024840680C210840704700000010024081
:101FF000034A5168F0239943014351607047000040
:102000000010024005490028086802D00122104350
:1020100001E04008400008607047000000100240E6
:10202000034A516807231B029943014351607047DB
:10203000001002400122054912060028086801D05C
:10204000104300E090430860704700000010024019
:1020500010B5054A53687B24E403A34353605368D7
:1020600008430343536010BD00100240034A516807
:102070008908890001435160704700000010024048
:1020800010B5044681880068FFF788F8217F15297C
:1020900002D1012800D0002010BD000070B5104C06
:1020A0000E4920782546095C0C3529700D49400001
:1020B000085A6860002001F091FC686801F038FC63
:1020C000287801F08BFC686801F032FC2078411C14
:1020D0002170082801D30020207070BD1405002055
:1020E00070000020843A0008F1B50098FFF78CF8E2
:1020F00005460A210098FEF711F8024648001A4FDB
:102100001A4C385C00262070022D07D310460A2195
:10211000FEF704F84800385C607000E06670032D3C
:102120000AD364210098FDF7F9FF0A21FDF7F6FFB5
:102130004800385CA07000E0A670042D0BD37D2110
:10214000C9000098FDF7EAFF0A21FDF7E7FF480004
:10215000385CE07000E0E6702671232060716D202D
:10216000A0710F20E071F8BD963A00081405002018
:10217000F3B581B00C460198FFF746F807462046B4
:102180003B4E00253B4C00283CD03B48407A002881
:1021900030D00A210198FDF7D7FF4900715C21700A
:1021A000022F06D30A21FDF7CFFF4800305C607094
:1021B00000E06570032F0AD364210198FDF7C4FF86
:1021C0000A21FDF7C1FF4800305CA07000E0A57057
:1021D000042F0BD37D21C9000198FDF7B5FF0A211B
:1021E000FDF7B2FF4800305CE07000E0E570224887
:1021F0004572FEBD25706570A5701F48E570012110
:102200004172FEBD0A210198FDF79EFF4900715CF5
:102210002170022F12D30A21FDF796FF4800305C8F
:102220006070032F0BD364210198FDF78DFF0A2105
:10223000FDF78AFF4800305CA07001E06570A57072
:10224000042F0BD37D21C9000198FDF77DFF0A21E2
:10225000FDF77AFF4800305CE07000E0E570257122
:10226000072060714F20A0717320E071FEBD000057
:10227000963A000814050020700000200D48402107
:102280000170417081700C4AC17093780021002B5D
:1022900008D0732303714E23437183716323C37189
:1022A00091707047017141718171C171012090700D
:1022B000704700001405002070000020F3B581B0C5
:1022C0000C460198FEF7A0FF074620463B4E00252E
:1022D0003B4C00283CD03B48C078002830D00A2135
:1022E0000198FDF731FF4900715C2170022F06D380
:1022F0000A21FDF729FF4800305C607000E065703E
:10230000032F0AD364210198FDF71EFF0A21FDF770
:102310001BFF4800305CA07000E0A570042F0BD3B9
:102320007D21C9000198FDF70FFF0A21FDF70CFF81
:102330004800305CE07000E0E5702248C57034E091
:1023400025706570A5701F48E5700121C1702CE0F3
:102350000A210198FDF7F8FE4900715C2170022FF7
:1023600012D30A21FDF7F0FE4800305C6070032FA5
:102370000BD364210198FDF7E7FE0A21FDF7E4FE87
:102380004800305CA07001E06570A570042F0BD38D
:102390007D21C9000198FDF7D7FE0A21FDF7D4FE83
:1023A0004800305CE07000E0E570732020714E2042
:1023B0006071A0716320E071FEBD0000963A0008D4
:1023C000140500207000002010B50D484022027056
:1023D000427082700B4BC2701C790021002C08D017
:1023E000732404714271622282716322C271197175
:1023F00010BD017141718171C1710120187110BD51
:102400001405002070000020F3B581B00C4601983F
:10241000FEF7FAFE074620463B4E00253B4C0028BF
:102420003CD03B484079002830D00A210198FDF784
:102430008BFE4900715C2170022F06D30A21FDF743
:1024400083FE4800305C607000E06570032F0AD3A3
:1024500064210198FDF778FE0A21FDF775FE48001A
:10246000305CA07000E0A570042F0BD37D21C90063
:102470000198FDF769FE0A21FDF766FE4800305C11
:10248000E07000E0E5702248457134E02570657029
:10249000A5701F48E570012141712CE00A210198C7
:1024A000FDF752FE4900715C2170022F12D30A2100
:1024B000FDF74AFE4800305C6070032F0BD36421A7
:1024C0000198FDF741FE0A21FDF73EFE4800305C11
:1024D000A07001E06570A570042F0BD37D21C900A9
:1024E0000198FDF731FE0A21FDF72EFE4800305C11
:1024F000E07000E0E5707320207140206071622080
:10250000A0716320E071FEBD963A0008140500201A
:10251000700000200D4840210170417081700C4A0C
:10252000C17093790021002B09D0472303716323E5
:102530004371762383716D23C3719171704701716B
:1025400041718171C17101209071704714050020A3
:1025500070000020F3B581B00C460198FEF754FEE0
:10256000074620463B4E00253B4C00283CD03B48CC
:10257000C079002830D00A210198FDF7E5FD490017
:10258000715C2170022F06D30A21FDF7DDFD4800A2
:10259000305C607000E06570032F0AD364210198FD
:1025A000FDF7D2FD0A21FDF7CFFD4800305CA07099
:1025B00000E0A570042F0BD37D21C9000198FDF721
:1025C000C3FD0A21FDF7C0FD4800305CE07000E06B
:1025D000E5702248C57134E025706570A5701F480C
:1025E000E5700121C1712CE00A210198FDF7ACFDD5
:1025F0004900715C2170022F12D30A21FDF7A4FD5E
:102600004800305C6070032F0BD364210198FDF704
:102610009BFD0A21FDF798FD4800305CA07001E0A9
:102620006570A570042F0BD37D21C9000198FDF7BB
:102630008BFD0A21FDF788FD4800305CE07000E06A
:10264000E57047202071632060717620A0716D20B5
:10265000E071FEBD963A00081405002070000020CD
:102660000D4840210170417081700C4AC17053784F
:102670000021002B08D04E23037143716323837123
:102680004723C37151707047017141718171C171EC
:1026900001205070704700001405002070000020D9
:1026A00010B50C490F220A7047234F224B70732438
:1026B0008A70CC70002805D07E2008714A710E22E5
:1026C0008A7104E0002008714C718B716D20C87113
:1026D00010BD000014050020F3B581B00298FEF78C
:1026E00093FD07460198FEF78FFD00900A2102989E
:1026F000FDF72AFD024648002F4D304C285C00268D
:102700002070022F07D310460A21FDF71DFD480057
:10271000285C607000E06670032F0AD36421029881
:10272000FDF712FD0A21FDF70FFD4800285CA0709F
:1027300000E0A67038467D27FF0004280AD33946FA
:102740000298FDF701FD0A21FDF7FEFC4800285C18
:10275000E07000E0E6700A210198FDF7F5FC490001
:10276000695C21710099022906D30A21FDF7ECFC6E
:102770004800285C607100E06671009803280AD365
:1027800064210198FDF7E0FC0A21FDF7DDFC48001B
:10279000285CA07100E0A671009804280AD339468D
:1027A0000198FDF7D1FC0A21FDF7CEFC4800285C1A
:1027B000E071FEBDE671FEBD963A000814050020EA
:1027C000F7B582B00498FEF71FFD00900398FEF75E
:1027D0001BFD07460A210498FDF7B6FC0246354E5C
:1027E0004800354C305C207000980025022807D343
:1027F00010460A21FDF7A8FC4800305C607000E03C
:102800006570009803280AD364210498FDF79CFCA6
:102810000A21FDF799FC4800305CA07000E0A5702B
:10282000009804280BD37D21C9000498FDF78CFC87
:102830000A21FDF789FC4800305CE07000E0E5709B
:10284000029800282FD00A210398FDF77DFC49004B
:10285000715C2171022F06D30A21FDF775FC480037
:10286000305C607100E06571032F0AD36421039826
:10287000FDF76AFC0A21FDF767FC4800305CA07197
:1028800000E0A571042F0CD37D21C9000398FDF74A
:102890005BFC0A21FDF758FC4800305CE07105B094
:1028A000F0BDE571FBE72571392060717620A071DC
:1028B000F7E70000963A000814050020F7B582B04B
:1028C0000498FEF7A1FC00900398FEF79DFC0746D4
:1028D0000A210498FDF738FC0246354E4800354C75
:1028E000305C207000980025022807D310460A218A
:1028F000FDF72AFC4800305C607000E065700098CD
:1029000003280AD364210498FDF71EFC0A21FDF771
:102910001BFC4800305CA07000E0A5700098042803
:102920000BD37D21C9000498FDF70EFC0A21FDF7A9
:102930000BFC4800305CE07000E0E5700298002875
:102940002FD00A210398FDF7FFFB4900715C21712C
:10295000022F06D30A21FDF7F7FB4800305C6071B7
:1029600000E06571032F0AD364210398FDF7ECFBA7
:102970000A21FDF7E9FB4800305CA07100E0A57179
:10298000042F0CD37D21C9000398FDF7DDFB0A213C
:10299000FDF7DAFB4800305CE07105B0F0BDE57191
:1029A000FBE72571632060710720A071F7E7000045
:1029B000963A000814050020F1B50098FEF724FCB3
:1029C00005460A210098FDF7BFFB024648001A4F52
:1029D0001A4C385C00262070022D07D310460A21BD
:1029E000FDF7B2FB4800385C607000E06670032DB4
:1029F0000AD364210098FDF7A7FB0A21FDF7A4FB89
:102A00004800385CA07000E0A670042D0BD37D2137
:102A1000C9000098FDF798FB0A21FDF795FB4800D7
:102A2000385CE07000E0E6702671232060715E2063
:102A3000A0710F20E071F8BD963A0008140500203F
:102A400010B5094900220A704A708A70CA7062245F
:102A5000632240230C714A7100288B7101D007203A
:102A600000E07320C87110BD1405002010B50C469D
:102A7000012109204902C006FEF790FB094A0028FF
:102A800002D0012806D001E0012C01D0002006E090
:102A9000302004E0002C01D0362000E00620107227
:102AA00010BD000014050020F3B581B00746029860
:102AB000FEF7AAFB00252D4C0646012F05D0022F5C
:102AC0001CD025706570A57046E025706570A570F6
:102AD0002748E570817A002909D0302121714721EA
:102AE00061714F21A1716D21E1718572FEBD25716A
:102AF0006571A571E57101218172FEBD0A210298FF
:102B0000FDF70CFB49001B4F022E795C217006D3A8
:102B10000A21FDF703FB4800385C607000E0657037
:102B2000032E0AD364210298FDF7F8FA0A21FDF773
:102B3000F5FA4800385CA07000E0A570042E0BD3B5
:102B40007D21C9000298FDF7E9FA0A21FDF7E6FAAE
:102B50004800385CE07000E0E570302020714720CC
:102B600060714F20A0716D20E071FEBD1405002042
:102B700070000020963A0008F7B507460298FEF765
:102B800043FB00252D4C0646012F05D0022F1CD0FB
:102B900025706570A57046E025706570A5702848A1
:102BA000E570C17A002909D05B212171472161714B
:102BB0004F21A1716D21E171C572FEBD2571657155
:102BC000A571E5710121C172FEBD0A210298FDF7D0
:102BD000A5FA49001B4F022E795C217006D30A2109
:102BE000FDF79CFA4800385C607000E06570032EC9
:102BF0000AD364210298FDF791FA0A21FDF78EFAB3
:102C00004800385CA07000E0A570042E0BD37D2135
:102C1000C9000298FDF782FA0A21FDF77FFA480001
:102C2000385CE07000E0E5705B2020714720607147
:102C30004F20A0716D20E071FEBD00001405002042
:102C400070000020963A0008FEB501214804FFF705
:102C500051F801218804FFF74DF80121C804FFF75E
:102C600049F801210805FFF745F801214805FFF75C
:102C700041F801218805FFF73DF86846FEF796FA0E
:102C80000126F6020125684600960571002484712C
:102C90004471C57109206946C006FEF737FA27203E
:102CA000800200906846057184714471C5710920E5
:102CB0006946C006FEF72AFA09206946C006FEF7F3
:102CC00025FA09206946C006FEF720FA0920694660
:102CD000C006FEF71BFA0720400300906846057106
:102CE000847144714C4FC57169463846FEF70EFA3F
:102CF00069463846FEF70AFA69463846FEF706FA8C
:102D0000032000906846057184714471C57169465D
:102D10004248FEF7FBF969464048FEF7F7F97F2085
:102D2000C000009068460571847144710221C17130
:102D30003B4C69462046FEF7E9F969462046FEF716
:102D4000E5F969462046FEF7E1F969462046FEF7B7
:102D5000DDF969462046FEF7D9F969462046FEF7B7
:102D6000D5F969462046FEF7D1F965010920002210
:102D70002946C006FEF726FA09200022E910C006FF
:102D8000FEF720FA092000223146C006FEF71AFAA3
:102D9000092000226911C006FEF714FA0022A910CA
:102DA0003846FEF70FFA002269103846FEF70AFA95
:102DB000002229463846FEF705FA0022022117486C
:102DC000FEF700FA002201211448FEF7FBF9002269
:102DD00040212046FEF7F6F90022E9112046FEF7D1
:102DE000F1F9002208212046FEF7ECF90022A91192
:102DF0002046FEF7E7F9002280212046FEF7E2F99F
:102E0000002220212046FEF7DDF900221021204675
:102E1000FEF7D8F9FEBD000000080048000C00488D
:102E20000004004870470000F8B52E48817A012957
:102E30002BD081784278914201D1012300E0002318
:102E40002848294CC3702578012109200027490210
:102E5000C0061F2D11D026460222B25E7468214E94
:102E6000766A7243202D11D01F4E212D1AD0222DAB
:102E70000BD11C4D002B27D121E0002B01D00122CA
:102E800000E00022FEF79EF96760F8BD002B05D038
:102E90000122FEF797F914484760F8BD9442FCD927
:102EA000002204E0002B05D09442F6D90122FEF75F
:102EB00089F9F8BD0022FEF785F97760F8BD6B7BD4
:102EC000012B01D07760EBE7944205D20122FEF797
:102ED00079F901206873F8BD0022FEF773F96F736A
:102EE000F8BD0000280000209000002070B50E4CB6
:102EF000A07A012817D02079FF2509260135F6068A
:102F0000002804D0012229463046FEF75BF91A203A
:102F1000205EFA2807DB00202071608302462946E4
:102F20003046FEF74FF970BD2800002013491120EC
:102F300008601348416841604168416041687F22F0
:102F4000D2039143416041680522D204114341609C
:102F50000168012212061143016001688901FCD554
:102F6000416889088900416041680222114341603B
:102F700041680907890F0229FAD1704700200240F1
:102F80000010024070B5124C0125A07A01280AD029
:102F9000E9021048FEF702F9002803D00020A072D1
:102FA000E07170BDA572606B6428FAD3E5710925E4
:102FB0000121ED06002249022846FEF703F9FF2110
:102FC000002201312846FEF7FDF8A06BE06370BDDA
:102FD00028000020000400487047000010B5144885
:102FE00001680122114301604168124A11404160A9
:102FF0000168114A11400160016801229204914365
:10300000016041683F22120491434160C16A09098D
:103010000901C162016BFF22543291430163416B8C
:1030200049084900416300218160FFF77FFF10BD1F
:10303000001002400CB8FFF8FFFFF6FE10B5064C7A
:103040000121204600F0ECF8002803D001212046A1
:1030500000F073F810BD0000002C014010B50121F4
:103060008C07204600F0DCF8002803D00121204620
:1030700000F063F810BD000070B5214E012130460C
:1030800000F0CEF8002839D01E4C6069401C606109
:103090000A216069FDF742F8002500291BD11A4872
:1030A0000078002803D019480188491C0180FEF7E8
:1030B000F5FFFEF7AFF916480168491C0160FEF7FD
:1030C0008FF9144814490078002803D00868401C80
:1030D000086000E00D606069104988420AD310481A
:1030E000102201781143017065610E4801220178B8
:1030F000514001700121304600F01FF870BD000002
:1031000000040040000000202C00002042000020AD
:1031100060000020320000205C00002030750000BC
:10312000310000202800002080220029018801D0E1
:10313000114300E0914301807047C9430182704709
:103140000029018802D00122114301E04908490009
:10315000018070472A4910B5884202D10121C41468
:103160003AE001218907884206D101210846FEF78D
:10317000D9FD0021012008E02249884208D101211F
:103180000220FEF7CFFD00210220FEF7CBFD10BD8F
:103190001D49884206D101211020FEF7C3FD002100
:1031A0001020F2E71949884206D101212020FEF7BC
:1031B000B9FD00212020E8E71549884207D1841590
:1031C00001212046FEF7AEFD00212046DDE7114932
:1031D000884209D101210C042046FEF7BBFD0021E5
:1031E0002046FEF7B7FD10BD0B49884202D10121F0
:1031F0004C04F1E709498842F5D101218C04EBE741
:10320000002C014000040040001000400014004069
:1032100000200040004001400044014000480140BF
:103220000246138A002092890B400A40002B02D0EC
:10323000002A00D001207047002A828901D00A4369
:1032400000E08A438281704770B5028C10239A4354
:103250000284048C8288038B1A4D2B400D782D0636
:103260002D0C1D4320239C438B891B051E0C4B8872
:1032700026431B051B0C144C3343A04202D0134EB3
:10328000B04219D1124E32400E8AB604360C324387
:10329000A04211D18024A343CC892405240C1C43D3
:1032A00040239C438B881B051B0C2343094C224065
:1032B0004C8AA404240C224382800583896881639C
:1032C000038470BDFF8C0000002C014000400140D1
:1032D000FFFB0000FFF70000028B034B09021A40BE
:1032E0001143018370470000FFF7000082887023BC
:1032F0009A43828082880A438280704710B5028890
:10330000144B984206D00124A407A04202D0124CCC
:10331000A04203D17024A2434C8822430F4CA04208
:1033200003D00F4C22400C89224302804A68C262BB
:103330000A880285984208D00A4A904205D00A4A73
:10334000904202D0094A904201D1897A0186012136
:10335000818210BD002C014000040040001000409C
:10336000FFFC0000004001400044014000480140D3
:103370000021C943416000210180018141808172A7
:10338000704700210A22504300E0491C8842FCD8C3
:10339000704770B50C460546FDF732FE3520FDF747
:1033A000CBFD2846FDF7CEFD21462846FDF702FE5F
:1033B0003520FDF7C1FDFDF7F5FD70BD02E008C841
:1033C000121F08C1002AFAD170477047002001E09F
:1033D00001C1121F002AFBD17047000030B5012146
:1033E00087B04802FEF7AAFC1C4C2046FCF730FFD1
:1033F0006846FCF788FF0021684601718020039031
:10340000C000009104910591029069462046FCF7A6
:1034100055FF01212046FCF767FF032204212046C7
:10342000FCF7F6FE2046FCF723FF01212046FCF7BF
:10343000F4FE0B4D20462946FCF731FF0028F9D059
:1034400001212046FCF7F2FE02212046FCF7F8FE9F
:103450002046FCF753FF07B030BD000000240140B8
:103460000100000170B501218CB00846FEF742FC56
:103470000921684601700125857000244470FEF71B
:10348000D9FB154E3046FDF705FA01A8FDF798FA6D
:10349000124802900394A80208900B948020069092
:1034A0000495202009900E480190801507900594FE
:1034B00040010A9001A93046FDF764FA0122022179
:1034C0003046FDF757FA0220FDF7CCF901213046CE
:1034D000FDF7D4F90CB070BD08000240BC0000201C
:1034E000402401401CB501214804FEF703FC684656
:1034F000FDF75CFE0420009003206946087100205F
:10350000887148710120C8710920C006FDF7FEFDD1
:103510001CBD0000F0B58BB001210220FEF7F6FBC8
:103520000121C802FEF70AFC01210846FEF7EEFB66
:1035300001214804FEF7DEFB04A8FDF737FE022157
:103540006846049101750321417500240925C4755D
:10355000ED0604A92846FDF7D9FD022201212846DF
:10356000FDF70CFE0F216846017301258573447336
:1035700003A8FEF75FFB102168460173857345734E
:1035800003A8FEF757FB2548FFF7E4FD6846FFF761
:10359000EFFE6846048144800A262F2701960780A3
:1035A000847269461D48FFF7A9FE012211461B4897
:1035B000FFF742FE01211948FFF7C2FDA807FFF7F8
:1035C000C9FD6846FFF7D4FE68464480019607802F
:1035D00084726946A807FFF791FE6021684601835F
:1035E00045830896848406A9A807FFF72DFE0821C5
:1035F000C806FFF771FE01218807FFF795FD01223C
:1036000011469007FFF718FE20214806FFF76EFECF
:1036100001218807FFF794FD0BB0F0BD00040040C6
:10362000FDF7DCFD264C274D607A284E400840000F
:103630006072A18B24488B001A1836681660C05837
:103640002A68491C121888B22A60A083802804D9ED
:103650000020A0830120607102E06079002804D07E
:1036600000206071D109A1622860FFF78BFC092658
:10367000F606174F15E00121002249023046FDF7FA
:10368000A1FDFF21002201313046FDF79BFDE16BDA
:10369000A06B401AB84204D30020E0716063A072AE
:1036A00002E0E0790028E6D1FDF798F9FCF734FE56
:1036B000A0793328B8D100F0EFF800F04BF8B3E769
:1036C000280000200C0500200C010020080000202C
:1036D000204E000030B5016801250B460C46AA00BB
:1036E000825814198A4200D211469A4200D91346D0
:1036F0006D1C042DF3DBC818201AC10F08184010E8
:1037000030BD000010B5FEF73BFBFFF79DFA00F05F
:10371000AFF90E48FEF78EFBFCF798FFFDF700FEB1
:10372000FCF7F2FEFF20F530401E00B20028FBDC63
:10373000FDF734FEFDF786FC05490028C87003D06C
:10374000FFF76EFF002010BDFEE70000C80000205C
:1037500000000020F8B54948494E817A494F717000
:10376000F979012902D1C179012977D04649C9796E
:10377000012973D045490025C97901297DD071E01F
:103780006581FDF7DBFE60890128FAD023E0404C1B
:103790002078FEF785FF3D480A21415E727891420C
:1037A00008D0027A202A05D171704581207800283E
:1037B00009D025700A20385E717888420BD0387A9B
:1037C000202808D102E001202070F3E77D812078D5
:1037D00000280CD02570294840890228D7D0274CD2
:1037E00060890328207A05D020283BD137E00120CA
:1037F0002070F0E7202835D121480C3000781F28B0
:1038000006D0202806D0212806D022282AD105E07B
:10381000357027E0012002E0022000E00320307034
:1038200020E0FDF701FF207A20281BD10A20205E2E
:10383000042814DB6581E571114C16480C3421789D
:10384000FFF7A7FD13480221615E0A30FFF7A1FDD3
:103850001048B1681430FFF79CFD03E00DE060896B
:103860000228DED0054CE079012803D12169A06946
:10387000814285D2207A212882D0F8BD40050020DF
:103880008400002080050020200500206005002025
:10389000330000200A700008F8B5012409256402ED
:1038A000ED0621462846FDF779FC024621462846CA
:1038B000FDF788FC194CE07901282DD11848C17911
:1038C000012929D00027174D174EFCF763FC7D20F6
:1038D000C000FFF756FD19E002206968FFF7E4F821
:1038E000207A212812D1E079012815D16089A081A0
:1038F000202020720D491F204F81087277810849CE
:1039000030724F8108722F70FDF78AFC207A2028D0
:10391000E2D0E0790128D8D0F8BD000020050020D1
:103920004005002098000020800500206005002050
:1039300030B51F491F4A204BC40701D0916100E0F8
:1039400019811E4C850701D5946100E01C811C4C37
:10395000450701D5946100E01C811A4C050701D58B
:10396000946100E01C81184C184A194BC50601D51A
:10397000946100E01C81174C850601D5946100E03C
:103980001C81440601D5916100E01981124A0406A8
:10399000022311492032002C01DA8B6100E01381EF
:1039A000C3050120002B01DA886130BD108130BDD4
:1039B00000800000000000482000004800100000C7
:1039C000000800000004000000200000000800487B
:1039D0002008004800400000000C004870B5044674
:1039E000204DC00701D0002200E0012240212846DE
:1039F000FDF7E8FB1C49A00701D5002200E00122E9
:103A00002846FDF7DFFB600701D5002200E0012218
:103A100008212846FDF7D6FB1449200701D50022CE
:103A200000E001222846FDF7CDFBE00601D500228B
:103A300000E0012280212846FDF7C4FBA00601D545
:103A4000002200E0012220212846FDF7BBFB600692
:103A500001D5002200E0012210212846FDF7B2FB2B
:103A600070BD0000000400480001000000020000DA
:103A700010B5FFF737FDFFF7B1FCFFF7F3FCFFF7D9
:103A800049FD10BD010002000400080010002000E4
:103A90004000800000013F0030005B0079007400AE
:103AA0006D006F0038007F007D007E0067000F0012
:103AB00073004F004E0040006300620023006D0061
:103AC0004700000007005E004E00760039000E003F
:103AD00001000200040008001000200040008000E7
:103AE000FF00000037000000083B00080000002035
:103AF000BC000000BC330008C43B0008BC00002030
:103B0000E4080000CC3300080000000000000000C2
:103B100000000000ACF7FF1F2400002000000000A0
:103B20000000000000000000000000004319101910
:103B30000000010000003300000000000000000051
:103B400000003200E803E803BC02000000000000AF
:103B5000000000001700000000000000E803000063
:103B60000000000000000000000000000000000055
:103B7000000000000000000000010101010101013E
:103B80000101000000000000000000000000000033
:103B900000000000E80300001F000A000000000011
:103BA0000000000000000000000000000000000015
:103BB00000000000000000000102030401020304F1
:043BC00006070809E3
:04000005080000B13E
:00000001FF
