:020000040800F2
:10000000A0090020C5000008F118000851100008E0
:1000100000000000000000000000000000000000E0
:10002000000000000000000000000000A5280008FB
:10003000000000000000000045190008592A0008CF
:10004000F5000008F5000008F5000008F5000008BC
:10005000F5000008F5000008F5000008F5000008AC
:1000600000000000C1070008F5000008F5000008C6
:10007000F5000008BD2A0008F5000008DD2A000888
:10008000F92A00080000000000000000F500000848
:1000900000000000F5000008F5000008F500000869
:1000A00000000000F500000800000000F500000856
:1000B0000348854600F05CF800480047D932000844
:1000C000A00900200C4880F308880C480168090E3C
:1000D0000B4A914205D10B480B4901600B480C4972
:1000E00001600C4880470C480047FEE7FEE7FEE74A
:1000F000FEE7FEE7FEE70000A00900200400000084
:100100001F00000018100240010000000000014024
:10011000000000005D2A0008B100000830B50B4661
:10012000014600202022012409E00D46D5409D42D1
:1001300005D31D469540491B254695404019154657
:10014000521E002DF1DC30BD70B50024254600287C
:1001500001DA01244042002901DA01254942FFF772
:10016000DDFFAC4200D04042002C00D0494270BDBF
:10017000064C0125064E05E0E36807CC2B430C3CFA
:1001800098471034B442F7D3FFF796FF643600085F
:1001900084360008F8B5194D0026194C194F6E60C9
:1001A00027E019480178002923D006701348001D64
:1001B00000F052FE7D206968C000814202D92068AB
:1001C000401E03E0814202D22068401C20600F489C
:1001D0002168814201DB206002E0002900DC26600A
:1001E000208881B2002000F047FA0121002000F0B1
:1001F0004DFA6868C0196528D3D2F8BD9400002074
:10020000500000204AFCFFFF00000020FF0F00000C
:10021000836A0B438362426170470029816801D081
:10022000012200E002221143816070470029C16869
:1002300002D00122114301E049084900C160704722
:10024000C26802239A43C260C2680A43C260704710
:10025000064910B5884208D144150121204601F015
:10026000D9FB0021204601F0D5FB10BD0024014040
:10027000826800210123DB071A4382600F231B03DE
:100280008268491CD20FD207994201D0002AF7D1C7
:100290008168002901DB006C70470020704702462E
:1002A0000020CB0104D5926801231B069A4300E08D
:1002B00012680A4200D001207047000030B5C368C0
:1002C000084A8C6813400A680D792243CC686D0394
:1002D0002C4322430C69496922430A431A43C260F2
:1002E00030BD000003D2FFFF012212030029C168C4
:1002F00001D0114300E09143C1607047816804223E
:100300001143816070470021016001718160C1600B
:100310000161416170470000F8B55D4D287A2128E0
:100320007ED15C483321027A1F2700265A4C212AAD
:1003300002D1C079012804D05848027A212A22D05B
:1003400086E06079332802D061716E8107E0342045
:100350006071FAE7012000F0A9F80120E0714C4833
:1003600001F0E4FC012804D14A4801F0DFFC012837
:10037000F0D0494801223C21401D02F0B1FE2F720D
:100380006E81444880E04548C079012860D17D20D5
:10039000434AC00010606082617142490A220F70B6
:1003A0004A806062322020820120607004E00220D6
:1003B00000F07CF80120E071354801F0B7FC01281D
:1003C00004D1364801F0B2FC0128F0D004220A2101
:1003D000344802F085FE334804221421801C02F0C8
:1003E0007FFE04221E212E4802F07AFE2A480422B3
:1003F0002821123002F074FE2748042232212430D2
:1004000002F06EFE244801223C21401D02F068FEED
:10041000214801224621401C02F062FE022200E037
:1004200034E01D485021103002F05AFE2F722E6128
:100430001A486E8107724681A08C81B2002000F0BC
:100440001BF90121002000F021F9287A21281DD173
:100450001548017A212919D1C079012816D1A6623F
:1004600004E0032000F022F80120E071084801F0C8
:100470005DFC012804D10C4801F058FC0128F0D0A3
:100480002F722E6108486E8146810772F8BD000008
:100490003C0500207C0500202C0000201C050020CD
:1004A000880000208C0000205C05002070B5002230
:1004B0001449012805D0472302280ED0032813D061
:1004C00018E011480F240578632007230C7048704A
:1004D000332D8B700DD1372004E00B70392048701C
:1004E00062238B70C87005E00B706D2048700E2081
:1004F0008870CA700A714A718A71CA7101F024FC4D
:1005000070BD00001005002031000020FEB5314C08
:100510002F48012189022060A1800D23A3710021B1
:1005200061812161E171152727771F2222722A4EEE
:100530006422A661626125462035012212032860EB
:10054000AA80AB7169812961E9712F771F222A7214
:10055000AE6164226A61224640320126B603106011
:100560009680937151811161D17117771F26167290
:10057000642656617D263601966116462036012294
:1005800052033060B280B37171813161F17137779C
:100590001F223272642272617D221201B2611D2219
:1005A000920200926A46117151710221D17169461D
:1005B00000F000FC6946306800F0FCFB69462868E2
:1005C00000F0F8FB6946206800F0F4FBFEBD000077
:1005D000000400481C05002070170000054B012294
:1005E00082401868002901D0104300E09043186051
:1005F00070470000007400401CB50121480401F060
:10060000D9F90121480701F0E1F9102000900321F8
:100610006846017100214171C17109206946C00617
:1006200000F0C8FB1CBD000030B5074C2368074A2A
:100630008240934324C92A430D6849680D432A43E5
:1006400082401A43226030BD00740040FE0F00005B
:100650001FB5FFF7D1FF3C20009000210B200002C6
:1006600001910391029069460020FFF7DDFF01210F
:100670000020FFF7B3FF1FBD034A08B5101808306C
:100680000090016008BD00000074004003090120D3
:10069000044A98400029516801D0014300E0814399
:1006A0005160704700740040F8B5414C0021208A29
:1006B00000B201F0B3FB3F4D0A20285EA17B00276A
:1006C000884202D0297A202903D0E879012803D072
:1006D00005E0A0736F8118E0287A21280ED0202031
:1006E0002872354E0A20305EA17B884202D0307AD3
:1006F00020281ED0F07901281DD01FE06F812F49DE
:100700002869884205D214210BE0208A401C2082EF
:10071000E7E72A49C94342182849491E8A4205D2B7
:100720000A21FFF7FBFC0029EFD0DAE7C007ECD085
:10073000D7E7778113E0307A212809D02020307262
:10074000218A0098884227D0F07900281BD023E026
:1007500077811A493069884205D214210BE0208A3A
:10076000401E2082ECE71549C94342181349491E2F
:100770008A4205D20A21FFF7D1FC0029EFD0DFE73A
:10078000C007ECD0DCE7E879002805D10848022250
:100790005021103002F0A4FC208AFF212D31884224
:1007A00001D32182F8BD1E28FCD81E202082F8BD6E
:1007B0002C0000205C0500207C0500207017000044
:1007C000F8B5022000F0DAF8002844D024480021CF
:1007D000244C415EA078244B82009950A268401CB2
:1007E0008918C0B2A160A070032834D90025A57073
:1007F0008808A5600126E0601C4A2670515F1C4FE6
:10080000884201D33E7005E01A4A1288891A814253
:1008100000D33D7018484168491C416002F044F81B
:10082000607800280DD1387801280AD11348144A7D
:100830000168491C01601268914202D311490E708F
:10084000056002F093F80F4801780F48007801F036
:100850004BFE38786070022000F018F8F8BD0000F8
:10086000B800002000000020F80000203E0000201A
:100870002C0000203C0000208C00002054000020B0
:10088000880000202F0000202E000020C10001D58C
:10089000024900E00249486070470000000402403D
:1008A000000002400029016802D00122114301E04A
:1008B000014A114001607047FEFF0000F0B5016879
:1008C0002B4A114001600021016041608160C160DC
:1008D0002849284B08390F22984201D1486823E063
:1008E000244CF0231434A04229D0224D1C01283579
:1008F000A8422BD01F4E1D023C36B0422DD01D4FBA
:100900001E035037B8422FD01A4F6437B84204D173
:1009100048681A0408E04860F0BD164F7837B842BE
:1009200004D148680F2212061043F4E71249124F0F
:100930000839B842D2D0104A1432904202D14868E5
:100940001843E8E70C4A2832904202D14868204315
:10095000E1E7094A3C32904202D148682843DAE78D
:10096000054A50329042D7D148683043D3E700005F
:10097000FEFF00000800024008040240014600207B
:10098000CA0001D5034A00E0034A12680A4200D0B7
:10099000012070470004024000000240002A026863
:1009A00001D00A4300E08A430260704730B5036813
:1009B0000C4A0C6A13408A684D6922430C692C4327
:1009C00022438C692243CC6922434C6A22438C6ABD
:1009D00022431A430260CA6842600A68826049681A
:1009E000C16030BD0F80FFFF002101604160816068
:1009F000C160016141618161C161016241628162E5
:100A000070470000F8B5434D00266879424C434FCB
:100A1000332837D120460A21027A615E3846C079F0
:100A2000002902D0202A04D03AE0AE72202A04D055
:100A300036E0012906D0022909D003290CD0042967
:100A40000FD02DE000282BD10120A8725BE00028F8
:100A500026D10220A87259E0002821D10320A872D3
:100A600027E000281CD16681AE7249E0207A212857
:100A700005D1387A212802D1F87901281CD001202B
:100A8000FFF714FDE0790128F0D02548C07901284E
:100A9000ECD0F8790128E9D02248C0790128E5D0C6
:100AA000A87A00282CD001282DD002282ED0032887
:100AB00001D1FFF7F9FDF8BD6879332804D0332060
:100AC0006871EE71668105E034206871FAE70120F3
:100AD000FFF7ECFC104801F029F9012804D10F4878
:100AE00001F024F90128F2D00A4801223C21401DDE
:100AF00002F0F6FA1F20207266817E813872C1E70B
:100B000000F012F8F8BD00F0B5F8F8BD00F0A8F854
:100B1000F8BD00002C0000203C0500207C050020D2
:100B20001C0500205C050020F8B5484C208C01B263
:100B30001220205E01F00AFC4548E179C0790027C7
:100B40000843002876D16079332873D11226A65F36
:100B50002683404D00960A20285E217B884202D0E1
:100B6000297A202903D0E879012803D005E02073F1
:100B70006F8118E0287A21280ED020202872364E66
:100B80000A20305E217B884202D0307A20281DD096
:100B9000F07901281CD01EE06F8130492869884215
:100BA00004D814210AE0761C6682E8E72B49C94381
:100BB00042182A49491E8A4205D80A21FFF7AEFA8F
:100BC0000029F0D0DBE7C007EDD0D8E7778114E04B
:100BD000307A21280AD0202030721221615E0098DC
:100BE000884227D0F07900281BD023E077811B4969
:100BF0003069884205D214210BE0608A401E608271
:100C0000EBE71649C94342181449491E8A4205D2E6
:100C10000A21FFF783FA0029EFD0DEE7C007ECD006
:100C2000DBE7E879002805D10848042228211230A2
:100C300002F056FA1221615E7D204001814201DB03
:100C40006082F8BD0029FCDC6782F8BD2C00002022
:100C50003C0500205C0500207C050020701700008A
:100C600010B50348008D00B201F0E4FB10BD000098
:100C70002C00002070B51A4C607801F01FFC194858
:100C80000A21415E627B0126002591420ED0027A44
:100C9000202A0BD161734581607800281BD06570D4
:100CA0000F4801224621401C02F01AFA0E480A2180
:100CB000415E627B91420DD0017A20290AD14581A3
:100CC0006078002809D06570054801224621401C43
:100CD00002F006FA70BD6670E2E76670F4E70000A5
:100CE0002C0000205C0500207C05002000B50D498B
:100CF0000D4800F01DF80B4842780178120289185F
:100D00008278C07812040006101809180548074AAE
:100D10001C380162126842628A4201D1012000BD82
:100D2000002000BD1C000020EC0000200080000816
:100D300030B51F4A13691C79047013691B7A43701C
:100D400013695B7883701369DB78C37013691D784E
:100D500005715D7945719D7A8571DD79C5715D7A21
:100D600005729D784572DD7A85729B79C3725369ED
:100D70001B7863400B70536984795B78057A634014
:100D8000C4796C406340447A6340847A6340C47A97
:100D900063404B70536904799B7863408B70526950
:100DA0008378D27840785A404240CA7030BD000003
:100DB00000000020F0B50022012423460D68934076
:100DC0001D409D422AD10D79012D01D0022D12D155
:100DD000876855000326AE40B74387604E79AE4022
:100DE00085682E43866085889D43858085888B79BC
:100DF00093401D438580066855000323AB409E4306
:100E000006600E790768AE403E430660C6689E43A2
:100E1000C660CB79AB40C5682B43C360521C102A17
:100E2000CBD3F0BD0246128A00200A4200D0012036
:100E300070470000044901600021017101224271E4
:100E40008171C17170470000FFFF0000002A01D0CE
:100E500081617047018570470149096801607047E9
:100E60000C00002070B502F0F9F80028FBD02F48E4
:100E700001F063FF042200212D4802F0FBF8002856
:100E8000F8D02B4C383CA06B00283DD004220A211E
:100E9000284802F0EFF80028F8D0264D042214214B
:100EA000A81C02F0E7F80028F8D004221E212248EE
:100EB00002F0E0F80028F8D01D4804222821263846
:100EC00002F0D8F80028F7D019480422322114384B
:100ED00002F0D0F80028F7D0154801223C21333821
:100EE00002F0C8F80028F7D011480122462137380F
:100EF00002F0C0F80028F7D00D480222502128380F
:100F000002F0B8F80028F7D0A06B0422401CA063C0
:100F10000021074802F0E4F8A08C81B20020FFF71E
:100F2000ABFB01210020FFF7B1FB70BD7017000083
:100F3000640000208C0000208800002010B50024F0
:100F400004E00A21FFF7EAF8641CE4B20028F8D1B3
:100F5000204610BDF8B50020374C0090374D206179
:100F600020E037480168002001F0DCFA17E068460D
:100F7000FFF772FF00982169884200D32061314E4B
:100F80003078C10608D5EF21084030702C48002287
:100F90000168104601F02EFB287A212806D0E87956
:100FA0000128E4D020780028DBD0F8BD254801785E
:100FB000CA063AD5EF2211400170002211460120E5
:100FC00001F018FB31E02069A06061680126081873
:100FD000400809277602FF06E06031463846FFF7F1
:100FE00021FF024631463846FFF730FF7610314682
:100FF0003846FFF717FF024631463846FFF726FF0F
:101000001149A08908800120207000206881E871C2
:101010001F2028720848042228210C3002F060F8B2
:1010200004223221094802F05BF8287A2128B6D13F
:10103000E8790028BAD1C6E7940000201C050020FA
:1010400068000020340000203E00002050000020F6
:10105000FEE700007CB50121480400F0ABFC012153
:10106000880400F0A7FC0121C80400F0A3FC0121C2
:10107000080500F09FFC0121480500F09BFC0121C0
:10108000880500F097FC6846FFF7D4FE03200002B5
:10109000009001206946087100248C7103224A7176
:1010A0000925C871ED062846FFF784FE69462846E3
:1010B000FFF780FE0120C002009069460C714C7160
:1010C000CC710248FFF776FE7CBD000000040048AA
:1010D000F8B5484800F02AFE464C012500260128B4
:1010E00005D0204600F022FE002805D005E020694A
:1010F000401C2061E57100E0E6712069002802D003
:10110000E179002905D0A169884205D9E079012853
:1011100002D1384800F017FC3648203800F006FEAF
:10112000344F203F012805D0384600F0FFFD00284D
:1011300005D005E03869401C3861FD7100E0FE71A2
:101140003869002802D0F979002905D0A1698842C0
:1011500006D9F879012803D12648203800F0F3FB9E
:101160002448203000F0E2FD224C2034012805D034
:10117000204600F0DBFD002805D005E02069401C7A
:101180002061E57100E0E6712069002802D0E17974
:10119000002905D0A169884206D9E079012803D148
:1011A0001448203000F0CFFB1248403000F0BEFD64
:1011B000104F4037012805D0384600F0B7FD002811
:1011C00005D005E03869401C3861FD7100E0FE7112
:1011D0003869002802D0F979002905D0A169884230
:1011E00006D9F879012803D10248403000F0ABFB62
:1011F000F8BD00003C050020F8B5364CA06800F0B2
:10120000C9FD35480A21415EA278344E20270025C9
:10121000914202D0027A202A03D0C179012903D059
:1012200005E0A170458116E0017A21290DD00772F1
:101230002B480A21415EA278914202D0017A2029EE
:101240001DD0C17901291CD01EE045810069B04242
:1012500005D214210BE0A068401CA060E8E71F49FC
:10126000C94342181D49491E8A4205D20A21FEF788
:1012700055FF0029EFD0DBE7C007ECD0D8E7458168
:101280000EE0017A212905D00772A06800281BDC36
:10129000A560F8BD45810069B04205D214210BE07C
:1012A000A068401EA060F0E70C49C94342180B49F2
:1012B000491E8A4205D20A21FEF730FF0029EFD0ED
:1012C000E3E7C007ECD0E0E706498842E1DBA16034
:1012D000F8BD0000800000205C05002070170000B1
:1012E0007C0500200F270000F8B55B4D5B4E5C4F7E
:1012F0005C4C29E000F0EAFA0A20285EE178884296
:101300000CD0297A202909D1E07000206881217849
:10131000491C49B22170032900DD20700A20305E8B
:10132000E17888420CD0307A202809D100207081E1
:101330002078401E40B22070002801DA032020707F
:101340000A20385E04282BDA20780028D2D027E043
:1013500000F08AF80A21695EE07881420BD0297A90
:10136000202908D1002169812278521C52B22270B2
:10137000032A00DD21700A21715E81420CD0307A8F
:10138000202809D1002070812078401E40B22070B2
:10139000002801DA032020700A20385E04282BDCA4
:1013A00020780128D4D027E000F01EF90A21695ED8
:1013B000E07881420BD0297A202908D10021698167
:1013C0002278521C52B22270032A00DD21700A21B9
:1013D000715E81420CD0307A202809D100207081C2
:1013E0002078401E40B22070002801DA03202070CF
:1013F0000A20385E04282BDC20780228D4D027E08D
:1014000000F0ACF90A20285EE17888420BD0287AF7
:10141000202808D100226A812078401C40B2207028
:10142000032800DD22700A20305E88420CD0307A1A
:10143000202809D1002070812078401E40B2207001
:10144000002801DA032020700A20385E042802DC1C
:1014500020780328D4D0F8BD5C0500207C0500204E
:101460003C05002080000020F8B5584CEF2720787C
:101470000025C106564E002903DA3840207000F0DE
:1014800053FD9AE05349202008705348C079002842
:1014900003D15248C079002807D020784D49384000
:1014A00020700220085E002108E02078C10607D5E0
:1014B0003840207047490220085E012100F054FDA9
:1014C000444A45480A210C3A415E1279914202D0C1
:1014D000027A202A03D0C179012909D00BE03D4AC4
:1014E0000C3A117145813B484188491C418004E018
:1014F000017A212910D020210172364937480A2269
:101500000C39825E09798A4202D0017A20291FD0E3
:10151000C17901291ED020E0458100693049884207
:1015200006D214210CE02B494888401C4880E4E78F
:101530002B49C94342182A49491E8A4205D20A2129
:10154000FEF7ECFD0029EED0D7E7C007EBD0D4E7DB
:10155000458116E0017A212909D0202101721D4818
:101560000222825E1F498A4224DB418025E04581B8
:1015700000691B49884209D21421FEF7CFFD0029DA
:10158000EDD114484188491E4180E8E71449C94318
:1015900042181349491E8A4209D20A21FEF7BEFDAC
:1015A0000029DCD10B494888401E4880D7E7C00796
:1015B000F8D0D4E7002A00DC4580307A202803D117
:1015C0007089042800D15DE7F8BD000034000020D8
:1015D0003C0500208C0000205C0500207C050020DC
:1015E000701700000F270000F8B5554CEF27207842
:1015F0000025C106534E002903DA3840207000F060
:1016000039FD94E05048212101705048C0790028EC
:1016100003D14F48C079002808D02078DF21084046
:10162000207049490220085E002108E02078C106A8
:1016300007D53840207044490220085E012100F09F
:1016400039FD414A41480A210C3A415E52799142A2
:1016500002D0027A202A03D0C179012905D007E0FF
:10166000394A0C3A517145811AE0017A212910D08A
:1016700020210172344936480A220C39825E4979A8
:101680008A4202D0017A20291FD0C179012922D0B3
:1016900024E0458100692F49884206D214210CE0DC
:1016A00029484188491C4180E4E72A49C943421836
:1016B0002849491E8A4205D20A21FEF72FFD00293A
:1016C000EED0D7E7C007EBD0D4E71F494581488863
:1016D000401E488004E0017A212909D020210172AE
:1016E00019480222825E1C498A421DDB41801EE0AD
:1016F000458100691749884206D214210CE012483E
:101700004188491E4180EBE71249C94342181149FB
:10171000491E8A4205D20A21FEF700FD0029EED0BB
:10172000DEE7C007EBD0DBE7002A00DC4580307A3B
:10173000202803D17089042800D163E7F8BD000098
:10174000340000203C0500208C0000205C050020B7
:101750007C050020701700000F270000F8B5544CDE
:10176000EF2720780025C106524E002903DA3840C1
:10177000207000F025FD93E04F48222101704F4872
:10178000C079002803D14E48C079002807D02078BE
:101790004949384020700220085E002108E0207886
:1017A000C10607D53840207043490220085E012158
:1017B00000F026FD404A41480A210C3A415E9279E8
:1017C000914202D0027A202A03D0C179012905D0A2
:1017D00007E0394A0C3A917145811AE0017A2129D2
:1017E00010D020210172344935480A220C39825E1A
:1017F00089798A4202D0017A20291FD0C179012932
:101800001ED020E0458100692E49884206D214216D
:101810000CE029484188491C4180E4E72949C94333
:1018200042182849491E8A4205D20A21FEF776FC51
:101830000029EED0D7E7C007EBD0D4E7458127E0F9
:10184000017A212909D0202101721B480222825EDF
:101850001D498A4221DB418022E045810069194906
:10186000884206D214210CE013484188491E418069
:10187000EBE71449C94342181249491E8A4205D26E
:101880000A21FEF74BFC0029EED0DEE7C007DCD1D1
:1018900009494888401E4880D7E7002A00DC458077
:1018A000307A202803D17089042800D164E7F8BD7C
:1018B000340000203C0500208C0000205C05002046
:1018C0007C050020701700000F27000010B50648A7
:1018D0000178CA0604D5EF221140017000F016FD10
:1018E00002491F20087010BD340000208C00002029
:1018F0007047000030B5837801210278002B15D0A5
:1019000094080E4BA400E41823689207D50EFF221A
:10191000AA40934342789207120EAA401A432260CB
:101920000078C006C00E8140054804E0D006C00E15
:10193000814003488030016030BD000000E400E0D9
:1019400000E100E0704730B5827900212123202496
:101950000D2A09D00B2A14D00C2A11D184690269EE
:10196000A2420DD3037207E085690269AA4208D337
:101970000372C279002A03D101614189491C418166
:1019800030BD0472F8E7000009494A6801239B034F
:101990009A434A604A6883B21A434A600A6B8B15BD
:1019A0009A430A630A6B000C02430A637047000003
:1019B00000100240044A0029516901D0014300E0AF
:1019C000814351617047000000100240044A002921
:1019D000D16901D0014300E08143D161704700002B
:1019E00000100240044A0029116901D0014300E0BF
:1019F000814311617047000000100240044A002931
:101A0000916901D0014300E081439161704700007A
:101A100000100240044A0029D16801D0014300E0CF
:101A20008143D160704700000010024010B500F003
:101A300029F8012000F03CF9012000F00DF9002800
:101A4000FAD0002000F02AF9002000F03FF905212B
:101A5000C904002000F052F9012000F041F90848C3
:101A6000FFF792FF192000F0F7F80028FAD00220C3
:101A700000F052F900F00AF90828FBD110BD00006F
:101A800000400001124801680122114301604168D1
:101A9000104A1140416001680F4A1140016001681D
:101AA000012292049143016041683F221204914354
:101AB0004160C16A09090901C162016B074A11400D
:101AC0000163416B4908490041630021816070470F
:101AD000001002400CB8FF08FFFFF6FEACFEF0FF5E
:101AE000F8B5564D0446686800210C22544E10404B
:101AF00005D0042803D0082803D00C281AD026606B
:101B00001AE06968686803228902D2030F0F104047
:101B1000BF1C00280AD0E86A0107090F3046491C9B
:101B2000FEF7FCFA78430146216005E04548394656
:101B30004143F9E7444820606868444F0006000FBD
:101B40003B5C20680246DA4062606B685B055B0FB5
:101B5000FB5CDA40A2602B6BDB0501D43C4B05E05B
:101B60006B685B0401D4530800E09308E3602B6BBF
:101B70005F06384B03D4374F1237276100E02361EB
:101B80002F6BFF0601D4666100E060612F6BBF0719
:101B90000ED02F6BBF07BF0F012F0BD02F6BBF07CE
:101BA000BF0F022F08D02F6BFF43BF0706D006E000
:101BB000A26104E0A06102E0A36100E0A6612F6BD6
:101BC000BF03BF0F0FD02F6BBF03BF0F012F0CD070
:101BD0002F6BBF03BF0F022F09D02F6BBF03BF0FA7
:101BE000032F06D006E0E26104E0E06102E0E36179
:101BF00000E0E6612F6B3F03BF0F0FD02A6B12038B
:101C0000920F012A0CD0286B0003800F022809D004
:101C1000286B0003800F032806D006E0226204E050
:101C2000206202E0236200E02662286B000602D4F4
:101C300005486062F8BD6162F8BD00000010024016
:101C400000127A0000093D00006CDC02A8000020B0
:101C5000809FD50000800000034600200A495A09F1
:101C60000CD0012A0CD0022A0CD0496BDA06D20E15
:101C7000012393400B4200D0012070470968F5E72B
:101C8000096AF3E7496AF1E7001002400248406838
:101C90000C2108407047000000100240034A5168C0
:101CA000F023994301435160704700000010024047
:101CB00005490028086802D00122104301E04008CD
:101CC000400008607047000000100240034A51685D
:101CD00007231B02994301435160704700100240E3
:101CE0000122054912060028086801D0104300E0CF
:101CF00090430860704700000010024010B5054A8C
:101D000053687B24E403A3435360536808430343AD
:101D1000536010BD00100240034A516889088900D1
:101D200001435160704700000010024010B50446A6
:101D300081880068FFF776F8217F152902D10128F4
:101D400000D0002010BD000070B5104C0E49207866
:101D50002546095C0C3529700D494000085A686019
:101D6000002001F0F7FB686801F098FB287801F08B
:101D7000F1FB686801F092FB2078411C2170082873
:101D800001D30020207070BD100500206C000020E1
:101D900000360008F1B50098FFF7D0F805460A2193
:101DA0000098FEF7BBF9024648001A4F1A4C385CFF
:101DB00000262070022D07D310460A21FEF7AEF947
:101DC0004800385C607000E06670032D0AD364211F
:101DD0000098FEF7A3F90A21FEF7A0F94800385C45
:101DE000A07000E0A670042D0BD37D21C9000098DF
:101DF000FEF794F90A21FEF791F94800385CE0708B
:101E000000E0E6702671232060716D20A0710F2024
:101E1000E071F8BD1236000810050020F3B581B05E
:101E20000C460198FFF78AF8074620463B4E0025EE
:101E30003B4C00283CD03B48407A002830D00A2157
:101E40000198FEF781F94900715C2170022F06D3D9
:101E50000A21FEF779F94800305C607000E0657097
:101E6000032F0AD364210198FEF76EF90A21FEF7C9
:101E70006BF94800305CA07000E0A570042F0BD314
:101E80007D21C9000198FEF75FF90A21FEF75CF990
:101E90004800305CE07000E0E5702248457234E0B4
:101EA00025706570A5701F48E570012141722CE016
:101EB0000A210198FEF748F94900715C2170022F50
:101EC00012D30A21FEF740F94800305C6070032FFE
:101ED0000BD364210198FEF737F90A21FEF734F994
:101EE0004800305CA07001E06570A570042F0BD332
:101EF0007D21C9000198FEF727F90A21FEF724F990
:101F00004800305CE07000E0E570257107206071EA
:101F10004F20A0717320E071FEBD00001236000852
:101F2000100500206C0000200D4840210170417018
:101F300081700C4AC17093780021002B08D0732364
:101F400003714E23437183716323C3719170704792
:101F5000017141718171C171012090707047000061
:101F6000100500206C000020F3B581B00C460198EC
:101F7000FEF7E4FF074620463B4E00253B4C002879
:101F80003CD03B48C078002830D00A210198FEF7A9
:101F9000DBF84900715C2170022F06D30A21FEF79D
:101FA000D3F84800305C607000E06570032F0AD3FE
:101FB00064210198FEF7C8F80A21FEF7C5F8480029
:101FC000305CA07000E0A570042F0BD37D21C90008
:101FD0000198FEF7B9F80A21FEF7B6F84800305C20
:101FE000E07000E0E5702248C57034E0257065704F
:101FF000A5701F48E5700121C1702CE00A210198ED
:10200000FEF7A2F84900715C2170022F12D30A2159
:10201000FEF79AF84800305C6070032F0BD3642100
:102020000198FEF791F80A21FEF78EF84800305C1F
:10203000A07001E06570A570042F0BD37D21C9004D
:102040000198FEF781F80A21FEF77EF84800305C1F
:10205000E07000E0E570732020714E206071A07187
:102060006320E071FEBD000012360008100500205C
:102070006C00002010B50D48402202704270827042
:102080000B4BC2701C790021002C08D07324047102
:102090004271622282716322C271197110BD017195
:1020A00041718171C1710120187110BD10050020AE
:1020B0006C000020F3B581B00C460198FEF73EFF9E
:1020C000074620463B4E00253B4C00283CD03B4871
:1020D0004079002830D00A210198FEF735F84900F0
:1020E000715C2170022F06D30A21FEF72DF84800FB
:1020F000305C607000E06570032F0AD364210198A2
:10210000FEF722F80A21FEF71FF84800305CA070A5
:1021100000E0A570042F0BD37D21C9000198FEF7C4
:1021200013F80A21FEF710F84800305CE07000E078
:10213000E5702248457134E025706570A5701F4830
:10214000E570012141712CE00A210198FDF7FCFFA7
:102150004900715C2170022F12D30A21FDF7F4FFB0
:102160004800305C6070032F0BD364210198FDF7A9
:10217000EBFF0A21FDF7E8FF4800305CA07001E0AA
:102180006570A570042F0BD37D21C9000198FDF760
:10219000DBFF0A21FDF7D8FF4800305CE07000E06B
:1021A000E57073202071402060716220A07163206F
:1021B000E071FEBD12360008100500206C00002002
:1021C0000D4840210170417081700C4AC1709379B3
:1021D0000021002B09D04723037163234371762329
:1021E00083716D23C3719171704701714171817168
:1021F000C171012090717047100500206C00002013
:10220000F3B581B00C460198FEF798FE07462046CC
:102210003B4E00253B4C00283CD03B48C079002871
:1022200030D00A210198FDF78FFF4900715C2170C1
:10223000022F06D30A21FDF787FF4800305C60704B
:1022400000E06570032F0AD364210198FDF77CFF3D
:102250000A21FDF779FF4800305CA07000E0A5700E
:10226000042F0BD37D21C9000198FDF76DFF0A21D2
:10227000FDF76AFF4800305CE07000E0E57022483E
:10228000C57134E025706570A5701F48E5700121A7
:10229000C1712CE00A210198FDF756FF4900715CDD
:1022A0002170022F12D30A21FDF74EFF4800305C47
:1022B0006070032F0BD364210198FDF745FF0A21BD
:1022C000FDF742FF4800305CA07001E06570A5702A
:1022D000042F0BD37D21C9000198FDF735FF0A219A
:1022E000FDF732FF4800305CE07000E0E570472009
:1022F0002071632060717620A0716D20E071FEBDB9
:1023000012360008100500206C0000200D48402106
:102310000170417081700C4AC17053780021002B0C
:1023200008D04E2303714371632383714723C37124
:1023300051707047017141718171C17101205070FC
:1023400070470000100500206C000020F3B581B03C
:102350000298FEF7F3FD07460198FEF7EFFD0090A7
:102360000A210298FDF7F0FE024648002F4D304C3E
:10237000285C00262070022F07D310460A21FDF7A3
:10238000E3FE4800285C607000E06670032F0AD30B
:1023900064210298FDF7D8FE0A21FDF7D5FE48001A
:1023A000285CA07000E0A67038467D27FF00042856
:1023B0000AD339460298FDF7C7FE0A21FDF7C4FE8D
:1023C0004800285CE07000E0E6700A210198FDF703
:1023D000BBFE4900695C21710099022906D30A21DC
:1023E000FDF7B2FE4800285C607100E0667100985D
:1023F00003280AD364210198FDF7A6FE0A21FDF700
:10240000A3FE4800285CA07100E0A6710098042893
:102410000AD339460198FDF797FE0A21FDF794FE8D
:102420004800285CE071FEBDE671FEBD1236000872
:1024300010050020F1B50098FEF780FD05460A2141
:102440000098FDF781FE024648001A4F1A4C385C8E
:1024500000262070022D07D310460A21FDF774FED6
:102460004800385C607000E06670032D0AD3642178
:102470000098FDF769FE0A21FDF766FE4800385C0A
:10248000A07000E0A670042D0BD37D21C900009838
:10249000FDF75AFE0A21FDF757FE4800385CE07050
:1024A00000E0E6702671232060715E20A0710F208D
:1024B000E071F8BD123600081005002010B509497A
:1024C00000220A704A708A70CA7062246322402314
:1024D0000C714A7100288B7101D0072000E0732035
:1024E000C87110BD1005002010B50C46012109204F
:1024F0004902C006FEF796FC094A002802D00128CE
:1025000006D001E0012C01D0002006E0302004E0DC
:10251000002C01D0362000E00620107210BD000013
:1025200010050020F3B581B007460298FEF706FDBE
:1025300000252D4C0646012F05D0022F1CD02570FA
:102540006570A57046E025706570A5702748E57038
:10255000817A002909D030212171472161714F21F1
:10256000A1716D21E1718572FEBD25716571A57145
:10257000E57101218172FEBD0A210298FDF7CEFDB1
:1025800049001B4F022E795C217006D30A21FDF70A
:10259000C5FD4800385C607000E06570032E0AD30A
:1025A00064210298FDF7BAFD0A21FDF7B7FD480046
:1025B000385CA07000E0A570042E0BD37D21C9000B
:1025C0000298FDF7ABFD0A21FDF7A8FD4800385C35
:1025D000E07000E0E57030202071472060714F20EE
:1025E000A0716D20E071FEBD100500206C00002080
:1025F00012360008F7B507460298FEF79FFC002543
:102600002D4C0646012F05D0022F1CD02570657079
:10261000A57046E025706570A5702848E570C17A00
:10262000002909D05B212171472161714F21A171DE
:102630006D21E171C572FEBD25716571A571E571F0
:102640000121C172FEBD0A210298FDF767FD490014
:102650001B4F022E795C217006D30A21FDF75EFD27
:102660004800385C607000E06570032E0AD3642176
:102670000298FDF753FD0A21FDF750FD4800385C34
:10268000A07000E0A570042E0BD37D21C900029834
:10269000FDF744FD0A21FDF741FD4800385CE0707C
:1026A00000E0E5705B202071472060714F20A07131
:1026B0006D20E071FEBD0000100500206C000020C0
:1026C00012360008FEB501214804FFF773F9012115
:1026D0008804FFF76FF90121C804FFF76BF90121A6
:1026E0000805FFF767F901214805FFF763F90121A4
:1026F0008805FFF75FF96846FEF79CFB0126B603E5
:102700000125684600960571002484714471C571E5
:1027100069465E48FEF74EFB5D48009068460571CD
:1027200084714471C57169465848FEF743FB694698
:102730005648FEF73FFB69465448FEF73BFB554FB2
:1027400069463846FEF736FB07208002009068464F
:10275000057184714471C57109206946C006FEF790
:1027600029FB09206946C006FEF724FB09206946BB
:10277000C006FEF71FFB484800906846057184714B
:102780004471C57169464548FEF714FB0920694646
:10279000C006FEF70FFB4248009068460571847141
:1027A00044710221C17169463C48FEF703FB69464A
:1027B0003A48FEF7FFFA69463846FEF7FBFA6946E3
:1027C0003648FEF7F7FA69463448FEF7F3FA6946E9
:1027D0003248FEF7EFFA69463048FEF7EBFA00227E
:1027E00001213846FEF732FBEC0300222146274840
:1027F000FEF72CFB002231462448FEF727FB00227F
:10280000A1102248FEF722FB092000226111C00618
:10281000FEF71CFB092000222111C006FEF716FB63
:1028200009200022E110C006FEF710FB002208215B
:102830001A48FEF70BFB092000222146C006FEF7CE
:1028400005FB002280211548FEF700FB0022202115
:102850001248FEF7FBFA002202213846FEF7F6FA8C
:10286000002210210D48FEF7F1FA002240210B480A
:10287000FEF7ECFA0022E1110848FEF7E7FA002221
:10288000A1110648FEF7E2FAFEBD0000000800486C
:1028900001E0000000140048088000000004004827
:1028A000F203000070470000F8B52E48417A012974
:1028B0002BD041780278914201D1012300E000231E
:1028C0002848294C837025780121092000274902D6
:1028D000C0061F2D11D026460222B25E7468214E1A
:1028E000F6697243202D11D01F4E212D1AD0222DB2
:1028F0000BD11C4D002B27D121E0002B01D0012250
:1029000000E00022FEF7A2FA6760F8BD002B05D0B8
:102910000122FEF79BFA14484760F8BD9442FCD9A7
:10292000002204E0002B05D09442F6D90122FEF7E4
:102930008DFAF8BD0022FEF789FA7760F8BDEB7AD0
:10294000012B01D07760EBE7944205D20122FEF71C
:102950007DFA0120E872F8BD0022FEF777FAEF72E7
:10296000F8BD00002C0000208C00002070B50E4C3B
:10297000607A012817D0E078FF2509260135F60690
:10298000002804D0012229463046FEF75FFA1420C1
:10299000205EFA2807DB0020E070A082024629466C
:1029A0003046FEF753FA70BD2C0000201349112069
:1029B00008601348416841604168416041687F2276
:1029C000D2039143416041680522D2041143416022
:1029D0000168012212061143016001688901FCD5DA
:1029E00041688908890041604168022211434160C1
:1029F00041680907890F0229FAD170470020024077
:102A00000010024070B5124C0125607A01280AD0EE
:102A1000E9021048FEF706FA002803D00020607291
:102A2000A07170BD6572E06A6428FAD3A5710925AA
:102A30000121ED06002249022846FEF707FAFF2190
:102A4000002201312846FEF701FA206B606370BD59
:102A50002C000020000400487047000010B5144806
:102A600001680122114301604168124A114041602E
:102A70000168114A114001600168012292049143EA
:102A8000016041683F22120491434160C16A090913
:102A90000901C162016BFF22543291430163416B12
:102AA00049084900416300218160FFF77FFF10BDA5
:102AB000001002400CB8FFF8FFFFF6FE10B5064C00
:102AC0000121204600F0DAF8002803D00121204639
:102AD00000F060F810BD0000002C014010B501218D
:102AE0008C07204600F0CAF8002803D001212046B8
:102AF00000F050F810BD000070B51D4E01213046A9
:102B000000F0BCF8002832D01A4CA069401CA0612B
:102B10000A21A069FDF702FB0025002919D11648FA
:102B20000078002803D015490888401C0880FFF76A
:102B30000BF9FEF7CDFA12480168491C01601148F3
:102B400011490078002803D00868401C086000E0A4
:102B50000D60A0690D49884205D30D481022017807
:102B600011430170A5610121304600F013F870BDDA
:102B700000040040000000202F0000204000002042
:102B80005C00002035000020580000208813000061
:102B900034000020C943018270470029018802D017
:102BA0000122114301E049084900018070470000FB
:102BB0002A4910B5884202D10121C4143AE001210A
:102BC0008907884206D101210846FEF70BFF002144
:102BD000012008E02249884208D101210220FEF7A5
:102BE00001FF00210220FEF7FDFE10BD1D498842B5
:102BF00006D101211020FEF7F5FE00211020F2E79A
:102C00001949884206D101212020FEF7EBFE002160
:102C10002020E8E71549884207D184150121204684
:102C2000FEF7E0FE00212046DDE71149884209D188
:102C300001210C042046FEF7EDFE00212046FEF7A0
:102C4000E9FE10BD0B49884202D101214C04F1E795
:102C500009498842F5D101218C04EBE7002C0140A1
:102C6000000400400010004000140040002000401C
:102C70000040014000440140004801400246138AE0
:102C8000002092890B400A40002B02D0002A00D07D
:102C900001207047002A828901D00A4300E08A435C
:102CA00082817047828870239A43828082880A4397
:102CB0008280704710B50288144B984206D00124D8
:102CC000A407A04202D0124CA04203D17024A24318
:102CD0004C8822430F4CA04203D00F4C22400C8959
:102CE000224302804A68C2620A880285984208D05C
:102CF0000A4A904205D00A4A904202D0094A9042BC
:102D000001D1897A01860121818210BD002C014008
:102D10000004004000100040FFFC000000400140A3
:102D200000440140004801400021C94341600021A6
:102D30000180018141808172704700210A22504345
:102D400000E0491C8842FCD8704702E008C8121F06
:102D500008C1002AFAD170477047002001E001C184
:102D6000121F002AFBD1704730B5012187B04802FD
:102D7000FEF744FE1C4C2046FDF76AFA6846FDF754
:102D8000C2FA00216846017180200390C0000091C2
:102D900004910591029069462046FDF78FFA0121C2
:102DA0002046FDF7A1FA032204212046FDF730FA60
:102DB0002046FDF75DFA01212046FDF72EFA0B4D66
:102DC00020462946FDF76BFA0028F9D0012120465C
:102DD000FDF72CFA02212046FDF732FA2046FDF7D6
:102DE0008DFA07B030BD0000002401400100000151
:102DF00070B501218CB00846FEF7DCFD092168465C
:102E000001700125857000244470FEF773FD154E96
:102E10003046FDF753FD01A8FDF7E6FD124802908C
:102E20000394A80208900B9480200690049520201B
:102E300009900E48019080150790059440010A9072
:102E400001A93046FDF7B2FD012202213046FDF70F
:102E5000A5FD0220FDF71AFD01213046FDF722FDF8
:102E60000CB070BD08000240B800002040240140B2
:102E70001CB501214804FEF79DFD6846FDF7DAFF09
:102E80000420009003206946087100208871487171
:102E90000120C8710920C006FDF78CFF1CBD000091
:102EA000F0B585B001210220FEF790FD0121C80296
:102EB000FEF7A4FD01210846FEF788FD0121480424
:102EC000FEF778FD0F216846017301258573002404
:102ED000447303A8FEF70EFD102168460173857345
:102EE000457303A8FEF706FD1D4F3846FFF760FE49
:102EF0006846FFF719FF6846048144800A252F269B
:102F000001950680847269463846FFF7D3FE012298
:102F100011463846FFF7BEFE01213846FFF73DFE59
:102F20006F073846FFF744FE6846FFF7FDFE684628
:102F3000448001950680847269463846FFF7BAFEE0
:102F4000012211463846FFF7A5FE20213846FFF73B
:102F5000A9FE01213846FFF720FE05B0F0BD0000B4
:102F6000000400401CB501214C042046FEF722FD60
:102F700001212046FEF71EFD012069460871887177
:102F80000020C8710320487180200924E4060090C5
:102F90002046FDF70FFF4020009069462046FDF7D0
:102FA00009FF00F071F91CBDFDF75CFF264C274DB1
:102FB000207A284E400840002072E18A24488B0085
:102FC0001A1836681660C0582A68491C121888B248
:102FD0002A60E082802804D90020E082012020714C
:102FE00002E02079002804D000202071D10921625C
:102FF0002860FFF707FD0926F606174F15E00121A7
:10300000002249023046FDF721FFFF210022013155
:103010003046FDF71BFF616B206B401AB84204D3AA
:103020000020A071E062607202E0A0790028E6D181
:10303000FDF7E8FCFDF770F960793328B8D100F0AE
:10304000E1F900F071F9B3E72C0000200805002039
:10305000080100200C000020204E000010B5A02028
:1030600000F08EF8002803D000F00EF9002010BD0B
:10307000012010BDF8B515460C46064600F0F0F8E4
:10308000A02000F0C9F800F00DF900280FD1E0B23F
:1030900000F0C2F800F006F9002808D100F0E0F8CE
:1030A000A12000F0B9F800F0FDF8002803D000F0EE
:1030B000EBF80020F8BD00246F1E0BE000F090F844
:1030C0003055BC4202D000F047F801E000F076F83D
:1030D000641CA4B2AC42F1D300F0D6F80120F8BDD4
:1030E000F7B517460C46002530E0002D01D06007EB
:1030F0001CD100F0C9F8002600F0B2F8A02000F0C2
:103100008BF800F0CFF8002805D0761C7D20B6B2F1
:10311000C0008642F0D37D20C00086420ED0E0B2CF
:1031200000F07AF800F0BEF8002807D10098405D62
:1031300000F072F800F0B6F8002803D000F0A4F810
:103140000020FEBD641C6D1CA4B2ADB2BD42CCD348
:1031500000F09AF80120FEBDF8B5084D40242C81FE
:1031600000F026F809278026FF06BE6100F020F84F
:103170002E8100F01DF8BC61F8BD00002000004861
:1031800010B509210446C906088A40060ED5088AEA
:1031900000060BD500F064F8204600F03DF800F082
:1031A00081F8044600F070F8204610BD012010BDE3
:1031B0000020401CC0B21E28FBD3704770B5092404
:1031C0004020E406A061FFF7F3FF8025A561FFF72B
:1031D000EFFF02480581FFF7EBFF70BD20000048BC
:1031E000F8B500240927FF06254680266006040E50
:1031F000BE61FFF7DDFF388A400601D5641CE4B2EA
:1032000004480681FFF7D4FF6D1CEDB2082DEDD305
:103210002046F8BD20000048F8B500248027092684
:103220000546F606280602D54020B06102E00B49AB
:1032300040200881FFF7BCFFB761FFF7B9FF0748DF
:103240000781072C01D14020B0616806050EFFF709
:10325000AFFF641CE4B2082CE4D3F8BD20000048A2
:1032600070B540250920C006856180248461FFF780
:103270009FFF044E3581FFF79BFF3481FFF798FFD6
:1032800070BD00002000004870B50548402404814E
:1032900009258020ED06A861FFF78AFFAC6170BDAB
:1032A0002000004870B509244020E406A061FFF723
:1032B0007FFF8025A561FFF77BFF208A400601D5AF
:1032C000012400E0002403480581FFF771FF204638
:1032D00070BD00002000004810B5FEF7A7FBFFF707
:1032E000F1F900F083F90E48FEF7FAFBFFF73AFE1A
:1032F000FDF7AEF9FDF7AEFEFDF708F9FF20F5305A
:10330000401E00B20028FBDCFDF7F0FC0549002858
:10331000C87003D0FFF748FE002010BDFEE7000094
:10332000C400002000000020F8B5314C314DA07AD7
:1033300068703148C079012802D1E079012855D060
:103340002E48C079012851D02D482A4EC079002737
:103350000C3601284AD03FE0FDF74EFF0A20205EE0
:1033600069788842207A32D0202835D103216181C2
:1033700030781F2806D0202806D0212806D0222801
:1033800007D007E02F7005E0012000E00220287040
:1033900000E02970FDF7A8FF207A20281CD10A2020
:1033A000205E042815DB13486781E77104220A2197
:1033B0000C30FFF795FE04221421B01CFFF790FE9D
:1033C0000C4804221E210830FFF78AFE04E0202862
:1033D00002D160890328DDD0E079012803D1A169F9
:1033E00020698842B8D2207A2128B5D0F8BD0000E3
:1033F0003C050020800000207C0500201C050020EA
:103400005C050020F8B5012409256402ED0621467B
:103410002846FDF707FD024621462846FDF716FD22
:10342000194CE07901282DD11848C179012929D0FA
:103430000027174D174EFCF7ADFE7D20C000FFF7AB
:103440007CFC19E002206968FFF76CF8207A2128DB
:1034500012D1E079012815D16089A0812020207245
:103460000D491F204F8108727781084930724F81C2
:1034700008722F70FDF76EFD207A2028E2D0E079E7
:103480000128D8D0F8BD00001C0500203C05002014
:10349000940000207C0500205C05002030B5C207A8
:1034A0000121002A02D01F4A916102E01D4A203208
:1034B00011811D491D4A1E4B840701D5916100E011
:1034C00019811C4C450701D5946100E01C811A4C00
:1034D000050701D5946100E01C81184C184A194B6E
:1034E000C50601D5946100E01C81174C850601D505
:1034F000946100E01C81154C450601D5946100E003
:103500001C8105060824002D02DA114DAC6102E091
:103510000F4D20352C81C00501D5916130BD198139
:1035200030BD000000140048008000000008004882
:1035300020080048004000000020000000040000B7
:1035400000000048200000480008000000100000B3
:103550000004004870B50446204DC00701D0002289
:1035600000E0012280212846FDF770FCA00701D56C
:10357000002200E0012220212846FDF767FC1848C0
:10358000610701D5002200E001220221FDF75EFC67
:10359000200701D5002200E0012210212846FDF776
:1035A00055FCE00601D5002200E00122402128461A
:1035B000FDF74CFC0B49A00601D5002200E00122DA
:1035C0002846FDF743FC0849600601D5002200E0CB
:1035D00001222846FDF73AFC70BD000000040048B7
:1035E00000140048000100000002000010B5FFF7C1
:1035F0003FFCFFF7B9FBFFF7FBFBFFF751FC10BDEA
:1036000001000200040008001000200040008000BB
:1036100000013F0030005B00790074006D006F0016
:1036200038007F007D007E0067000F0073004F00B0
:103630004E0040006300620023006D004700000060
:1036400007005E004E00760039000E000100020007
:10365000040008001000200040008000FF0000006F
:10366000370000008436000800000020B800000089
:103670004A2D00083C370008B8000020E808000088
:103680005A2D0008000000000000000000000000AB
:1036900000000000ACF7FF1F280000200000000021
:1036A0000000000000000000000000004319101995
:1036B00000010000003300000000000000000000D6
:1036C0003200E803000000000000000017000000C6
:1036D00000000000E80300000000000000000000FF
:1036E00000000000000000000000000000000000DA
:1036F00000010101010101010101000000000000C1
:10370000000000000000000000000000E8030000CE
:103710001F000A0000000000000000000000000080
:103720000000000000000000000000000000000099
:0C3730000102030401020304060708095B
:04000005080000B13E
:00000001FF
