:020000040800F2
:10000000A0090020C5000008051C0008F112000826
:1000100000000000000000000000000000000000E0
:10002000000000000000000000000000F12E0008A9
:100030000000000000000000591C0008A530000866
:10004000F5000008F5000008F5000008F5000008BC
:10005000F5000008F5000008F5000008F5000008AC
:100060000000000095070008F5000008F5000008F2
:10007000F500000809310008F500000829310008E2
:10008000453100080000000000000000F5000008F5
:1000900000000000F5000008F5000008F500000869
:1000A00000000000F500000800000000F500000856
:1000B0000348854600F05CF80048004739380008DE
:1000C000A00900200C4880F308880C480168090E3C
:1000D0000B4A914205D10B480B4901600B480C4972
:1000E00001600C4880470C480047FEE7FEE7FEE74A
:1000F000FEE7FEE7FEE70000A00900200400000084
:100100001F00000018100240010000000000014024
:1001100000000000A9300008B100000830B50B460F
:10012000014600202022012409E00D46D5409D42D1
:1001300005D31D469540491B254695404019154657
:10014000521E002DF1DC30BD70B50024254600287C
:1001500001DA01244042002901DA01254942FFF772
:10016000DDFFAC4200D04042002C00D0494270BDBF
:10017000064C0125064E05E0E36807CC2B430C3CFA
:1001800098471034B442F7D3FFF796FF343C000889
:10019000543C0008F8B5194D0026194C194F6E60F3
:1001A00027E019480178002923D006701348001D64
:1001B00001F00EF87D206968C000814202D92068F4
:1001C000401E03E0814202D22068401C20600F489C
:1001D0002168814201DB206002E0002900DC26600A
:1001E000208881B2002000F045FA0121002000F0B3
:1001F0004BFA6868C0196528D3D2F8BD9800002072
:10020000580000204AFCFFFF00000020FF0F000004
:10021000836A0B438362426170470029816801D081
:10022000012200E002221143816070470029C16869
:1002300002D00122114301E049084900C160704722
:10024000C26802239A43C260C2680A43C260704710
:10025000064910B5884208D144150121204601F015
:1002600083FD0021204601F07FFD10BD00240140E8
:10027000826800210123DB071A4382600F231B03DE
:100280008268491CD20FD207994201D0002AF7D1C7
:100290008168002901DB006C70470020704702462E
:1002A0000020CB0104D5926801231B069A4300E08D
:1002B00012680A4200D001207047000030B5C368C0
:1002C000084A8C6813400A680D792243CC686D0394
:1002D0002C4322430C69496922430A431A43C260F2
:1002E00030BD000003D2FFFF012212030029C168C4
:1002F00001D0114300E09143C1607047816804223E
:100300001143816070470021016001718160C1600B
:100310000161416170470000F8B55B4D287A2128E2
:100320007DD15A483321027A1F270026584C212AB2
:1003300002D1C079012804D05648027A212A20D05F
:1003400082E0A079332802D0A1716E8107E03420C9
:10035000A071FAE7012000F0A7F8012020724A48B6
:1003600001F098FE012804D1484801F093FE0128CD
:10037000F0D0A179484803F072F82F726E8143489B
:100380007EE04448C07901285ED17D20434AC00008
:100390001060A082A17142490A220F704A80E06277
:1003A000322060820120A07004E0022000F07CF87E
:1003B00001202072344801F06DFE012804D1354837
:1003C00001F068FE0128F0D0354801783248323813
:1003D00003F045F832480221415E2F48283803F0E7
:1003E0003EF82E4801682C481E3803F038F82A4899
:1003F0001421615E143803F032F82748E16A0A38A4
:1004000003F02DF8A179244803F029F82248A178B7
:100410000A3003F024F82048618A143000E031E00B
:1004200003F01DF82F722E611A486E810772468103
:10043000A08D81B2002000F01DF90121002000F004
:1004400023F9287A21281DD11648017A212919D1AA
:10045000C079012816D1266304E0032000F024F8B7
:1004600001202072084801F015FE012804D10D4832
:1004700001F010FE0128F0D02F722E6109486E8124
:1004800046810772F8BD000040050020800500206D
:100490002C000020200500203C7000088C0000206B
:1004A000900000206005002070B50022144901284A
:1004B00005D0472302280ED0032813D018E0114896
:1004C0000F240578632007230C704870332D8B7040
:1004D0000DD1372004E00B703920487062238B70F7
:1004E000C87005E00B706D2048700E208870CA70CF
:1004F0000A714A718A71CA7101F034FE70BD000040
:100500001405002032000020FEB5314C2F48012197
:1005100089022060A1800D23A371002161812161E6
:10052000E171152727771F2222722A4E6422A661C5
:10053000626125462035012212032860AA80AB7132
:1005400069812961E9712F771F222A72AE616422C5
:100550006A61224640320126B6031060968093718C
:1005600051811161D17117771F2616726426566169
:100570007D263601966116462036012252033060F0
:10058000B280B37171813161F17137771F2232729C
:10059000642272617D221201B2611D2292020092D8
:1005A0006A46117151710221D171694600F0AEFDA8
:1005B0006946306800F0AAFD6946286800F0A6FD8B
:1005C0006946206800F0A2FDFEBD0000000400485E
:1005D0002005002070170000054B0122824018689A
:1005E000002901D0104300E09043186070470000DC
:1005F000007400401CB50121480401F085FB012175
:10060000480701F08DFB102000900321684601711E
:1006100000214171C17109206946C00600F076FDD4
:100620001CBD000030B5074C2368074A8240934345
:1006300024C92A430D6849680D432A4382401A435E
:10064000226030BD00740040FE0F00001FB5FFF7B0
:10065000D1FF3C20009000210B200002019103916A
:10066000029069460020FFF7DDFF01210020FFF71F
:10067000B3FF1FBD034A08B5101808300090016091
:1006800008BD00000074004003090120044A98409E
:100690000029516801D0014300E081435160704757
:1006A00000740040F8B5374C0021608A00B201F0B8
:1006B000C3FD35480A21354E415E627C0025F74373
:1006C000914202D0027A202A03D0C179012903D0B5
:1006D00005E06174458117E0017A21290ED02021BF
:1006E00001722B480A21415E627C914202D0017A5C
:1006F00020291BD0C17901291AD01CE0458100694D
:10070000B04205D2142109E0608A401C6082E8E70B
:100710001E49C219491E8A4205D20A21FFF7FEFC72
:100720000029F1D0DDE7C007EED0DAE7458111E01E
:10073000017A212908D020210172608AFF212D3100
:10074000884219D36182F8BD45810069B04205D263
:10075000142109E0608A401E6082EEE70B49C2194D
:10076000491E8A4205D20A21FFF7D8FC0029F1D0A0
:10077000E3E7C007EED0E0E71E28E4D81E20608241
:10078000F8BD00002C00002060050020701700005C
:1007900080050020F8B5022000F0DCF8002844D0E5
:1007A00024480021244C415EA078244B8200401C48
:1007B000C0B29950A070032837D90026A6701846F9
:1007C00003F00EF81E490127081AA0601D4A277081
:1007D000915F1D4D884201D32F7005E01B4A12889E
:1007E000891A814200D32E7019484168491C416022
:1007F00002F080FB607800280DD1287801280AD10A
:100800001448154A0168491C01601268914202D3DC
:1008100012490F70066002F0CFFB104801781048B3
:10082000007802F087F928786070022000F01AF84A
:10083000F8BD0000BC00002000000020FC000020EB
:10084000FF0F0000400000202D0000203E0000208F
:10085000900000205C0000208C0000203000002070
:100860002F000020C10001D5024900E00249486084
:1008700070470000000402400000024000290168A7
:1008800002D00122114301E0014A1140016070478A
:10089000FEFF0000F0B501682B4A11400160002105
:1008A000016041608160C1602849284B08390F22EE
:1008B000984201D1486823E0244CF0231434A0422C
:1008C00029D0224D1C012835A8422BD01F4E1D02D5
:1008D0003C36B0422DD01D4F1E035037B8422FD0AA
:1008E0001A4F6437B84204D148681A0408E04860D7
:1008F000F0BD164F7837B84204D148680F2212066F
:100900001043F4E71249124F0839B842D2D0104AC6
:100910001432904202D148681843E8E70C4A283262
:10092000904202D148682043E1E7094A3C329042B4
:1009300002D148682843DAE7054A50329042D7D1BD
:1009400048683043D3E70000FEFF00000800024083
:100950000804024001460020CA0001D5034A00E015
:10096000034A12680A4200D0012070470004024086
:1009700000000240002A026801D00A4300E08A43D6
:100980000260704730B503680C4A0C6A13408A68ED
:100990004D6922430C692C4322438C692243CC6964
:1009A00022434C6A22438C6A22431A430260CA687B
:1009B00042600A6882604968C16030BD0F80FFFFF5
:1009C0000021016041608160C1600161416181611C
:1009D000C16101624162816270470000F8B5564C06
:1009E0000026A079554D564F332848D128460A2174
:1009F000037A695E38462246C079D27A002902D04D
:100A0000202B04D049E02673202B1BD045E0012980
:100A100006D0022908D003290AD004290DD013E0FA
:100A200000283AD1012006E0002836D1022002E059
:100A3000002832D1032020732FE000282DD104207C
:100A4000207306E0042902D0052905D025E00028FE
:100A500023D1002A04D020E000281ED1012A1CD175
:100A60006E81267319E0287A212805D1387A212849
:100A700002D1F879012826D00120FFF715FDE87989
:100A80000128F0D02F48C0790128ECD0F87901284E
:100A9000E9D02D48C0790128E5D0217BE07A0A46CB
:100AA000024332D0012903D801282ED001292FD0AA
:100AB000022930D0032936D0042903D1012801D1DD
:100AC000FFF7F0FDF8BDA079332804D03320A071E2
:100AD00026726E8105E03420A071FAE70120FFF74D
:100AE000E3FC164801F0D6FA012804D1144801F0BD
:100AF000D1FA0128F2D0A179144802F0B0FC1F20ED
:100B000028726E817E813872B9E700F021F8F8BD55
:100B1000002805D0F8BD012802D0002808D0F8BD73
:100B200000F0D0F9F8BD012802D00028C8D0F8BDE7
:100B300000F0BEF9F8BD00002C00002040050020A8
:100B40008005002020050020600500203C70000882
:100B500010B50548C07A002802D000F007F810BD93
:100B600000F00AF910BD00002C000020F8B57D4C03
:100B70007D4D2046217B028D007800267B4F12B2EE
:100B800000290AD001295FD11821615E01F0FAFE27
:100B9000E879217A084377D0BEE01621615E01F042
:100BA00073FEE879217A084347D1A079332844D1EC
:100BB0001625655F25846E480A21415EE27B9142DD
:100BC00002D0027A202A03D0C179012903D005E09E
:100BD000E173468117E0017A21290ED020210172AC
:100BE00064480A21415EE27B914202D0017A2029C9
:100BF0001CD0C17901291BD01DE046810069B84293
:100C000004D814210AE06D1CE582E9E75749C9437D
:100C100042185649491E8A4205D80A21FFF77EFA32
:100C20000029F0D0DCE7C007EDD0D9E7468112E01B
:100C3000017A212909D0202101721621615E7D20CF
:100C4000400181421CDBE082F8BD46810069B84268
:100C500005D214210BE0E08A401EE082EDE7434913
:100C6000C94342184149491E8A4206D20A21FFF768
:100C700055FA0029EFD0E0E706E0C007EBD0DCE74B
:100C80006429E1DC6420DEE7A079332844D118250B
:100C9000655F658436480A21415EE27B914202D05D
:100CA000027A202A03D0C179012903D005E0E1733B
:100CB000468117E0017A21290ED0202101722D48AA
:100CC0000A21415EE27B914202D0017A20291CD0A8
:100CD000C17901291BD01DE046810069B84204D8C2
:100CE00014210AE06D1C2583E9E72049C943421815
:100CF0001E49491E8A4205D80A21FFF70FFA00292A
:100D0000F0D0DCE7C007EDD0D9E7468112E0017AE8
:100D1000212909D0202101721821615E7D20400126
:100D200081421BDB2083F8BD46810069B84205D2B1
:100D300014210BE0208B401E2083EDE70B49C943B3
:100D400042180A49491E8A4205D20A21FFF7E6F9EC
:100D50000029EFD0E0E7C007ECD0DDE76429E2DC52
:100D60006420DFE72C000020400500207017000001
:100D70006005002080050020F8B5474C208D01B2A9
:100D80001420205E01F00CFD4448217AC079002730
:100D90000843002873D1A079332870D11426A65FA8
:100DA000E6833F4D00960A20285EA17B884202D050
:100DB000297A202903D0E879012803D005E0A0731F
:100DC0006F8118E0287A21280ED020202872354E15
:100DD0000A20305EA17B884202D0307A20281DD0C4
:100DE000F07901281CD01EE06F812F4928698842C4
:100DF00004D814210AE0761CA682E8E72A49C943F0
:100E000042182949491E8A4205D80A21FFF786F966
:100E10000029F0D0DBE7C007EDD0D8E7778114E0F8
:100E2000307A21280AD0202030721421615E009887
:100E3000884224D0F07900281BD020E077811A491D
:100E40003069884205D214210BE0A08A401EA0829E
:100E5000EBE71549C94342181349491E8A4205D296
:100E60000A21FFF75BF90029EFD0DEE7C007ECD0DD
:100E7000DBE7E879002802D10C4802F0F0FA1420F0
:100E8000205E7D214901884201DBA182F8BD002856
:100E9000FCDCA782F8BD00002C00002040050020EB
:100EA00060050020800500207017000028700008F1
:100EB00010B50348008E00B201F0E2FD10BD000045
:100EC0002C000020F8B5184CA07801F01DFE174842
:100ED0000A21415E227C0126154F002591420CD04B
:100EE000027A202A09D121744581A078002817D0E0
:100EF000A570A178384602F0B2FA0E480A21415E88
:100F0000227C91420BD0017A202908D14581A0781A
:100F1000002807D0A570A178384602F0A0FAF8BDE5
:100F2000A670E6E7A670F6E72C000020600500201A
:100F300046700008800500200149C8607047000025
:100F400000200240F0B50B2706463F04384600F06B
:100F500067F804280FD1084C206902252843206136
:100F600066612069402108432061384600F058F846
:100F70002169A9432161F0BD0020024008490420F5
:100F8000CA68D20701D001207047CA68D20601D5CD
:100F900002207047C9684907FBD50320704700004D
:100FA000002002400248016980221143016170471C
:100FB00000200240F8B5064600200B273F040090B1
:100FC0000D46384600F02CF8042815D10B4C20694A
:100FD0000121084320613580384600F021F80428BB
:100FE00006D1B61C280C00963080384600F018F860
:100FF0002169490849002161F8BD00000020024034
:1010000004480169090603D5034941600349416069
:10101000704700000020024023016745AB89EFCDF7
:1010200000B50346FFF7AAFF02E0FFF7A7FF5B1E2C
:10103000012803D0002B00D1052000BD002BF4D1E6
:10104000FAE7000000B50D490D4800F01DF80B4807
:1010500042780178120289188278C078120400065A
:10106000101809180548074A1C38016212684262C4
:101070008A4201D1012000BD002000BD1C000020DB
:10108000F00000200080000830B51F4AD3681C79AA
:101090000470D3681B7A4370D3685B788370D3681D
:1010A000DB78C370D3681D7805715D7945719D7AD1
:1010B0008571DD79C5715D7A05729D784572DD7A3D
:1010C00085729B79C37213691B7863400B70136937
:1010D00084795B78057A6340C4796C406340447AD4
:1010E0006340847A6340C47A63404B701369047927
:1010F0009B7863408B7012698378D27840785A402D
:101100004240CA7030BD000000000020F0B500224F
:10111000012423460D6893401D409D422AD10D793C
:10112000012D01D0022D12D1876855000326AE4053
:10113000B74387604E79AE4085682E4386608588C8
:101140009D43858085888B7993401D438580066803
:1011500055000323AB409E4306600E790768AE40FE
:101160003E430660C6689E43C660CB79AB40C56807
:101170002B43C360521C102ACBD3F0BD4B07DB0EB0
:101180009A40C90810B589000818016A0F249C40CC
:10119000A1430162016A1143016210BD0246128A35
:1011A00000200A4200D0012070470000044901607D
:1011B00000210171012242718171C17170470000EB
:1011C000FFFF0000002A01D0816170470185704750
:1011D00001490968016070470800002010B500242B
:1011E00004E00A21FEF79AFF641CE4B20028F8D15B
:1011F000204610BDF8B50020364C0090364D2061D9
:1012000020E036480168002001F0B2FC17E0684693
:10121000FFF7DEFF00982169884200D32061304E3D
:101220003078C10608D5EF21084030702B480022E5
:101230000168104601F004FD287A212806D0E879DB
:101240000128E4D020780028DBD0F8BD24480178BC
:10125000CA0638D5EF221140017000221146012044
:1012600001F0EEFC2FE02069A060616801260818FB
:10127000400809277602FF06E06031463846FFF74E
:101280008DFF024631463846FFF79CFF7610314607
:101290003846FFF783FF024631463846FFF792FF94
:1012A0001048E16801800120207000206881E87109
:1012B0001F2028720C4802F0D2F80C4801680A4836
:1012C0000A3002F0CCF8287A2128B8D1E879002831
:1012D000BCD1C8E798000020200500206C00002049
:1012E0003500002040000020287000085800002031
:1012F000FEE700007CB50121480400F005FD012156
:10130000880400F001FD0121C80400F0FDFC01216A
:10131000080500F0F9FC0121480500F0F5FC012169
:10132000880500F0F1FC6846FFF740FF032000024B
:10133000009001206946087100248C7103224A71D3
:101340000925C871ED062846FFF7E0FE69462846E4
:10135000FFF7DCFE0120C002009069460C714C7161
:10136000CC710248FFF7D2FE7CBD000000040048AB
:1013700010B55D2000F024FE002801D000F000FD33
:10138000074800F02BF8042000F01CF87D20000135
:1013900000F01EF800F00EF800F004F810BD000098
:1013A000555500000249014808607047CCCC000048
:1013B000003000400249014808607047AAAA0000B6
:1013C0000030004001494860704700000030004094
:1013D0000149886070470000003000400149086002
:1013E0007047000000300040F8B5484800F052FE59
:1013F000464C01250026012805D0204600F04AFE73
:10140000002805D005E02069401C2061E57100E05E
:10141000E6712069002802D0E179002905D0A16990
:10142000884205D9E079012802D1384800F015FC3E
:101430003648203800F02EFE344F203F012805D0DA
:10144000384600F027FE002805D005E03869401C2A
:101450003861FD7100E0FE713869002802D0F97929
:10146000002905D0A169884206D9F879012803D15D
:101470002648203800F0F1FB2448203000F00AFE16
:10148000224C2034012805D0204600F003FE00281D
:1014900005D005E02069401C2061E57100E0E6719F
:1014A0002069002802D0E179002905D0A16988428D
:1014B00006D9E079012803D11448203000F0CDFB93
:1014C0001248403000F0E6FD104F4037012805D0AB
:1014D000384600F0DFFD002805D005E03869401CE3
:1014E0003861FD7100E0FE713869002802D0F97999
:1014F000002905D0A169884206D9F879012803D1CD
:101500000248403000F0A9FBF8BD00004005002073
:10151000F8B5354CA06800F04BFE34480A21344E33
:10152000415EA2780025F743914202D0027A202A38
:1015300003D0C179012903D005E0A170458117E0EE
:10154000017A21290ED0202101722A480A21415E08
:10155000A278914202D0017A20291BD0C1790129B9
:101560001AD01CE045810069B04205D2142109E07F
:10157000A068401CA060E8E71D49C219491E8A42C4
:1015800005D20A21FEF7CAFD0029F1D0DDE7C00728
:10159000EED0DAE7458110E0017A212907D0202139
:1015A0000172A06801281ADC0120A060F8BD458105
:1015B0000069B04205D2142109E0A068401EA06075
:1015C000EFE70B49C219491E8A4205D20A21FEF7EC
:1015D000A5FD0029F1D0E4E7C007EED0E1E7064918
:1015E0008842E3DBA160F8BD840000206005002094
:1015F0007017000080050020FFFF0000F8B55B4D6C
:101600005B4E5C4F5C4C29E000F0EAFA0A20285E51
:10161000E17888420CD0297A202909D1E070002095
:1016200068812178491C49B22170032900DD2070AE
:101630000A20305EE17888420CD0307A202809D127
:10164000002070812078401E40B22070002801DA0E
:10165000032020700A20385E04282BDA2078002826
:10166000D2D027E000F08AF80A21695EE078814252
:101670000BD0297A202908D1002169812278521CB7
:1016800052B22270032A00DD21700A21715E81426C
:101690000CD0307A202809D1002070812078401E9B
:1016A00040B22070002801DA032020700A20385E42
:1016B00004282BDC20780128D4D027E000F01EF984
:1016C0000A21695EE07881420BD0297A202908D16D
:1016D000002169812278521C52B22270032A00DD57
:1016E00021700A21715E81420CD0307A202809D104
:1016F000002070812078401E40B22070002801DA5E
:10170000032020700A20385E04282BDC2078022871
:10171000D4D027E000F0ACF90A20285EE1788842B6
:101720000BD0287A202808D100226A812078401C1A
:1017300040B22070032800DD22700A20305E88420B
:101740000CD0307A202809D1002070812078401EEA
:1017500040B22070002801DA032020700A20385E91
:10176000042802DC20780328D4D0F8BD60050020CE
:10177000800500204005002084000020F8B5584C6A
:10178000EF2720780025C106564E002903DA38409D
:10179000207000F0D7FD9AE053492020087053488C
:1017A000C079002803D15248C079002807D020789A
:1017B0004D49384020700220085E002108E0207862
:1017C000C10607D53840207047490220085E012134
:1017D00000F0D8FD444A45480A210C3A415E12798E
:1017E000914202D0027A202A03D0C179012909D07E
:1017F0000BE03D4A0C3A117145813B484188491C38
:10180000418004E0017A212910D02021017236495B
:1018100037480A220C39825E09798A4202D0017A5D
:1018200020291FD0C17901291ED020E045810069FF
:101830003049884206D214210CE02B494888401CCC
:101840004880E4E72B49C94342182A49491E8A4285
:1018500005D20A21FEF762FC0029EED0D7E7C007C7
:10186000EBD0D4E7458116E0017A212909D0202167
:1018700001721D480222825E1F498A4224DB418098
:1018800025E0458100691B49884209D21421FEF7F1
:1018900045FC0029EDD114484188491E4180E8E704
:1018A0001449C94342181349491E8A4209D20A21E0
:1018B000FEF734FC0029DCD10B494888401E4880E3
:1018C000D7E7C007F8D0D4E7002A00DC4580307A9B
:1018D000202803D17089042800D15DE7F8BD0000FD
:1018E0003500002040050020900000206005002009
:1018F00080050020701700000F270000F8B5554C38
:10190000EF2720780025C106534E002903DA38401E
:10191000207000F0BDFD94E0504821210170504836
:10192000C079002803D14F48C079002808D020781A
:10193000DF210840207049490220085E002108E0AC
:101940002078C10607D53840207044490220085E3F
:10195000012100F0BDFD414A41480A210C3A415E97
:101960005279914202D0027A202A03D0C17901290A
:1019700005D007E0394A0C3A517145811AE0017AE5
:10198000212910D020210172344936480A220C390D
:10199000825E49798A4202D0017A20291FD0C1791A
:1019A000012922D024E0458100692F49884206D2CE
:1019B00014210CE029484188491C4180E4E72A4968
:1019C000C94342182849491E8A4205D20A21FEF716
:1019D000A5FB0029EED0D7E7C007EBD0D4E71F491D
:1019E00045814888401E488004E0017A212909D0B9
:1019F0002021017219480222825E1C498A421DDBA5
:101A000041801EE0458100691749884206D21421B1
:101A10000CE012484188491E4180EBE71249C94356
:101A200042181149491E8A4205D20A21FEF776FB67
:101A30000029EED0DEE7C007EBD0DBE7002A00DCB0
:101A40004580307A202803D17089042800D163E7CB
:101A5000F8BD000035000020400500209000002067
:101A60006005002080050020701700000F2700008F
:101A7000F8B5544CEF2720780025C106524E0029B6
:101A800003DA3840207000F0A9FD93E04F4822218E
:101A900001704F48C079002803D14E48C079002812
:101AA00007D020784949384020700220085E002184
:101AB00008E02078C10607D538402070434902204D
:101AC000085E012100F0AAFD404A41480A210C3A73
:101AD000415E9279914202D0027A202A03D0C179E4
:101AE000012905D007E0394A0C3A917145811AE085
:101AF000017A212910D020210172344935480A2267
:101B00000C39825E89798A4202D0017A20291FD05D
:101B1000C17901291ED020E0458100692E49884203
:101B200006D214210CE029484188491C4180E4E791
:101B30002949C94342182849491E8A4205D20A2127
:101B4000FEF7ECFA0029EED0D7E7C007EBD0D4E7D8
:101B5000458127E0017A212909D0202101721B4803
:101B60000222825E1D498A4221DB418022E04581BA
:101B700000691949884206D214210CE013484188B3
:101B8000491E4180EBE71449C94342181249491ED6
:101B90008A4205D20A21FEF7C1FA0029EED0DEE71B
:101BA000C007DCD109494888401E4880D7E7002A91
:101BB00000DC4580307A202803D17089042800D1C8
:101BC00064E7F8BD350000204005002090000020AB
:101BD0006005002080050020701700000F2700001E
:101BE00010B506480178CA0604D5EF2211400170ED
:101BF00000F09AFD02491F20087010BD350000203A
:101C0000900000207047000030B5837801210278F1
:101C1000002B15D094080E4BA400E41823689207FB
:101C2000D50EFF22AA40934342789207120EAA4093
:101C30001A4322600078C006C00E8140054804E0C7
:101C4000D006C00E814003488030016030BD0000E6
:101C500000E400E000E100E0704730B58279002147
:101C6000212320240D2A09D00B2A14D00C2A11D1AB
:101C700084690269A2420DD3037207E08569026993
:101C8000AA4208D30372C279002A03D101614189B3
:101C9000491C418130BD0472F8E7000010B50C48C2
:101CA00001680C4C0C4A6161914201DD00216161C7
:101CB000491C616101F0D3FB3220401E00B20028B4
:101CC000FBDC6069012801DC00F0F2F910BD0000C6
:101CD0000070000800000020FFFF000009494A686A
:101CE00001239B039A434A604A6883B21A434A60BD
:101CF0000A6B8B159A430A630A6B000C02430A6352
:101D00007047000000100240044A0029516901D0C8
:101D1000014300E081435161704700000010024020
:101D2000044A0029D16901D0014300E08143D16117
:101D30007047000000100240044A0029116901D0D8
:101D4000014300E081431161704700000010024030
:101D5000044A0029916901D0014300E08143916167
:101D60007047000000100240044A0029D16801D0E9
:101D7000014300E08143D160704700000010024041
:101D80000348416A01221206114341627047000074
:101D90000010024010B500F029F8012000F03CF9D5
:101DA000012000F00DF90028FAD0002000F02AF9F7
:101DB000002000F03FF90521C904002000F052F98D
:101DC000012000F041F90848FFF788FF192000F0D2
:101DD000F7F80028FAD0022000F052F900F00AF9D2
:101DE0000828FBD110BD0000004000011248016826
:101DF0000122114301604168104A114041600168AD
:101E00000F4A114001600168012292049143016070
:101E100041683F22120491434160C16A09090901E6
:101E2000C162016B074A11400163416B49084900D7
:101E30004163002181607047001002400CB8FF0828
:101E4000FFFFF6FEACFEF0FFF8B5564D044668689D
:101E500000210C22544E104005D0042803D008283D
:101E600003D00C281AD026601AE06968686803223B
:101E70008902D2030F0F1040BF1C00280AD0E86A65
:101E80000107090F3046491CFEF748F9784301461F
:101E9000216005E0454839464143F9E74448206060
:101EA0006868444F0006000F3B5C20680246DA4039
:101EB00062606B685B055B0FFB5CDA40A2602B6BBA
:101EC000DB0501D43C4B05E06B685B0401D453088F
:101ED00000E09308E3602B6B5F06384B03D4374F69
:101EE0001237276100E023612F6BFF0601D4666182
:101EF00000E060612F6BBF070ED02F6BBF07BF0FD5
:101F0000012F0BD02F6BBF07BF0F022F08D02F6BF5
:101F1000FF43BF0706D006E0A26104E0A06102E033
:101F2000A36100E0A6612F6BBF03BF0F0FD02F6B23
:101F3000BF03BF0F012F0CD02F6BBF03BF0F022FAA
:101F400009D02F6BBF03BF0F032F06D006E0E2615D
:101F500004E0E06102E0E36100E0E6612F6B3F0333
:101F6000BF0F0FD02A6B1203920F012A0CD0286BDF
:101F70000003800F022809D0286B0003800F03287C
:101F800006D006E0226204E0206202E0236200E064
:101F90002662286B000602D405486062F8BD6162C3
:101FA000F8BD00000010024000127A0000093D0058
:101FB000006CDC02AC000020809FD5000080000097
:101FC000034600200A495A090CD0012A0CD0022AE3
:101FD0000CD0496BDA06D20E012393400B4200D09D
:101FE000012070470968F5E7096AF3E7496AF1E7F4
:101FF00000100240024840680C2108407047000071
:1020000000100240034A5168F02399430143516094
:10201000704700000010024005490028086802D0FF
:102020000122104301E040084000086070470000B2
:1020300000100240034A516807231B0299430143E1
:102040005160704700100240012205491206002825
:10205000086801D0104300E090430860704700001A
:102060000010024010B5054A53687B24E403A343E3
:102070005360536808430343536010BD001002408F
:10208000034A516889088900014351607047000084
:102090000010024010B5044681880068FFF77EF802
:1020A000217F152902D1012800D0002010BD000099
:1020B000F8B51F25254E0A20357070807D20244FED
:1020C000C000244C3860A082E0623320A07101205F
:1020D000A0703220608229461F4801F0C0F91E48D6
:1020E0000221715E0A3001F0BAF91B4839681430D8
:1020F00001F0B5F918481421615E1E3001F0AFF906
:102100001548E16A283001F0AAF91348A179323064
:1021100001F0A5F91048A1783C3001F0A0F90E4873
:10212000618A463001F09BF90C480021057201617B
:1021300041810B4805724181A08D81B20020FEF7DC
:1021400099FA01210020FEF79FFAF8BD90000020C7
:102150008C0000202C0000200A70000840050020A0
:102160002005002070B5104C0E4920782546095CEA
:102170000C3529700D494000085A6860002001F0B4
:10218000D1FC686801F072FC287801F0CBFC68682B
:1021900001F06CFC2078411C2170082801D300203C
:1021A000207070BD1405002070000020D03B000896
:1021B000F1B50098FFF712F805460A210098FDF7DF
:1021C000ADFF024648001A4F1A4C385C00262070BA
:1021D000022D07D310460A21FDF7A0FF4800385C06
:1021E000607000E06670032D0AD364210098FDF74B
:1021F00095FF0A21FDF792FF4800385CA07000E0CF
:10220000A670042D0BD37D21C9000098FDF786FF31
:102210000A21FDF783FF4800385CE07000E0E670BB
:102220002671232060716D20A0710F20E071F8BD30
:10223000E23B000814050020F3B581B00C4601987C
:10224000FEF7CCFF074620463B4E00253B4C0028BE
:102250003CD03B48407A002830D00A210198FDF755
:1022600073FF4900715C2170022F06D30A21FDF72C
:102270006BFF4800305C607000E06570032F0AD38C
:1022800064210198FDF760FF0A21FDF75DFF48001A
:10229000305CA07000E0A570042F0BD37D21C90035
:1022A0000198FDF751FF0A21FDF74EFF4800305C11
:1022B000E07000E0E57022484572FEBD2570657053
:1022C000A5701F48E57001214172FEBD0A210198E9
:1022D000FDF73AFF4900715C2170022F12D30A21E9
:1022E000FDF732FF4800305C6070032F0BD3642190
:1022F0000198FDF729FF0A21FDF726FF4800305C11
:10230000A07001E06570A570042F0BD37D21C9007A
:102310000198FDF719FF0A21FDF716FF4800305C10
:10232000E07000E0E5702571072060714F20A0711A
:102330007320E071FEBD0000E23B000814050020A0
:10234000700000200D4840210170417081700C4ADE
:10235000C17093780021002B08D0732303714E23A2
:10236000437183716323C37191707047017141712F
:102370008171C17101209070704700001405002028
:1023800070000020F3B581B00C460198FEF726FFDF
:10239000074620463B4E00253B4C00283CD03B489E
:1023A000C078002830D00A210198FDF7CDFE490001
:1023B000715C2170022F06D30A21FDF7C5FE48008B
:1023C000305C607000E06570032F0AD364210198CF
:1023D000FDF7BAFE0A21FDF7B7FE4800305CA07099
:1023E00000E0A570042F0BD37D21C9000198FDF7F3
:1023F000ABFE0A21FDF7A8FE4800305CE07000E06B
:10240000E5702248C57034E025706570A5701F48DE
:10241000E5700121C1702CE00A210198FDF794FEBE
:102420004900715C2170022F12D30A21FDF78CFE46
:102430004800305C6070032F0BD364210198FDF7D6
:1024400083FE0A21FDF780FE4800305CA07001E0A9
:102450006570A570042F0BD37D21C9000198FDF78D
:1024600073FE0A21FDF770FE4800305CE07000E06A
:10247000E570732020714E206071A0716320E071BF
:10248000FEBD0000E23B00081405002070000020A3
:1024900010B50D4840220270427082700B4BC27022
:1024A0001C790021002C08D073240471427162222F
:1024B00082716322C271197110BD01714171817104
:1024C000C1710120187110BD14050020700000209A
:1024D000F3B581B00C460198FEF780FE0746204612
:1024E0003B4E00253B4C00283CD03B48407900281F
:1024F00030D00A210198FDF727FE4900715C217058
:10250000022F06D30A21FDF71FFE4800305C6070E1
:1025100000E06570032F0AD364210198FDF714FED3
:102520000A21FDF711FE4800305CA07000E0A570A4
:10253000042F0BD37D21C9000198FDF705FE0A2168
:10254000FDF702FE4800305CE07000E0E5702248D4
:10255000457134E025706570A5701F48E570012154
:1025600041712CE00A210198FDF7EEFD4900715CF4
:102570002170022F12D30A21FDF7E6FD4800305CDE
:102580006070032F0BD364210198FDF7DDFD0A2154
:10259000FDF7DAFD4800305CA07001E06570A570C1
:1025A000042F0BD37D21C9000198FDF7CDFD0A2131
:1025B000FDF7CAFD4800305CE07000E0E570732074
:1025C0002071402060716220A0716320E071FEBD27
:1025D000E23B000814050020700000200D48402157
:1025E0000170417081700C4AC17093790021002BF9
:1025F00009D04723037163234371762383716D23CD
:10260000C37191717047017141718171C171012074
:10261000907170471405002070000020F3B581B060
:102620000C460198FEF7DAFD074620463B4E002592
:102630003B4C00283CD03B48C079002830D00A21D0
:102640000198FDF781FD4900715C2170022F06D3CE
:102650000A21FDF779FD4800305C607000E065708C
:10266000032F0AD364210198FDF76EFD0A21FDF7BF
:102670006BFD4800305CA07000E0A570042F0BD308
:102680007D21C9000198FDF75FFD0A21FDF75CFD82
:102690004800305CE07000E0E5702248C57134E02D
:1026A00025706570A5701F48E5700121C1712CE08F
:1026B0000A210198FDF748FD4900715C2170022F45
:1026C00012D30A21FDF740FD4800305C6070032FF3
:1026D0000BD364210198FDF737FD0A21FDF734FD86
:1026E0004800305CA07001E06570A570042F0BD32A
:1026F0007D21C9000198FDF727FD0A21FDF724FD82
:102700004800305CE07000E0E570472020716320F5
:1027100060717620A0716D20E071FEBDE23B000883
:1027200014050020700000200D4840210170417008
:1027300081700C4AC17053780021002B08D04E23C1
:1027400003714371632383714723C37151707047D1
:10275000017141718171C171012050707047000099
:10276000140500207000002010B50C490F220A70DB
:1027700047234F224B7073248A70CC70002805D0F9
:102780007E2008714A710E228A7104E000200871CF
:102790004C718B716D20C87110BD000014050020B4
:1027A000F3B581B00298FEF719FD07460198FEF7D0
:1027B00015FD00900A210298FDF7C6FC024648006C
:1027C0002F4D304C285C00262070022F07D3104676
:1027D0000A21FDF7B9FC4800285C607000E06670D3
:1027E000032F0AD364210298FDF7AEFC0A21FDF7FE
:1027F000ABFC4800285CA07000E0A67038467D273E
:10280000FF0004280AD339460298FDF79DFC0A21EF
:10281000FDF79AFC4800285CE07000E0E6700A21B1
:102820000198FDF791FC4900695C2171009902292A
:1028300006D30A21FDF788FC4800285C607100E09F
:102840006671009803280AD364210198FDF77CFC87
:102850000A21FDF779FC4800285CA07100E0A67110
:10286000009804280AD339460198FDF76DFC0A2127
:10287000FDF76AFC4800285CE071FEBDE671FEBD14
:10288000E23B000814050020F7B582B00498FEF77B
:10289000A5FC00900398FEF7A1FC07460A210498C6
:1028A000FDF752FC0246354E4800354C305C207036
:1028B00000980025022807D310460A21FDF744FCA2
:1028C0004800305C607000E06570009803280AD30F
:1028D00064210498FDF738FC0A21FDF735FC480017
:1028E000305CA07000E0A570009804280BD37D2117
:1028F000C9000498FDF728FC0A21FDF725FC4800D3
:10290000305CE07000E0E570029800282FD00A21CA
:102910000398FDF719FC4900715C2171022F06D361
:102920000A21FDF711FC4800305C607100E0657120
:10293000032F0AD364210398FDF706FC0A21FDF753
:1029400003FC4800305CA07100E0A571042F0CD39B
:102950007D21C9000398FDF7F7FB0A21FDF7F4FB81
:102960004800305CE07105B0F0BDE571FBE7257112
:10297000392060717620A071F7E70000E23B000883
:1029800014050020F7B582B00498FEF727FC0090EC
:102990000398FEF723FC07460A210498FDF7D4FBB1
:1029A0000246354E4800354C305C207000980025BA
:1029B000022807D310460A21FDF7C6FB4800305C09
:1029C000607000E06570009803280AD364210498C1
:1029D000FDF7BAFB0A21FDF7B7FB4800305CA07099
:1029E00000E0A570009804280BD37D21C90004984D
:1029F000FDF7AAFB0A21FDF7A7FB4800305CE07059
:102A000000E0E570029800282FD00A210398FDF716
:102A10009BFB4900715C2171022F06D30A21FDF74F
:102A200093FB4800305C607100E06571032F0AD3AE
:102A300064210398FDF788FB0A21FDF785FB480018
:102A4000305CA07100E0A571042F0CD37D21C9007A
:102A50000398FDF779FB0A21FDF776FB4800305C0F
:102A6000E07105B0F0BDE571FBE725716320607191
:102A70000720A071F7E70000E23B000814050020E2
:102A8000F1B50098FEF7AAFB05460A210098FDF76C
:102A90005BFB024648001A4F1A4C385C0026207037
:102AA000022D07D310460A21FDF74EFB4800385C83
:102AB000607000E06670032D0AD364210098FDF772
:102AC00043FB0A21FDF740FB4800385CA07000E0A2
:102AD000A670042D0BD37D21C9000098FDF734FBAF
:102AE0000A21FDF731FB4800385CE07000E0E67039
:102AF0002671232060715E20A0710F20E071F8BD67
:102B0000E23B00081405002010B5094900220A70B4
:102B10004A708A70CA706224632240230C714A7121
:102B200000288B7101D0072000E07320C87110BD10
:102B30001405002010B50C46012109204902C006E9
:102B4000FEF72CFB094A002802D0012806D001E03C
:102B5000012C01D0002006E0302004E0002C01D040
:102B6000362000E00620107210BD00001405002081
:102B7000F3B581B007460298FEF730FB00252D4CD7
:102B80000646012F05D0022F1CD025706570A57058
:102B900046E025706570A5702748E570817A0029A8
:102BA00009D030212171472161714F21A1716D211F
:102BB000E1718572FEBD25716571A571E571012117
:102BC0008172FEBD0A210298FDF7A8FA49001B4F49
:102BD000022E795C217006D30A21FDF79FFA480086
:102BE000385C607000E06570032E0AD3642102989F
:102BF000FDF794FA0A21FDF791FA4800385CA070BD
:102C000000E0A570042E0BD37D21C9000298FDF7CA
:102C100085FA0A21FDF782FA4800385CE07000E08E
:102C2000E57030202071472060714F20A0716D2029
:102C3000E071FEBD1405002070000020E23B00089A
:102C4000F7B507460298FEF7C9FA00252D4C06464F
:102C5000012F05D0022F1CD025706570A57046E0AD
:102C600025706570A5702848E570C17A002909D0E3
:102C70005B212171472161714F21A1716D21E171AA
:102C8000C572FEBD25716571A571E5710121C17225
:102C9000FEBD0A210298FDF741FA49001B4F022EA2
:102CA000795C217006D30A21FDF738FA4800385CB8
:102CB000607000E06570032E0AD364210298FDF76E
:102CC0002DFA0A21FDF72AFA4800385CA07000E0CE
:102CD000A570042E0BD37D21C9000298FDF71EFAC2
:102CE0000A21FDF71BFA4800385CE07000E0E5704F
:102CF0005B202071472060714F20A0716D20E07132
:102D0000FEBD00001405002070000020E23B00081A
:102D1000FEB501214804FEF7F7FF01218804FEF704
:102D2000F3FF0121C804FEF7EFFF01210805FEF7BC
:102D3000EBFF01214805FEF7E7FF01218805FEF7BB
:102D4000E3FF6846FEF732FA0126B603012568461E
:102D500000960571002484714471C57169465E480E
:102D6000FEF7D4F95D48009068460571847144719E
:102D7000C57169465848FEF7C9F969465648FEF7D5
:102D8000C5F969465448FEF7C1F9554F69463846BA
:102D9000FEF7BCF907208002009068460571847137
:102DA0004471C57109206946C006FEF7AFF90920D4
:102DB0006946C006FEF7AAF909206946C006FEF773
:102DC000A5F9484800906846057184714471C57141
:102DD00069464548FEF79AF909206946C006FEF79C
:102DE00095F942480090684605718471447102214A
:102DF000C17169463C48FEF789F969463A48FEF7D1
:102E000085F969463846FEF781F969463648FEF786
:102E10007DF969463448FEF779F969463248FEF78C
:102E200075F969463048FEF771F9002201213846EC
:102E3000FEF7C8F9EC03002221462748FEF7C2F945
:102E4000002231462448FEF7BDF90022A110224895
:102E5000FEF7B8F9092000226111C006FEF7B2F9A9
:102E6000092000222111C006FEF7ACF9092000223A
:102E7000E110C006FEF7A6F9002208211A48FEF765
:102E8000A1F9092000222146C006FEF79BF9002285
:102E900080211548FEF796F9002220211248FEF7FE
:102EA00091F9002202213846FEF78CF90022102108
:102EB0000D48FEF787F9002240210B48FEF782F902
:102EC0000022E1110848FEF77DF90022A111064811
:102ED000FEF778F9FEBD00000008004801E00000A0
:102EE000001400480880000000040048F2030000BD
:102EF00070470000F8B52E48817A01292BD08178DF
:102F00004278914201D1012300E000232848294C56
:102F1000C37025780121092000274902C0061F2D12
:102F200011D026460222B25E7468214E766A724340
:102F3000202D11D01F4E212D1AD0222D0BD11C4D2A
:102F4000002B27D121E0002B01D0012200E000223C
:102F5000FEF738F96760F8BD002B05D00122FEF7B7
:102F600031F914484760F8BD9442FCD9002204E0CE
:102F7000002B05D09442F6D90122FEF723F9F8BDC3
:102F80000022FEF71FF97760F8BD6B7B012B01D0A3
:102F90007760EBE7944205D20122FEF713F9012096
:102FA0006873F8BD0022FEF70DF96F73F8BD0000DD
:102FB0002C0000209000002070B50E4CA07A012853
:102FC00017D02079FF2509260135F606002804D000
:102FD000012229463046FEF7F5F81A20205EFA282D
:102FE00007DB002020716083024629463046FEF749
:102FF000E9F870BD2C000020134911200860134827
:10300000416841604168416041687F22D203914339
:10301000416041680522D2041143416001680122E8
:1030200012061143016001688901FCD541688908D5
:1030300089004160416802221143416041680907EB
:10304000890F0229FAD17047002002400010024087
:1030500070B5124C0125A07A01280AD0E902104867
:10306000FEF79CF8002803D00020A072E07170BD2C
:10307000A572606B6428FAD3E57109250121ED067C
:10308000002249022846FEF79DF8FF210022013167
:103090002846FEF797F8A06BE06370BD2C00002077
:1030A000000400487047000010B514480168012270
:1030B000114301604168124A114041600168114AA0
:1030C000114001600168012292049143016041684E
:1030D0003F22120491434160C16A09090901C1629A
:1030E000016BFF22543291430163416B490849004F
:1030F000416300218160FFF77FFF10BD0010024097
:103100000CB8FFF8FFFFF6FE10B5064C0121204673
:1031100000F0ECF8002803D00121204600F073F8FD
:1031200010BD0000002C014010B501218C07204685
:1031300000F0DCF8002803D00121204600F063F8FD
:1031400010BD000070B5214E0121304600F0CEF8D0
:10315000002839D01E4CA069401CA0610A21A0693A
:10316000FCF7DCFF002500291BD11A480078002855
:1031700003D019480188491C0180FEF7F3FFFEF7D0
:1031800033F916480168491C0160FEF713F9144829
:1031900014490078002803D00868401C086000E04B
:1031A0000D60A069104988420AD3104810220178A6
:1031B00011430170A5610E48012201785140017050
:1031C0000121304600F01FF870BD000000040040EF
:1031D0000000002030000020460000206400002095
:1031E000360000206000002030750000350000200F
:1031F0002C00002080220029018801D0114300E02A
:10320000914301807047C9430182704700290188BA
:1032100002D00122114301E04908490001807047B2
:103220002A4910B5884202D10121C4143AE0012193
:103230008907884206D101210846FEF77DFD00215D
:10324000012008E02249884208D101210220FEF72E
:1032500073FD00210220FEF76FFD10BD1D4988425D
:1032600006D101211020FEF767FD00211020F2E7B2
:103270001949884206D101212020FEF75DFD002179
:103280002020E8E71549884207D18415012120460E
:10329000FEF752FD00212046DDE71149884209D1A1
:1032A00001210C042046FEF75FFD00212046FEF7B9
:1032B0005BFD10BD0B49884202D101214C04F1E7AE
:1032C00009498842F5D101218C04EBE7002C01402B
:1032D00000040040001000400014004000200040A6
:1032E0000040014000440140004801400246138A6A
:1032F000002092890B400A40002B02D0002A00D007
:1033000001207047002A828901D00A4300E08A43E5
:103310008281704770B5028C10239A430284048C1A
:103320008288038B1A4D2B400D782D062D0C1D43E2
:1033300020239C438B891B051E0C4B8826431B05B1
:103340001B0C144C3343A04202D0134EB04219D18F
:10335000124E32400E8AB604360C3243A04211D1CE
:103360008024A343CC892405240C1C4340239C4384
:103370008B881B051B0C2343094C22404C8AA40458
:10338000240C22438280058389688163038470BD95
:10339000FF8C0000002C014000400140FFFB0000BA
:1033A000FFF70000028B034B09021A40114301830F
:1033B00070470000FFF70000828870239A438280E4
:1033C00082880A438280704710B50288144B984265
:1033D00006D00124A407A04202D0124CA04203D17F
:1033E0007024A2434C8822430F4CA04203D00F4CC0
:1033F00022400C89224302804A68C2620A88028500
:10340000984208D00A4A904205D00A4A904202D017
:10341000094A904201D1897A01860121818210BD39
:10342000002C01400004004000100040FFFC0000A0
:103430000040014000440140004801400021C943D0
:10344000416000210180018141808172704700212B
:103450000A22504300E0491C8842FCD8704770B5EE
:103460000C460546FDF7CCFD3520FDF765FD2846E9
:10347000FDF768FD21462846FDF79CFD3520FDF748
:103480005BFDFDF78FFD70BD02E008C8121F08C18B
:10349000002AFAD170477047002001E001C1121FD5
:1034A000002AFBD17047000030B5012187B04802E7
:1034B000FEF74EFC1C4C2046FCF7CAFE6846FCF7A3
:1034C00022FF00216846017180200390C000009116
:1034D00004910591029069462046FCF7EFFE012118
:1034E0002046FCF701FF032204212046FCF790FE52
:1034F0002046FCF7BDFE01212046FCF78EFE0B4D59
:1035000020462946FCF7CBFE0028F9D001212046B1
:10351000FCF78CFE02212046FCF792FE2046FCF7C9
:10352000EDFE07B030BD00000024014001000001A5
:1035300070B501218CB00846FEF7E6FB092168460C
:1035400001700125857000244470FEF75DFB154E67
:103550003046FDF79FF901A8FDF732FA12480290B4
:103560000394A80208900B948020069004952020D4
:1035700009900E48019080150790059440010A902B
:1035800001A93046FDF7FEF9012202213046FDF780
:10359000F1F90220FDF766F901213046FDF76EF9D9
:1035A0000CB070BD08000240BC0000204024014067
:1035B0001CB501214804FEF7A7FB6846FDF7F6FDA0
:1035C000042000900320694608710020887148712A
:1035D0000120C8710920C006FDF798FD1CBD000040
:1035E000F0B58BB001210220FEF79AFB0121C80241
:1035F000FEF7AEFB01210846FEF792FB01214804CD
:10360000FEF782FB04A8FDF7D1FD02216846049174
:1036100001750321417500240925C475ED0604A92F
:103620002846FDF773FD022201212846FDF7A6FD7D
:103630000F216846017301258573447303A8FEF7C3
:10364000E3FA1021684601738573457303A8FEF7FA
:10365000DBFA2548FFF7E4FD6846FFF7EFFE684612
:10366000048144800A262F270196078084726946C8
:103670001D48FFF7A9FE012211461B48FFF742FE35
:1036800001211948FFF7C2FDA807FFF7C9FD6846E9
:10369000FFF7D4FE6846448001960780847269462D
:1036A000A807FFF791FE60216846018345830896CD
:1036B000848406A9A807FFF72DFE0821C806FFF796
:1036C00071FE01218807FFF795FD01221146900741
:1036D000FFF718FE20214806FFF76EFE012188073C
:1036E000FFF794FD0BB0F0BD000400401CB50121B4
:1036F0004C042046FEF708FB01212046FEF704FBA0
:1037000001206946087188710020C8710320487142
:1037100080200924E40600902046FDF7F7FC4020B5
:10372000009069462046FDF7F1FC00F077F81CBDDB
:10373000264C274D607A284E400840006072A18BCD
:1037400024488B001A1836681660C0582A68491C2D
:10375000121888B22A60A083802804D90020A08390
:103760000120607102E06079002804D000206071BF
:10377000D109A1622860FFF76BFC0926F606174FF6
:1037800015E00121002249023046FDF71BFDFF2113
:10379000002201313046FDF715FDE16BA06B401AA8
:1037A000B84204D30020E0716063A07202E0E079C7
:1037B0000028E6D1FDF712F9FCF7AEFDA079332819
:1037C000B8D100F007F900F063F8B3E72C0000204F
:1037D0000C0500200C01002008000020204E0000F5
:1037E00030B5016801250B460C46AA008258141911
:1037F0008A4200D211469A4200D913466D1C042D0C
:10380000F3DBC818201AC10F0818401030BD002083
:10381000401CC0B21E28FBD37047000070B505489D
:103820004024048109258020ED06A861FFF7EFFF01
:10383000AC6170BD2000004810B5FEF7ABFAFFF791
:1038400067FA00F0BBF91048FEF7FEFAFFF74EFFEB
:10385000FCF7FCFEFDF74EFDFCF756FEFF20F530B1
:10386000401E00B20028FBDCFDF782FDFDF7EAFBFD
:1038700006490028C87005D0FEF710FAFFF758FF78
:10388000002010BDFEE70000C8000020000000205E
:10389000F8B54948494E817A494F7170F979012943
:1038A00002D1C179012977D04649C979012973D05C
:1038B00045490025C97901297DD071E06581FDF771
:1038C00027FE60890128FAD023E0404C2078FEF7DB
:1038D0004BFF3D480A21415E7278914208D0027A3E
:1038E000202A05D1717045812078002809D02570E3
:1038F0000A20385E717888420BD0387A202808D1A7
:1039000002E001202070F3E77D81207800280CD0B0
:103910002570294840890228D7D0274C6089032880
:10392000207A05D020283BD137E001202070F0E735
:10393000202835D121480C3000781F2806D02028B7
:1039400006D0212806D022282AD105E0357027E0AC
:10395000012002E0022000E00320307020E0FDF7AB
:103960004DFE207A20281BD10A20205E042814DB7B
:103970006581E571114C16480C342178FFF76FFD15
:1039800013480221615E0A30FFF769FD1048B168F3
:103990001430FFF764FD03E00DE060890228DED0FB
:1039A000054CE079012803D12169A069814285D2C3
:1039B000207A212882D0F8BD400500208400002014
:1039C0008005002020050020600500203700002031
:1039D0000A700008F8B5012409256402ED062146A5
:1039E0002846FDF7DBFB024621462846FDF7EAFBA9
:1039F000194CE07901282DD11848C179012929D025
:103A00000027174D174EFCF7C5FB7D20C000FFF7C0
:103A10001EFD19E002206968FFF7AAF8207A212824
:103A200012D1E079012815D16089A081202020726F
:103A30000D491F204F8108727781084930724F81EC
:103A400008722F70FDF7D6FB207A2028E2D0E079AB
:103A50000128D8D0F8BD0000200500204005002036
:103A600098000020800500206005002030B5C207C6
:103A70000121002A02D01F4A916102E01D4A203232
:103A800011811D491D4A1E4B840701D5916100E03B
:103A900019811C4C450701D5946100E01C811A4C2A
:103AA000050701D5946100E01C81184C184A194B98
:103AB000C50601D5946100E01C81174C850601D52F
:103AC000946100E01C81154C450601D5946100E02D
:103AD0001C8105060824002D02DA114DAC6102E0BC
:103AE0000F4D20352C81C00501D5916130BD198164
:103AF00030BD0000001400480080000000080048AD
:103B000020080048004000000020000000040000E1
:103B100000000048200000480008000000100000DD
:103B20000004004870B50446204DC00701D00022B3
:103B300000E0012280212846FDF744FBA00701D5C3
:103B4000002200E0012220212846FDF73BFB184817
:103B5000610701D5002200E001220221FDF732FBBE
:103B6000200701D5002200E0012210212846FDF7A0
:103B700029FBE00601D5002200E001224021284671
:103B8000FDF720FB0B49A00601D5002200E0012231
:103B90002846FDF717FB0849600601D5002200E022
:103BA00001222846FDF70EFB70BD0000000400480E
:103BB00000140048000100000002000010B5FFF7EB
:103BC000F7FCFFF771FCFFF7B3FCFFF709FD10BD31
:103BD00001000200040008001000200040008000E6
:103BE00000013F0030005B00790074006D006F0041
:103BF00038007F007D007E0067000F0073004F00DB
:103C00004E0040006300620023006D00470000008A
:103C100007005E004E00760039000E000100020031
:103C2000040008001000200040008000FF00000099
:103C300037000000543C000800000020BC000000D9
:103C400088340008103D0008BC000020E408000093
:103C50009834000800000000000000000000000090
:103C6000ACF7FF1F2800002000000000000000004B
:103C700000000000000000000000000043191019BF
:103C80000000010000003300000000000000000000
:103C900000003200E803E803BC020000000000005E
:103CA000000000001700000000000000E803000012
:103CB0000000000000000000000000000000000004
:103CC00000000000000101010101010101010000EB
:103CD00000000000000000000000000000000000E4
:103CE000E80300001F000A000000000000000000C0
:103CF00000000000000000000000000000000000C4
:103D00000000000001020304010203040607080981
:04000005080000B13E
:00000001FF
